{
  "transactions": [
    {
      "hash": "0x6508ca43413493aca1c6ad834965fcdb970b9456dc68bd9f1d549ec9725e974b",
      "transactionType": "CALL",
      "contractName": null,
      "contractAddress": "0x212e0207999b982b2f4b8f91ca421d94dc8438e3",
      "function": "mint(address,uint256)",
      "arguments": [
        "0x37950C826Bee928EACa13E1a9ab92fB78d3f8dB4",
        "100000000000000000000000"
      ],
      "transaction": {
        "from": "0xa01fb14b58bdb67a8f07977273f8a2ca04078542",
        "to": "0x212e0207999b982b2f4b8f91ca421d94dc8438e3",
        "gas": "0xb7f7",
        "value": "0x0",
        "input": "0x40c10f1900000000000000000000000037950c826bee928eaca13e1a9ab92fb78d3f8db400000000000000000000000000000000000000000000152d02c7e14af6800000",
        "nonce": "0x1bc",
        "chainId": "0x7a0"
      },
      "additionalContracts": [],
      "isFixedGasLimit": false
    },
    {
      "hash": "0x2b5c4dc53fa7f19a547c813b35b4c8ddcb636b66a99f9a0342b357d40aec383f",
      "transactionType": "CALL",
      "contractName": null,
      "contractAddress": "0x37950c826bee928eaca13e1a9ab92fb78d3f8db4",
      "function": null,
      "arguments": null,
      "transaction": {
        "from": "0xa01fb14b58bdb67a8f07977273f8a2ca04078542",
        "to": "0x37950c826bee928eaca13e1a9ab92fb78d3f8db4",
        "gas": "0x714d",
        "value": "0xaa87bee538000",
        "input": "0x",
        "nonce": "0x1bd",
        "chainId": "0x7a0"
      },
      "additionalContracts": [],
      "isFixedGasLimit": false
    },
    {
      "hash": "0x4215126184da0a0338b29a041614bf85fc07775de0d02b632d9128e80e63f605",
      "transactionType": "CALL",
      "contractName": null,
      "contractAddress": "0x212e0207999b982b2f4b8f91ca421d94dc8438e3",
      "function": "mint(address,uint256)",
      "arguments": [
        "0xa7F33cFbb01111dD5670eAc8dc9ED51B70a83910",
        "100000000000000000000000"
      ],
      "transaction": {
        "from": "0xa01fb14b58bdb67a8f07977273f8a2ca04078542",
        "to": "0x212e0207999b982b2f4b8f91ca421d94dc8438e3",
        "gas": "0xb7f7",
        "value": "0x0",
        "input": "0x40c10f19000000000000000000000000a7f33cfbb01111dd5670eac8dc9ed51b70a8391000000000000000000000000000000000000000000000152d02c7e14af6800000",
        "nonce": "0x1be",
        "chainId": "0x7a0"
      },
      "additionalContracts": [],
      "isFixedGasLimit": false
    },
    {
      "hash": "0x2b1c7c02905bf6f8385a478e5ce7ed324de46599cb70841d023876206df934b9",
      "transactionType": "CALL",
      "contractName": null,
      "contractAddress": "0xa7f33cfbb01111dd5670eac8dc9ed51b70a83910",
      "function": null,
      "arguments": null,
      "transaction": {
        "from": "0xa01fb14b58bdb67a8f07977273f8a2ca04078542",
        "to": "0xa7f33cfbb01111dd5670eac8dc9ed51b70a83910",
        "gas": "0x714d",
        "value": "0xaa87bee538000",
        "input": "0x",
        "nonce": "0x1bf",
        "chainId": "0x7a0"
      },
      "additionalContracts": [],
      "isFixedGasLimit": false
    },
    {
      "hash": "0x46c4d8f55bc02d24c4bdbf5c3ae32eb574a792c4a3c9206c1e7837ab94bb8ab0",
      "transactionType": "CALL",
      "contractName": null,
      "contractAddress": "0x212e0207999b982b2f4b8f91ca421d94dc8438e3",
      "function": "mint(address,uint256)",
      "arguments": [
        "0xf3bACE34f8668dB2da9bde74956F8615fF3Db88b",
        "100000000000000000000000"
      ],
      "transaction": {
        "from": "0xa01fb14b58bdb67a8f07977273f8a2ca04078542",
        "to": "0x212e0207999b982b2f4b8f91ca421d94dc8438e3",
        "gas": "0xb7f7",
        "value": "0x0",
        "input": "0x40c10f19000000000000000000000000f3bace34f8668db2da9bde74956f8615ff3db88b00000000000000000000000000000000000000000000152d02c7e14af6800000",
        "nonce": "0x1c0",
        "chainId": "0x7a0"
      },
      "additionalContracts": [],
      "isFixedGasLimit": false
    },
    {
      "hash": "0xafdaa41a1cc037d63be2e436785c2b8072a9e275199355ac3b02a6dc46de754f",
      "transactionType": "CALL",
      "contractName": null,
      "contractAddress": "0xf3bace34f8668db2da9bde74956f8615ff3db88b",
      "function": null,
      "arguments": null,
      "transaction": {
        "from": "0xa01fb14b58bdb67a8f07977273f8a2ca04078542",
        "to": "0xf3bace34f8668db2da9bde74956f8615ff3db88b",
        "gas": "0x714d",
        "value": "0xaa87bee538000",
        "input": "0x",
        "nonce": "0x1c1",
        "chainId": "0x7a0"
      },
      "additionalContracts": [],
      "isFixedGasLimit": false
    },
    {
      "hash": "0x500a8ac2fb90078e48853d01139ab0be7d594b555abda18951b11eb4a19d57c2",
      "transactionType": "CALL",
      "contractName": null,
      "contractAddress": "0x212e0207999b982b2f4b8f91ca421d94dc8438e3",
      "function": "mint(address,uint256)",
      "arguments": [
        "0x72Cac976C20Fd69f9e86Ff3Ef145fF8f531f84Db",
        "100000000000000000000000"
      ],
      "transaction": {
        "from": "0xa01fb14b58bdb67a8f07977273f8a2ca04078542",
        "to": "0x212e0207999b982b2f4b8f91ca421d94dc8438e3",
        "gas": "0xb7f7",
        "value": "0x0",
        "input": "0x40c10f1900000000000000000000000072cac976c20fd69f9e86ff3ef145ff8f531f84db00000000000000000000000000000000000000000000152d02c7e14af6800000",
        "nonce": "0x1c2",
        "chainId": "0x7a0"
      },
      "additionalContracts": [],
      "isFixedGasLimit": false
    },
    {
      "hash": "0x955f29715e85c9aaf7e8b3cf6a010c38c242e15bb784364df6ddf6955d9133bc",
      "transactionType": "CALL",
      "contractName": null,
      "contractAddress": "0x72cac976c20fd69f9e86ff3ef145ff8f531f84db",
      "function": null,
      "arguments": null,
      "transaction": {
        "from": "0xa01fb14b58bdb67a8f07977273f8a2ca04078542",
        "to": "0x72cac976c20fd69f9e86ff3ef145ff8f531f84db",
        "gas": "0x714d",
        "value": "0xaa87bee538000",
        "input": "0x",
        "nonce": "0x1c3",
        "chainId": "0x7a0"
      },
      "additionalContracts": [],
      "isFixedGasLimit": false
    },
    {
      "hash": "0xc734c01913c64ea13de0b2bf6dabd8b57dda04160316b49dda5adc7b9e763c05",
      "transactionType": "CALL",
      "contractName": null,
      "contractAddress": "0x212e0207999b982b2f4b8f91ca421d94dc8438e3",
      "function": "mint(address,uint256)",
      "arguments": [
        "0xD851b10081BD509d11803adB390CE7b5Fb0B6a96",
        "100000000000000000000000"
      ],
      "transaction": {
        "from": "0xa01fb14b58bdb67a8f07977273f8a2ca04078542",
        "to": "0x212e0207999b982b2f4b8f91ca421d94dc8438e3",
        "gas": "0xb7e6",
        "value": "0x0",
        "input": "0x40c10f19000000000000000000000000d851b10081bd509d11803adb390ce7b5fb0b6a9600000000000000000000000000000000000000000000152d02c7e14af6800000",
        "nonce": "0x1c4",
        "chainId": "0x7a0"
      },
      "additionalContracts": [],
      "isFixedGasLimit": false
    },
    {
      "hash": "0x559af5efdf7f3be655550d8d77160ffbf58efddbc3c21e16f44dd31d3b0aac90",
      "transactionType": "CALL",
      "contractName": null,
      "contractAddress": "0xd851b10081bd509d11803adb390ce7b5fb0b6a96",
      "function": null,
      "arguments": null,
      "transaction": {
        "from": "0xa01fb14b58bdb67a8f07977273f8a2ca04078542",
        "to": "0xd851b10081bd509d11803adb390ce7b5fb0b6a96",
        "gas": "0x714d",
        "value": "0xaa87bee538000",
        "input": "0x",
        "nonce": "0x1c5",
        "chainId": "0x7a0"
      },
      "additionalContracts": [],
      "isFixedGasLimit": false
    },
    {
      "hash": "0xb0c33f93d3c76b3455722908ebf34e472b0ffbdde609cfe90b11e0301af2f8e2",
      "transactionType": "CALL",
      "contractName": null,
      "contractAddress": "0x212e0207999b982b2f4b8f91ca421d94dc8438e3",
      "function": "mint(address,uint256)",
      "arguments": [
        "0xBa47524C1cEc183D9F35a810B98A4998b58eB9bD",
        "100000000000000000000000"
      ],
      "transaction": {
        "from": "0xa01fb14b58bdb67a8f07977273f8a2ca04078542",
        "to": "0x212e0207999b982b2f4b8f91ca421d94dc8438e3",
        "gas": "0xb7f7",
        "value": "0x0",
        "input": "0x40c10f19000000000000000000000000ba47524c1cec183d9f35a810b98a4998b58eb9bd00000000000000000000000000000000000000000000152d02c7e14af6800000",
        "nonce": "0x1c6",
        "chainId": "0x7a0"
      },
      "additionalContracts": [],
      "isFixedGasLimit": false
    },
    {
      "hash": "0xcb67275ab6b19c4c3021ef4f550c2170455196714f6736783bacb844c6733c20",
      "transactionType": "CALL",
      "contractName": null,
      "contractAddress": "0xba47524c1cec183d9f35a810b98a4998b58eb9bd",
      "function": null,
      "arguments": null,
      "transaction": {
        "from": "0xa01fb14b58bdb67a8f07977273f8a2ca04078542",
        "to": "0xba47524c1cec183d9f35a810b98a4998b58eb9bd",
        "gas": "0x714d",
        "value": "0xaa87bee538000",
        "input": "0x",
        "nonce": "0x1c7",
        "chainId": "0x7a0"
      },
      "additionalContracts": [],
      "isFixedGasLimit": false
    },
    {
      "hash": "0xab83c1faf869e8e3bc769c5ab6930a4d53f2fe2526c2956cde6011457290faf7",
      "transactionType": "CALL",
      "contractName": null,
      "contractAddress": "0x212e0207999b982b2f4b8f91ca421d94dc8438e3",
      "function": "mint(address,uint256)",
      "arguments": [
        "0xca55EA9B797E6FEC077F2122123152809Bd5fe52",
        "100000000000000000000000"
      ],
      "transaction": {
        "from": "0xa01fb14b58bdb67a8f07977273f8a2ca04078542",
        "to": "0x212e0207999b982b2f4b8f91ca421d94dc8438e3",
        "gas": "0xb7f7",
        "value": "0x0",
        "input": "0x40c10f19000000000000000000000000ca55ea9b797e6fec077f2122123152809bd5fe5200000000000000000000000000000000000000000000152d02c7e14af6800000",
        "nonce": "0x1c8",
        "chainId": "0x7a0"
      },
      "additionalContracts": [],
      "isFixedGasLimit": false
    },
    {
      "hash": "0xb47e7088a6721b0f96a9e9f892b444596d4291c4a07ec103f6c7e6f02048cc92",
      "transactionType": "CALL",
      "contractName": null,
      "contractAddress": "0xca55ea9b797e6fec077f2122123152809bd5fe52",
      "function": null,
      "arguments": null,
      "transaction": {
        "from": "0xa01fb14b58bdb67a8f07977273f8a2ca04078542",
        "to": "0xca55ea9b797e6fec077f2122123152809bd5fe52",
        "gas": "0x714d",
        "value": "0xaa87bee538000",
        "input": "0x",
        "nonce": "0x1c9",
        "chainId": "0x7a0"
      },
      "additionalContracts": [],
      "isFixedGasLimit": false
    },
    {
      "hash": "0x4772e1e81b882b17cf1228b3b168eb522a9a23ab71c1e3f8b7e85d0992284fea",
      "transactionType": "CALL",
      "contractName": null,
      "contractAddress": "0x212e0207999b982b2f4b8f91ca421d94dc8438e3",
      "function": "mint(address,uint256)",
      "arguments": [
        "0xC88b87a48978bcb341927c06a306055Bc42a68b6",
        "100000000000000000000000"
      ],
      "transaction": {
        "from": "0xa01fb14b58bdb67a8f07977273f8a2ca04078542",
        "to": "0x212e0207999b982b2f4b8f91ca421d94dc8438e3",
        "gas": "0xb7f7",
        "value": "0x0",
        "input": "0x40c10f19000000000000000000000000c88b87a48978bcb341927c06a306055bc42a68b600000000000000000000000000000000000000000000152d02c7e14af6800000",
        "nonce": "0x1ca",
        "chainId": "0x7a0"
      },
      "additionalContracts": [],
      "isFixedGasLimit": false
    },
    {
      "hash": "0xa248d683a1eec20b2a8e0a63e56920fcabde8572501ebaf154e78f787ab13990",
      "transactionType": "CALL",
      "contractName": null,
      "contractAddress": "0xc88b87a48978bcb341927c06a306055bc42a68b6",
      "function": null,
      "arguments": null,
      "transaction": {
        "from": "0xa01fb14b58bdb67a8f07977273f8a2ca04078542",
        "to": "0xc88b87a48978bcb341927c06a306055bc42a68b6",
        "gas": "0x714d",
        "value": "0xaa87bee538000",
        "input": "0x",
        "nonce": "0x1cb",
        "chainId": "0x7a0"
      },
      "additionalContracts": [],
      "isFixedGasLimit": false
    },
    {
      "hash": "0xb04ade6839cfa857d4aa2eb63cddf4784d31b19502e87b42bb3801fdd82ae7e4",
      "transactionType": "CALL",
      "contractName": null,
      "contractAddress": "0x212e0207999b982b2f4b8f91ca421d94dc8438e3",
      "function": "mint(address,uint256)",
      "arguments": [
        "0xCC62e6dA374b0d318D0eAf6C39E58AbF6b1bD165",
        "100000000000000000000000"
      ],
      "transaction": {
        "from": "0xa01fb14b58bdb67a8f07977273f8a2ca04078542",
        "to": "0x212e0207999b982b2f4b8f91ca421d94dc8438e3",
        "gas": "0xb7f7",
        "value": "0x0",
        "input": "0x40c10f19000000000000000000000000cc62e6da374b0d318d0eaf6c39e58abf6b1bd16500000000000000000000000000000000000000000000152d02c7e14af6800000",
        "nonce": "0x1cc",
        "chainId": "0x7a0"
      },
      "additionalContracts": [],
      "isFixedGasLimit": false
    },
    {
      "hash": "0x0191fbbc374f8f02bec9ee959123162a03c373cb878f4545ce6b7df9d644a067",
      "transactionType": "CALL",
      "contractName": null,
      "contractAddress": "0xcc62e6da374b0d318d0eaf6c39e58abf6b1bd165",
      "function": null,
      "arguments": null,
      "transaction": {
        "from": "0xa01fb14b58bdb67a8f07977273f8a2ca04078542",
        "to": "0xcc62e6da374b0d318d0eaf6c39e58abf6b1bd165",
        "gas": "0x714d",
        "value": "0xaa87bee538000",
        "input": "0x",
        "nonce": "0x1cd",
        "chainId": "0x7a0"
      },
      "additionalContracts": [],
      "isFixedGasLimit": false
    },
    {
      "hash": "0xea34a47437dfebb5876ce2cc39cd7b87f045384473621b4462517edbfd30ee37",
      "transactionType": "CALL",
      "contractName": null,
      "contractAddress": "0x212e0207999b982b2f4b8f91ca421d94dc8438e3",
      "function": "mint(address,uint256)",
      "arguments": [
        "0x229d4046079902B548A20bBaF3365cEe34b316EF",
        "100000000000000000000000"
      ],
      "transaction": {
        "from": "0xa01fb14b58bdb67a8f07977273f8a2ca04078542",
        "to": "0x212e0207999b982b2f4b8f91ca421d94dc8438e3",
        "gas": "0xb7f7",
        "value": "0x0",
        "input": "0x40c10f19000000000000000000000000229d4046079902b548a20bbaf3365cee34b316ef00000000000000000000000000000000000000000000152d02c7e14af6800000",
        "nonce": "0x1ce",
        "chainId": "0x7a0"
      },
      "additionalContracts": [],
      "isFixedGasLimit": false
    },
    {
      "hash": "0x3f84e24a88d693aedc80b46dd05c3cc7f743fb479a9eb137a12280a38c8cd780",
      "transactionType": "CALL",
      "contractName": null,
      "contractAddress": "0x229d4046079902b548a20bbaf3365cee34b316ef",
      "function": null,
      "arguments": null,
      "transaction": {
        "from": "0xa01fb14b58bdb67a8f07977273f8a2ca04078542",
        "to": "0x229d4046079902b548a20bbaf3365cee34b316ef",
        "gas": "0x714d",
        "value": "0xaa87bee538000",
        "input": "0x",
        "nonce": "0x1cf",
        "chainId": "0x7a0"
      },
      "additionalContracts": [],
      "isFixedGasLimit": false
    },
    {
      "hash": "0x5f274e004e433d3c6f00abf2f63274289a0861dd31c811a2b06716e84ad6bc18",
      "transactionType": "CALL",
      "contractName": null,
      "contractAddress": "0x212e0207999b982b2f4b8f91ca421d94dc8438e3",
      "function": "mint(address,uint256)",
      "arguments": [
        "0x78D51dBe164A4C1292754cf9a007e353Eac29c76",
        "100000000000000000000000"
      ],
      "transaction": {
        "from": "0xa01fb14b58bdb67a8f07977273f8a2ca04078542",
        "to": "0x212e0207999b982b2f4b8f91ca421d94dc8438e3",
        "gas": "0xb7f7",
        "value": "0x0",
        "input": "0x40c10f1900000000000000000000000078d51dbe164a4c1292754cf9a007e353eac29c7600000000000000000000000000000000000000000000152d02c7e14af6800000",
        "nonce": "0x1d0",
        "chainId": "0x7a0"
      },
      "additionalContracts": [],
      "isFixedGasLimit": false
    },
    {
      "hash": "0x75d1a144d0baecc63be6d830e091eefe67e16f6e1c085160ce3175a5f728acb5",
      "transactionType": "CALL",
      "contractName": null,
      "contractAddress": "0x78d51dbe164a4c1292754cf9a007e353eac29c76",
      "function": null,
      "arguments": null,
      "transaction": {
        "from": "0xa01fb14b58bdb67a8f07977273f8a2ca04078542",
        "to": "0x78d51dbe164a4c1292754cf9a007e353eac29c76",
        "gas": "0x714d",
        "value": "0xaa87bee538000",
        "input": "0x",
        "nonce": "0x1d1",
        "chainId": "0x7a0"
      },
      "additionalContracts": [],
      "isFixedGasLimit": false
    },
    {
      "hash": "0x68f41fb19bda0b373a13cb1f391f9cea3e912e132b6b459a13c41dbaec2f3d14",
      "transactionType": "CALL",
      "contractName": null,
      "contractAddress": "0x212e0207999b982b2f4b8f91ca421d94dc8438e3",
      "function": "mint(address,uint256)",
      "arguments": [
        "0x35a70Fa2c9D24aA25cf9dFA7B1F09520A99d14CA",
        "100000000000000000000000"
      ],
      "transaction": {
        "from": "0xa01fb14b58bdb67a8f07977273f8a2ca04078542",
        "to": "0x212e0207999b982b2f4b8f91ca421d94dc8438e3",
        "gas": "0xb7f7",
        "value": "0x0",
        "input": "0x40c10f1900000000000000000000000035a70fa2c9d24aa25cf9dfa7b1f09520a99d14ca00000000000000000000000000000000000000000000152d02c7e14af6800000",
        "nonce": "0x1d2",
        "chainId": "0x7a0"
      },
      "additionalContracts": [],
      "isFixedGasLimit": false
    },
    {
      "hash": "0x8ea9ed1c125cf4d27afde802450a1e6c2f6b06b9335c49fda3c930c68601cb2b",
      "transactionType": "CALL",
      "contractName": null,
      "contractAddress": "0x35a70fa2c9d24aa25cf9dfa7b1f09520a99d14ca",
      "function": null,
      "arguments": null,
      "transaction": {
        "from": "0xa01fb14b58bdb67a8f07977273f8a2ca04078542",
        "to": "0x35a70fa2c9d24aa25cf9dfa7b1f09520a99d14ca",
        "gas": "0x714d",
        "value": "0xaa87bee538000",
        "input": "0x",
        "nonce": "0x1d3",
        "chainId": "0x7a0"
      },
      "additionalContracts": [],
      "isFixedGasLimit": false
    },
    {
      "hash": "0x29e4e80b34e5da4ca5ac600b127809f35560fce73522b70c420a248eef6fdba6",
      "transactionType": "CALL",
      "contractName": null,
      "contractAddress": "0x212e0207999b982b2f4b8f91ca421d94dc8438e3",
      "function": "mint(address,uint256)",
      "arguments": [
        "0x6bA94b109616Fc2BAEE916113721E1f107146cC4",
        "100000000000000000000000"
      ],
      "transaction": {
        "from": "0xa01fb14b58bdb67a8f07977273f8a2ca04078542",
        "to": "0x212e0207999b982b2f4b8f91ca421d94dc8438e3",
        "gas": "0xb7f7",
        "value": "0x0",
        "input": "0x40c10f190000000000000000000000006ba94b109616fc2baee916113721e1f107146cc400000000000000000000000000000000000000000000152d02c7e14af6800000",
        "nonce": "0x1d4",
        "chainId": "0x7a0"
      },
      "additionalContracts": [],
      "isFixedGasLimit": false
    },
    {
      "hash": "0xa4590a95bcae367b96595154e1b9eefaea4962f40536b17d2aa2c47919792851",
      "transactionType": "CALL",
      "contractName": null,
      "contractAddress": "0x6ba94b109616fc2baee916113721e1f107146cc4",
      "function": null,
      "arguments": null,
      "transaction": {
        "from": "0xa01fb14b58bdb67a8f07977273f8a2ca04078542",
        "to": "0x6ba94b109616fc2baee916113721e1f107146cc4",
        "gas": "0x714d",
        "value": "0xaa87bee538000",
        "input": "0x",
        "nonce": "0x1d5",
        "chainId": "0x7a0"
      },
      "additionalContracts": [],
      "isFixedGasLimit": false
    },
    {
      "hash": "0xd42b34f7f7df69115e11eadaefe8f3c280b8056a90bdb1064a8673c14a804f16",
      "transactionType": "CALL",
      "contractName": null,
      "contractAddress": "0x212e0207999b982b2f4b8f91ca421d94dc8438e3",
      "function": "mint(address,uint256)",
      "arguments": [
        "0x8C04f04F8E7Cd7743Ae69af2b8f630edF3CB6B3a",
        "100000000000000000000000"
      ],
      "transaction": {
        "from": "0xa01fb14b58bdb67a8f07977273f8a2ca04078542",
        "to": "0x212e0207999b982b2f4b8f91ca421d94dc8438e3",
        "gas": "0xb7f7",
        "value": "0x0",
        "input": "0x40c10f190000000000000000000000008c04f04f8e7cd7743ae69af2b8f630edf3cb6b3a00000000000000000000000000000000000000000000152d02c7e14af6800000",
        "nonce": "0x1d6",
        "chainId": "0x7a0"
      },
      "additionalContracts": [],
      "isFixedGasLimit": false
    },
    {
      "hash": "0x84c9dad94619d5de0804d822dfa8b5609f99a3a225c9523b35d6ecde35a9d56f",
      "transactionType": "CALL",
      "contractName": null,
      "contractAddress": "0x8c04f04f8e7cd7743ae69af2b8f630edf3cb6b3a",
      "function": null,
      "arguments": null,
      "transaction": {
        "from": "0xa01fb14b58bdb67a8f07977273f8a2ca04078542",
        "to": "0x8c04f04f8e7cd7743ae69af2b8f630edf3cb6b3a",
        "gas": "0x714d",
        "value": "0xaa87bee538000",
        "input": "0x",
        "nonce": "0x1d7",
        "chainId": "0x7a0"
      },
      "additionalContracts": [],
      "isFixedGasLimit": false
    },
    {
      "hash": "0xe5c15183266d3b5343ad44f6a0b63eb7629cbe28a7116dc8bc5e39170e854ef0",
      "transactionType": "CALL",
      "contractName": null,
      "contractAddress": "0x212e0207999b982b2f4b8f91ca421d94dc8438e3",
      "function": "mint(address,uint256)",
      "arguments": [
        "0x849F1DC5EBdDA263CdA1A53950A47164878e106A",
        "100000000000000000000000"
      ],
      "transaction": {
        "from": "0xa01fb14b58bdb67a8f07977273f8a2ca04078542",
        "to": "0x212e0207999b982b2f4b8f91ca421d94dc8438e3",
        "gas": "0xb7f7",
        "value": "0x0",
        "input": "0x40c10f19000000000000000000000000849f1dc5ebdda263cda1a53950a47164878e106a00000000000000000000000000000000000000000000152d02c7e14af6800000",
        "nonce": "0x1d8",
        "chainId": "0x7a0"
      },
      "additionalContracts": [],
      "isFixedGasLimit": false
    },
    {
      "hash": "0x53fd1c8838c6c7496aa4ef672582906f5d6db316e627aadae3250aeda8f2b148",
      "transactionType": "CALL",
      "contractName": null,
      "contractAddress": "0x849f1dc5ebdda263cda1a53950a47164878e106a",
      "function": null,
      "arguments": null,
      "transaction": {
        "from": "0xa01fb14b58bdb67a8f07977273f8a2ca04078542",
        "to": "0x849f1dc5ebdda263cda1a53950a47164878e106a",
        "gas": "0x714d",
        "value": "0xaa87bee538000",
        "input": "0x",
        "nonce": "0x1d9",
        "chainId": "0x7a0"
      },
      "additionalContracts": [],
      "isFixedGasLimit": false
    },
    {
      "hash": "0xbf7a041a2287177ee3f4ddea01cf638dd3b95cf6266733f09a8e0bab65b1e163",
      "transactionType": "CALL",
      "contractName": null,
      "contractAddress": "0x212e0207999b982b2f4b8f91ca421d94dc8438e3",
      "function": "mint(address,uint256)",
      "arguments": [
        "0x436861F2B7eb1dd6e5d06821d024fb74a7E6092e",
        "100000000000000000000000"
      ],
      "transaction": {
        "from": "0xa01fb14b58bdb67a8f07977273f8a2ca04078542",
        "to": "0x212e0207999b982b2f4b8f91ca421d94dc8438e3",
        "gas": "0xb7f7",
        "value": "0x0",
        "input": "0x40c10f19000000000000000000000000436861f2b7eb1dd6e5d06821d024fb74a7e6092e00000000000000000000000000000000000000000000152d02c7e14af6800000",
        "nonce": "0x1da",
        "chainId": "0x7a0"
      },
      "additionalContracts": [],
      "isFixedGasLimit": false
    },
    {
      "hash": "0x80da68b57e597f1ed5b0084ce00a090bd500e8fc6197943688de1d8dc57c66b8",
      "transactionType": "CALL",
      "contractName": null,
      "contractAddress": "0x436861f2b7eb1dd6e5d06821d024fb74a7e6092e",
      "function": null,
      "arguments": null,
      "transaction": {
        "from": "0xa01fb14b58bdb67a8f07977273f8a2ca04078542",
        "to": "0x436861f2b7eb1dd6e5d06821d024fb74a7e6092e",
        "gas": "0x714d",
        "value": "0xaa87bee538000",
        "input": "0x",
        "nonce": "0x1db",
        "chainId": "0x7a0"
      },
      "additionalContracts": [],
      "isFixedGasLimit": false
    },
    {
      "hash": "0x0017a17d285037c214900a9a6015f1634af0b96bb855ed78171e090934b20c0c",
      "transactionType": "CALL",
      "contractName": null,
      "contractAddress": "0x212e0207999b982b2f4b8f91ca421d94dc8438e3",
      "function": "mint(address,uint256)",
      "arguments": [
        "0x259DCa264Bf1d91512e49F553bc7E14D74311a57",
        "100000000000000000000000"
      ],
      "transaction": {
        "from": "0xa01fb14b58bdb67a8f07977273f8a2ca04078542",
        "to": "0x212e0207999b982b2f4b8f91ca421d94dc8438e3",
        "gas": "0xb7f7",
        "value": "0x0",
        "input": "0x40c10f19000000000000000000000000259dca264bf1d91512e49f553bc7e14d74311a5700000000000000000000000000000000000000000000152d02c7e14af6800000",
        "nonce": "0x1dc",
        "chainId": "0x7a0"
      },
      "additionalContracts": [],
      "isFixedGasLimit": false
    },
    {
      "hash": "0x6aeec719bbcef3ce909cfc17cbb1784fe3824c6e7019647b3167cf3da6a034c5",
      "transactionType": "CALL",
      "contractName": null,
      "contractAddress": "0x259dca264bf1d91512e49f553bc7e14d74311a57",
      "function": null,
      "arguments": null,
      "transaction": {
        "from": "0xa01fb14b58bdb67a8f07977273f8a2ca04078542",
        "to": "0x259dca264bf1d91512e49f553bc7e14d74311a57",
        "gas": "0x714d",
        "value": "0xaa87bee538000",
        "input": "0x",
        "nonce": "0x1dd",
        "chainId": "0x7a0"
      },
      "additionalContracts": [],
      "isFixedGasLimit": false
    },
    {
      "hash": "0x0b3df1091197d8445316f3e04ea2e40e3f15fa6c101eab4af34df342bc92d2af",
      "transactionType": "CALL",
      "contractName": null,
      "contractAddress": "0x212e0207999b982b2f4b8f91ca421d94dc8438e3",
      "function": "mint(address,uint256)",
      "arguments": [
        "0xcFd842Df68CC27B2F7c7D80648f0622E6B8A4d62",
        "100000000000000000000000"
      ],
      "transaction": {
        "from": "0xa01fb14b58bdb67a8f07977273f8a2ca04078542",
        "to": "0x212e0207999b982b2f4b8f91ca421d94dc8438e3",
        "gas": "0xb7f7",
        "value": "0x0",
        "input": "0x40c10f19000000000000000000000000cfd842df68cc27b2f7c7d80648f0622e6b8a4d6200000000000000000000000000000000000000000000152d02c7e14af6800000",
        "nonce": "0x1de",
        "chainId": "0x7a0"
      },
      "additionalContracts": [],
      "isFixedGasLimit": false
    },
    {
      "hash": "0xb7f8aee7458c97ef1f952296caa7adc7b6c9545c8cf401b23aeca4a080e5f812",
      "transactionType": "CALL",
      "contractName": null,
      "contractAddress": "0xcfd842df68cc27b2f7c7d80648f0622e6b8a4d62",
      "function": null,
      "arguments": null,
      "transaction": {
        "from": "0xa01fb14b58bdb67a8f07977273f8a2ca04078542",
        "to": "0xcfd842df68cc27b2f7c7d80648f0622e6b8a4d62",
        "gas": "0x714d",
        "value": "0xaa87bee538000",
        "input": "0x",
        "nonce": "0x1df",
        "chainId": "0x7a0"
      },
      "additionalContracts": [],
      "isFixedGasLimit": false
    },
    {
      "hash": "0x33b432cf93313111f0f61b36acf18017e4f480dffae70a2550ae063bb357a9d8",
      "transactionType": "CALL",
      "contractName": null,
      "contractAddress": "0x212e0207999b982b2f4b8f91ca421d94dc8438e3",
      "function": "mint(address,uint256)",
      "arguments": [
        "0xce3243906dAf46a02aebe0A91EdFc2ac0540417C",
        "100000000000000000000000"
      ],
      "transaction": {
        "from": "0xa01fb14b58bdb67a8f07977273f8a2ca04078542",
        "to": "0x212e0207999b982b2f4b8f91ca421d94dc8438e3",
        "gas": "0xb7f7",
        "value": "0x0",
        "input": "0x40c10f19000000000000000000000000ce3243906daf46a02aebe0a91edfc2ac0540417c00000000000000000000000000000000000000000000152d02c7e14af6800000",
        "nonce": "0x1e0",
        "chainId": "0x7a0"
      },
      "additionalContracts": [],
      "isFixedGasLimit": false
    },
    {
      "hash": "0x13e6f4a425a538cbb9ef79d481664d8f627315bd7401974b48823dfc41f1e9eb",
      "transactionType": "CALL",
      "contractName": null,
      "contractAddress": "0xce3243906daf46a02aebe0a91edfc2ac0540417c",
      "function": null,
      "arguments": null,
      "transaction": {
        "from": "0xa01fb14b58bdb67a8f07977273f8a2ca04078542",
        "to": "0xce3243906daf46a02aebe0a91edfc2ac0540417c",
        "gas": "0x714d",
        "value": "0xaa87bee538000",
        "input": "0x",
        "nonce": "0x1e1",
        "chainId": "0x7a0"
      },
      "additionalContracts": [],
      "isFixedGasLimit": false
    },
    {
      "hash": "0xdf21d075e4a0ffdb8bc07898ece906fc941283ef02035af0d003966f689a074d",
      "transactionType": "CALL",
      "contractName": null,
      "contractAddress": "0x212e0207999b982b2f4b8f91ca421d94dc8438e3",
      "function": "mint(address,uint256)",
      "arguments": [
        "0xD756059D150b34c58b599a6D7d0FD2D6E5Ed3D65",
        "100000000000000000000000"
      ],
      "transaction": {
        "from": "0xa01fb14b58bdb67a8f07977273f8a2ca04078542",
        "to": "0x212e0207999b982b2f4b8f91ca421d94dc8438e3",
        "gas": "0xb7f7",
        "value": "0x0",
        "input": "0x40c10f19000000000000000000000000d756059d150b34c58b599a6d7d0fd2d6e5ed3d6500000000000000000000000000000000000000000000152d02c7e14af6800000",
        "nonce": "0x1e2",
        "chainId": "0x7a0"
      },
      "additionalContracts": [],
      "isFixedGasLimit": false
    },
    {
      "hash": "0x9873e48bce744b5f0f4827b78e48bdfdd7518907c2ba08c8cd0f01405f014d6e",
      "transactionType": "CALL",
      "contractName": null,
      "contractAddress": "0xd756059d150b34c58b599a6d7d0fd2d6e5ed3d65",
      "function": null,
      "arguments": null,
      "transaction": {
        "from": "0xa01fb14b58bdb67a8f07977273f8a2ca04078542",
        "to": "0xd756059d150b34c58b599a6d7d0fd2d6e5ed3d65",
        "gas": "0x714d",
        "value": "0xaa87bee538000",
        "input": "0x",
        "nonce": "0x1e3",
        "chainId": "0x7a0"
      },
      "additionalContracts": [],
      "isFixedGasLimit": false
    }
  ],
  "receipts": [
    {
      "type": "0x2",
      "status": "0x1",
      "cumulativeGasUsed": "0x17c32",
      "logs": [
        {
          "address": "0x212e0207999b982b2f4b8f91ca421d94dc8438e3",
          "topics": [
            "0xddf252ad1be2c89b69c2b068fc378daa952ba7f163c4a11628f55a4df523b3ef",
            "0x0000000000000000000000000000000000000000000000000000000000000000",
            "0x00000000000000000000000037950c826bee928eaca13e1a9ab92fb78d3f8db4"
          ],
          "data": "0x00000000000000000000000000000000000000000000152d02c7e14af6800000",
          "blockHash": "0x5d7bf494c961e8f9c66415b4f210107bcf77a272537cf362d9a0a3132f8aa778",
          "blockNumber": "0x1db92ae",
          "blockTimestamp": "0x6a12f003",
          "transactionHash": "0x6508ca43413493aca1c6ad834965fcdb970b9456dc68bd9f1d549ec9725e974b",
          "transactionIndex": "0x1",
          "logIndex": "0x0",
          "removed": false
        }
      ],
      "logsBloom": "0x00000000000000000000000000000000000000000000000100000000000000000000000000000000000000000000000000000000000000000000000000000000000000000000000000000008000000000000000000000000000000000000000000000000020000004000000000000908000010000000000000000010000002000000000000000000000000000000000000000000000000000000000000000000000000000000000000000000000000000000000000000000000000000000000000000002000000000000000000000000000000000000000000000000000020000000000000000000000000000000000000000000000000000000000000000000",
      "transactionHash": "0x6508ca43413493aca1c6ad834965fcdb970b9456dc68bd9f1d549ec9725e974b",
      "transactionIndex": "0x1",
      "blockHash": "0x5d7bf494c961e8f9c66415b4f210107bcf77a272537cf362d9a0a3132f8aa778",
      "blockNumber": "0x1db92ae",
      "gasUsed": "0x8530",
      "effectiveGasPrice": "0x1312d01",
      "blobGasUsed": "0x64",
      "from": "0xa01fb14b58bdb67a8f07977273f8a2ca04078542",
      "to": "0x212e0207999b982b2f4b8f91ca421d94dc8438e3",
      "contractAddress": null
    },
    {
      "type": "0x2",
      "status": "0x1",
      "cumulativeGasUsed": "0x19d4e",
      "logs": [],
      "logsBloom": "0x00000000000000000000000000000000000000000000000000000000000000000000000000000000000000000000000000000000000000000000000000000000000000000000000000000000000000000000000000000000000000000000000000000000000000000000000000000000000000000000000000000000000000000000000000000000000000000000000000000000000000000000000000000000000000000000000000000000000000000000000000000000000000000000000000000000000000000000000000000000000000000000000000000000000000000000000000000000000000000000000000000000000000000000000000000000",
      "transactionHash": "0x2b5c4dc53fa7f19a547c813b35b4c8ddcb636b66a99f9a0342b357d40aec383f",
      "transactionIndex": "0x2",
      "blockHash": "0xeb5796357fa2af15e4b62266f596d97c08fcc2f8a215fb2fac700b3ef5f9942c",
      "blockNumber": "0x1db92af",
      "gasUsed": "0x5208",
      "effectiveGasPrice": "0x1312d01",
      "blobGasUsed": "0x64",
      "from": "0xa01fb14b58bdb67a8f07977273f8a2ca04078542",
      "to": "0x37950c826bee928eaca13e1a9ab92fb78d3f8db4",
      "contractAddress": null
    },
    {
      "type": "0x2",
      "status": "0x1",
      "cumulativeGasUsed": "0x13966",
      "logs": [
        {
          "address": "0x212e0207999b982b2f4b8f91ca421d94dc8438e3",
          "topics": [
            "0xddf252ad1be2c89b69c2b068fc378daa952ba7f163c4a11628f55a4df523b3ef",
            "0x0000000000000000000000000000000000000000000000000000000000000000",
            "0x000000000000000000000000a7f33cfbb01111dd5670eac8dc9ed51b70a83910"
          ],
          "data": "0x00000000000000000000000000000000000000000000152d02c7e14af6800000",
          "blockHash": "0xefb472f84b83b99b8c44c55a669eef42a44560def5bb374383f68a2ce0d30bc4",
          "blockNumber": "0x1db92b1",
          "blockTimestamp": "0x6a12f006",
          "transactionHash": "0x4215126184da0a0338b29a041614bf85fc07775de0d02b632d9128e80e63f605",
          "transactionIndex": "0x1",
          "logIndex": "0x0",
          "removed": false
        }
      ],
      "logsBloom": "0x00000000000000000000000000000000000000000000000100000000000000000000000000000000000000000000000000000000000000000000000000000000000000000000000000000008000000000000000000000000000000000000000000000000020000000000000000000900000000000000000000000010000002000000000000000000000000000000000020000000000000000000000000000000000000000000000000000000000000000000000000000000000000000100000000000002000000000000000000000000000000000000000000000000000020000000000000000000001000000000000000000000000000000000000000000000",
      "transactionHash": "0x4215126184da0a0338b29a041614bf85fc07775de0d02b632d9128e80e63f605",
      "transactionIndex": "0x1",
      "blockHash": "0xefb472f84b83b99b8c44c55a669eef42a44560def5bb374383f68a2ce0d30bc4",
      "blockNumber": "0x1db92b1",
      "gasUsed": "0x8530",
      "effectiveGasPrice": "0x1312d01",
      "blobGasUsed": "0x64",
      "from": "0xa01fb14b58bdb67a8f07977273f8a2ca04078542",
      "to": "0x212e0207999b982b2f4b8f91ca421d94dc8438e3",
      "contractAddress": null
    },
    {
      "type": "0x2",
      "status": "0x1",
      "cumulativeGasUsed": "0x15846",
      "logs": [],
      "logsBloom": "0x00000000000000000000000000000000000000000000000000000000000000000000000000000000000000000000000000000000000000000000000000000000000000000000000000000000000000000000000000000000000000000000000000000000000000000000000000000000000000000000000000000000000000000000000000000000000000000000000000000000000000000000000000000000000000000000000000000000000000000000000000000000000000000000000000000000000000000000000000000000000000000000000000000000000000000000000000000000000000000000000000000000000000000000000000000000",
      "transactionHash": "0x2b1c7c02905bf6f8385a478e5ce7ed324de46599cb70841d023876206df934b9",
      "transactionIndex": "0x2",
      "blockHash": "0x5962b6693886d01d4c8d0d2bbbba46a04f0e2d155c899d1e181df73d5d7e8c29",
      "blockNumber": "0x1db92b2",
      "gasUsed": "0x5208",
      "effectiveGasPrice": "0x1312d01",
      "blobGasUsed": "0x64",
      "from": "0xa01fb14b58bdb67a8f07977273f8a2ca04078542",
      "to": "0xa7f33cfbb01111dd5670eac8dc9ed51b70a83910",
      "contractAddress": null
    },
    {
      "type": "0x2",
      "status": "0x1",
      "cumulativeGasUsed": "0x13966",
      "logs": [
        {
          "address": "0x212e0207999b982b2f4b8f91ca421d94dc8438e3",
          "topics": [
            "0xddf252ad1be2c89b69c2b068fc378daa952ba7f163c4a11628f55a4df523b3ef",
            "0x0000000000000000000000000000000000000000000000000000000000000000",
            "0x000000000000000000000000f3bace34f8668db2da9bde74956f8615ff3db88b"
          ],
          "data": "0x00000000000000000000000000000000000000000000152d02c7e14af6800000",
          "blockHash": "0xb8604e3cb0e18db0f0895deaa4907c959854bae195e51354088c38857e2e1c11",
          "blockNumber": "0x1db92b3",
          "blockTimestamp": "0x6a12f008",
          "transactionHash": "0x46c4d8f55bc02d24c4bdbf5c3ae32eb574a792c4a3c9206c1e7837ab94bb8ab0",
          "transactionIndex": "0x1",
          "logIndex": "0x0",
          "removed": false
        }
      ],
      "logsBloom": "0x00000000000000000000000000000000000000000000000100000000000000000000000000000000000000000000000000000000000000000000000000000000000000000000000000000008000000000000000000000000000000000000000000000000020000000000000000000900000000000000000000000010000002000000000000000000000000000000000000000000000000000400000000000000000000000000000000000000000000000000000400000000000000000000000000000002000000000000000000000000000000000000000000000000000020000000000000000000000000000000000000000000001000000000000000000000",
      "transactionHash": "0x46c4d8f55bc02d24c4bdbf5c3ae32eb574a792c4a3c9206c1e7837ab94bb8ab0",
      "transactionIndex": "0x1",
      "blockHash": "0xb8604e3cb0e18db0f0895deaa4907c959854bae195e51354088c38857e2e1c11",
      "blockNumber": "0x1db92b3",
      "gasUsed": "0x8530",
      "effectiveGasPrice": "0x1312d01",
      "blobGasUsed": "0x64",
      "from": "0xa01fb14b58bdb67a8f07977273f8a2ca04078542",
      "to": "0x212e0207999b982b2f4b8f91ca421d94dc8438e3",
      "contractAddress": null
    },
    {
      "type": "0x2",
      "status": "0x1",
      "cumulativeGasUsed": "0x1063e",
      "logs": [],
      "logsBloom": "0x00000000000000000000000000000000000000000000000000000000000000000000000000000000000000000000000000000000000000000000000000000000000000000000000000000000000000000000000000000000000000000000000000000000000000000000000000000000000000000000000000000000000000000000000000000000000000000000000000000000000000000000000000000000000000000000000000000000000000000000000000000000000000000000000000000000000000000000000000000000000000000000000000000000000000000000000000000000000000000000000000000000000000000000000000000000",
      "transactionHash": "0xafdaa41a1cc037d63be2e436785c2b8072a9e275199355ac3b02a6dc46de754f",
      "transactionIndex": "0x1",
      "blockHash": "0x7df11e57f81b3d221e137d164bb6abc17274c924fbbe8257a6a80927db5b6a32",
      "blockNumber": "0x1db92b5",
      "gasUsed": "0x5208",
      "effectiveGasPrice": "0x1312d01",
      "blobGasUsed": "0x64",
      "from": "0xa01fb14b58bdb67a8f07977273f8a2ca04078542",
      "to": "0xf3bace34f8668db2da9bde74956f8615ff3db88b",
      "contractAddress": null
    },
    {
      "type": "0x2",
      "status": "0x1",
      "cumulativeGasUsed": "0x13966",
      "logs": [
        {
          "address": "0x212e0207999b982b2f4b8f91ca421d94dc8438e3",
          "topics": [
            "0xddf252ad1be2c89b69c2b068fc378daa952ba7f163c4a11628f55a4df523b3ef",
            "0x0000000000000000000000000000000000000000000000000000000000000000",
            "0x00000000000000000000000072cac976c20fd69f9e86ff3ef145ff8f531f84db"
          ],
          "data": "0x00000000000000000000000000000000000000000000152d02c7e14af6800000",
          "blockHash": "0xd723b23d750408ca34e97c7f484bb98a990fe1d7d93bf0baeffc79c518dc02ba",
          "blockNumber": "0x1db92b6",
          "blockTimestamp": "0x6a12f00b",
          "transactionHash": "0x500a8ac2fb90078e48853d01139ab0be7d594b555abda18951b11eb4a19d57c2",
          "transactionIndex": "0x1",
          "logIndex": "0x0",
          "removed": false
        }
      ],
      "logsBloom": "0x00000000000000000000000000000000000000000000000100000000000000000000000000000000000000000000000000000000000000000000000000000000000000000000000000000008000000000000000000000000000000000000000000000000020000000000000000000900000000000000000000000010000002000000000000000000000000000000000000000000000000000000000000000000000000000000000000000000000000000040000000000000000000000000000000000002000000800000000000000000000000000000000000000000000020000000000000000000000000000000000000400000000000000000000000000000",
      "transactionHash": "0x500a8ac2fb90078e48853d01139ab0be7d594b555abda18951b11eb4a19d57c2",
      "transactionIndex": "0x1",
      "blockHash": "0xd723b23d750408ca34e97c7f484bb98a990fe1d7d93bf0baeffc79c518dc02ba",
      "blockNumber": "0x1db92b6",
      "gasUsed": "0x8530",
      "effectiveGasPrice": "0x1312d01",
      "blobGasUsed": "0x64",
      "from": "0xa01fb14b58bdb67a8f07977273f8a2ca04078542",
      "to": "0x212e0207999b982b2f4b8f91ca421d94dc8438e3",
      "contractAddress": null
    },
    {
      "type": "0x2",
      "status": "0x1",
      "cumulativeGasUsed": "0x1063e",
      "logs": [],
      "logsBloom": "0x00000000000000000000000000000000000000000000000000000000000000000000000000000000000000000000000000000000000000000000000000000000000000000000000000000000000000000000000000000000000000000000000000000000000000000000000000000000000000000000000000000000000000000000000000000000000000000000000000000000000000000000000000000000000000000000000000000000000000000000000000000000000000000000000000000000000000000000000000000000000000000000000000000000000000000000000000000000000000000000000000000000000000000000000000000000",
      "transactionHash": "0x955f29715e85c9aaf7e8b3cf6a010c38c242e15bb784364df6ddf6955d9133bc",
      "transactionIndex": "0x1",
      "blockHash": "0x10aff466e7cd62b34ad3b7a8ed754cf07d4c580a5a1bb4afb3c1734ba125a81e",
      "blockNumber": "0x1db92b8",
      "gasUsed": "0x5208",
      "effectiveGasPrice": "0x1312d01",
      "blobGasUsed": "0x64",
      "from": "0xa01fb14b58bdb67a8f07977273f8a2ca04078542",
      "to": "0x72cac976c20fd69f9e86ff3ef145ff8f531f84db",
      "contractAddress": null
    },
    {
      "type": "0x2",
      "status": "0x1",
      "cumulativeGasUsed": "0x284bf",
      "logs": [
        {
          "address": "0x212e0207999b982b2f4b8f91ca421d94dc8438e3",
          "topics": [
            "0xddf252ad1be2c89b69c2b068fc378daa952ba7f163c4a11628f55a4df523b3ef",
            "0x0000000000000000000000000000000000000000000000000000000000000000",
            "0x000000000000000000000000d851b10081bd509d11803adb390ce7b5fb0b6a96"
          ],
          "data": "0x00000000000000000000000000000000000000000000152d02c7e14af6800000",
          "blockHash": "0x610915bdb0a9efa0f9d854194c5e6ba11c5163d87f9324c955e3402e1e2cbb72",
          "blockNumber": "0x1db92b9",
          "blockTimestamp": "0x6a12f00e",
          "transactionHash": "0xc734c01913c64ea13de0b2bf6dabd8b57dda04160316b49dda5adc7b9e763c05",
          "transactionIndex": "0x2",
          "logIndex": "0x2",
          "removed": false
        }
      ],
      "logsBloom": "0x00000000000000000000000000000000000000000000000100000000000000000000000400000000000000000000000000000000000000000000000000000000000000000000000000000008000000000000000000000000000000000000000000000000020000000000000000000d000000000000000000000000100000020000000000000000000000000000000000000000000000000000000000000000000000000000000000000000000000000000000000000000000000000000000000000000020000000000000000000000000000000000000000000000000000a0000000000000000000000000000000000000000000000000000000000000000000",
      "transactionHash": "0xc734c01913c64ea13de0b2bf6dabd8b57dda04160316b49dda5adc7b9e763c05",
      "transactionIndex": "0x2",
      "blockHash": "0x610915bdb0a9efa0f9d854194c5e6ba11c5163d87f9324c955e3402e1e2cbb72",
      "blockNumber": "0x1db92b9",
      "gasUsed": "0x8524",
      "effectiveGasPrice": "0x1312d01",
      "blobGasUsed": "0x64",
      "from": "0xa01fb14b58bdb67a8f07977273f8a2ca04078542",
      "to": "0x212e0207999b982b2f4b8f91ca421d94dc8438e3",
      "contractAddress": null
    },
    {
      "type": "0x2",
      "status": "0x1",
      "cumulativeGasUsed": "0x1064a",
      "logs": [],
      "logsBloom": "0x00000000000000000000000000000000000000000000000000000000000000000000000000000000000000000000000000000000000000000000000000000000000000000000000000000000000000000000000000000000000000000000000000000000000000000000000000000000000000000000000000000000000000000000000000000000000000000000000000000000000000000000000000000000000000000000000000000000000000000000000000000000000000000000000000000000000000000000000000000000000000000000000000000000000000000000000000000000000000000000000000000000000000000000000000000000",
      "transactionHash": "0x559af5efdf7f3be655550d8d77160ffbf58efddbc3c21e16f44dd31d3b0aac90",
      "transactionIndex": "0x1",
      "blockHash": "0x32af92b06a34e2cb1a6ab7cba64c997e18e13f5264c2fa0c46bfd3f0b714de63",
      "blockNumber": "0x1db92bb",
      "gasUsed": "0x5208",
      "effectiveGasPrice": "0x1312d01",
      "blobGasUsed": "0x64",
      "from": "0xa01fb14b58bdb67a8f07977273f8a2ca04078542",
      "to": "0xd851b10081bd509d11803adb390ce7b5fb0b6a96",
      "contractAddress": null
    },
    {
      "type": "0x2",
      "status": "0x1",
      "cumulativeGasUsed": "0x18b7a",
      "logs": [
        {
          "address": "0x212e0207999b982b2f4b8f91ca421d94dc8438e3",
          "topics": [
            "0xddf252ad1be2c89b69c2b068fc378daa952ba7f163c4a11628f55a4df523b3ef",
            "0x0000000000000000000000000000000000000000000000000000000000000000",
            "0x000000000000000000000000ba47524c1cec183d9f35a810b98a4998b58eb9bd"
          ],
          "data": "0x00000000000000000000000000000000000000000000152d02c7e14af6800000",
          "blockHash": "0x2401e94f19f172f04ed4869ca13ca7f546e38ebb797b6a966b9cd740cb2f683f",
          "blockNumber": "0x1db92bc",
          "blockTimestamp": "0x6a12f011",
          "transactionHash": "0xb0c33f93d3c76b3455722908ebf34e472b0ffbdde609cfe90b11e0301af2f8e2",
          "transactionIndex": "0x2",
          "logIndex": "0x0",
          "removed": false
        }
      ],
      "logsBloom": "0x00000020000000000000000000000000000000000000000100000000000000000000000000000000000000000000000000000000000000000000000000000000000000000000000000000008000000000000000000000000000000000000000200000000020000000000000000000900000000000000000000000010000002000000000000000000000000000000000000000000000000000000000000000000000000000000000000000000000000000000000000000000000000000000000000000002000000000000000000000000000000000000000000000000000020000000000000000000000000000000000000000000100000000000000000000000",
      "transactionHash": "0xb0c33f93d3c76b3455722908ebf34e472b0ffbdde609cfe90b11e0301af2f8e2",
      "transactionIndex": "0x2",
      "blockHash": "0x2401e94f19f172f04ed4869ca13ca7f546e38ebb797b6a966b9cd740cb2f683f",
      "blockNumber": "0x1db92bc",
      "gasUsed": "0x8530",
      "effectiveGasPrice": "0x1312d01",
      "blobGasUsed": "0x64",
      "from": "0xa01fb14b58bdb67a8f07977273f8a2ca04078542",
      "to": "0x212e0207999b982b2f4b8f91ca421d94dc8438e3",
      "contractAddress": null
    },
    {
      "type": "0x2",
      "status": "0x1",
      "cumulativeGasUsed": "0x1064a",
      "logs": [],
      "logsBloom": "0x00000000000000000000000000000000000000000000000000000000000000000000000000000000000000000000000000000000000000000000000000000000000000000000000000000000000000000000000000000000000000000000000000000000000000000000000000000000000000000000000000000000000000000000000000000000000000000000000000000000000000000000000000000000000000000000000000000000000000000000000000000000000000000000000000000000000000000000000000000000000000000000000000000000000000000000000000000000000000000000000000000000000000000000000000000000",
      "transactionHash": "0xcb67275ab6b19c4c3021ef4f550c2170455196714f6736783bacb844c6733c20",
      "transactionIndex": "0x1",
      "blockHash": "0xfd516e756a9d40fd0ec7b76209b9d56710bf712c80bbb0081dbaa8cd092725df",
      "blockNumber": "0x1db92be",
      "gasUsed": "0x5208",
      "effectiveGasPrice": "0x1312d01",
      "blobGasUsed": "0x64",
      "from": "0xa01fb14b58bdb67a8f07977273f8a2ca04078542",
      "to": "0xba47524c1cec183d9f35a810b98a4998b58eb9bd",
      "contractAddress": null
    },
    {
      "type": "0x2",
      "status": "0x1",
      "cumulativeGasUsed": "0x1dced",
      "logs": [
        {
          "address": "0x212e0207999b982b2f4b8f91ca421d94dc8438e3",
          "topics": [
            "0xddf252ad1be2c89b69c2b068fc378daa952ba7f163c4a11628f55a4df523b3ef",
            "0x0000000000000000000000000000000000000000000000000000000000000000",
            "0x000000000000000000000000ca55ea9b797e6fec077f2122123152809bd5fe52"
          ],
          "data": "0x00000000000000000000000000000000000000000000152d02c7e14af6800000",
          "blockHash": "0x086a0ee485f44b9ffc803b7c5c8e0ce7f1b3cea7664d4b4f5071a1b2fc3a3fe6",
          "blockNumber": "0x1db92bf",
          "blockTimestamp": "0x6a12f014",
          "transactionHash": "0xab83c1faf869e8e3bc769c5ab6930a4d53f2fe2526c2956cde6011457290faf7",
          "transactionIndex": "0x2",
          "logIndex": "0x1",
          "removed": false
        }
      ],
      "logsBloom": "0x00000000000000000000000000000000000000000000000100000000000000000000000000000000000000000000000000000000000000000000000000000000000000000000000000000018000000000000000000000000100000000000000000000000020000000000000000000900000000000000000000000010000002000000000000000000000000000000000000000000000000000000000000000000000000000000000000000000000000000000000000000000000000000000000000000002000000000000000000000000000000000000000000000000000020000000000000008000000000000000000000000000000000000000000000000000",
      "transactionHash": "0xab83c1faf869e8e3bc769c5ab6930a4d53f2fe2526c2956cde6011457290faf7",
      "transactionIndex": "0x2",
      "blockHash": "0x086a0ee485f44b9ffc803b7c5c8e0ce7f1b3cea7664d4b4f5071a1b2fc3a3fe6",
      "blockNumber": "0x1db92bf",
      "gasUsed": "0x8530",
      "effectiveGasPrice": "0x1312d01",
      "blobGasUsed": "0x64",
      "from": "0xa01fb14b58bdb67a8f07977273f8a2ca04078542",
      "to": "0x212e0207999b982b2f4b8f91ca421d94dc8438e3",
      "contractAddress": null
    },
    {
      "type": "0x2",
      "status": "0x1",
      "cumulativeGasUsed": "0x1064a",
      "logs": [],
      "logsBloom": "0x00000000000000000000000000000000000000000000000000000000000000000000000000000000000000000000000000000000000000000000000000000000000000000000000000000000000000000000000000000000000000000000000000000000000000000000000000000000000000000000000000000000000000000000000000000000000000000000000000000000000000000000000000000000000000000000000000000000000000000000000000000000000000000000000000000000000000000000000000000000000000000000000000000000000000000000000000000000000000000000000000000000000000000000000000000000",
      "transactionHash": "0xb47e7088a6721b0f96a9e9f892b444596d4291c4a07ec103f6c7e6f02048cc92",
      "transactionIndex": "0x1",
      "blockHash": "0xed6f1ed04f1103872f753a8c4d7508d796d5cbaf559ff55e8f1d662362206c36",
      "blockNumber": "0x1db92c0",
      "gasUsed": "0x5208",
      "effectiveGasPrice": "0x1312d01",
      "blobGasUsed": "0x64",
      "from": "0xa01fb14b58bdb67a8f07977273f8a2ca04078542",
      "to": "0xca55ea9b797e6fec077f2122123152809bd5fe52",
      "contractAddress": null
    },
    {
      "type": "0x2",
      "status": "0x1",
      "cumulativeGasUsed": "0x13972",
      "logs": [
        {
          "address": "0x212e0207999b982b2f4b8f91ca421d94dc8438e3",
          "topics": [
            "0xddf252ad1be2c89b69c2b068fc378daa952ba7f163c4a11628f55a4df523b3ef",
            "0x0000000000000000000000000000000000000000000000000000000000000000",
            "0x000000000000000000000000c88b87a48978bcb341927c06a306055bc42a68b6"
          ],
          "data": "0x00000000000000000000000000000000000000000000152d02c7e14af6800000",
          "blockHash": "0xb24449796c65895a39ea2c9848b69441a2ceddcb3e9e6d481aee65d133d63d75",
          "blockNumber": "0x1db92c2",
          "blockTimestamp": "0x6a12f017",
          "transactionHash": "0x4772e1e81b882b17cf1228b3b168eb522a9a23ab71c1e3f8b7e85d0992284fea",
          "transactionIndex": "0x1",
          "logIndex": "0x0",
          "removed": false
        }
      ],
      "logsBloom": "0x00000000000000000000000000000000000000000000000100000000000000000000000000000000000000000000000000000000000000000000000000000000000000000000100000000008000000000000000000000000000000000000000000000000020000000000000000000900000000000000000000000010000002000000000000000000000000000000000000000000000000000000000000000000000000004000000000000400000000000000000000000000000000000000000000000002000000000000000000000000000000000000000000000000000020000000000000000000000000000000000000000000000000000000000000000000",
      "transactionHash": "0x4772e1e81b882b17cf1228b3b168eb522a9a23ab71c1e3f8b7e85d0992284fea",
      "transactionIndex": "0x1",
      "blockHash": "0xb24449796c65895a39ea2c9848b69441a2ceddcb3e9e6d481aee65d133d63d75",
      "blockNumber": "0x1db92c2",
      "gasUsed": "0x8530",
      "effectiveGasPrice": "0x1312d01",
      "blobGasUsed": "0x64",
      "from": "0xa01fb14b58bdb67a8f07977273f8a2ca04078542",
      "to": "0x212e0207999b982b2f4b8f91ca421d94dc8438e3",
      "contractAddress": null
    },
    {
      "type": "0x2",
      "status": "0x1",
      "cumulativeGasUsed": "0x1064a",
      "logs": [],
      "logsBloom": "0x00000000000000000000000000000000000000000000000000000000000000000000000000000000000000000000000000000000000000000000000000000000000000000000000000000000000000000000000000000000000000000000000000000000000000000000000000000000000000000000000000000000000000000000000000000000000000000000000000000000000000000000000000000000000000000000000000000000000000000000000000000000000000000000000000000000000000000000000000000000000000000000000000000000000000000000000000000000000000000000000000000000000000000000000000000000",
      "transactionHash": "0xa248d683a1eec20b2a8e0a63e56920fcabde8572501ebaf154e78f787ab13990",
      "transactionIndex": "0x1",
      "blockHash": "0xbcc74b3c423878e7e17a2074b2105c3dd60856e0056cc7513441d009cc365b02",
      "blockNumber": "0x1db92c3",
      "gasUsed": "0x5208",
      "effectiveGasPrice": "0x1312d01",
      "blobGasUsed": "0x64",
      "from": "0xa01fb14b58bdb67a8f07977273f8a2ca04078542",
      "to": "0xc88b87a48978bcb341927c06a306055bc42a68b6",
      "contractAddress": null
    },
    {
      "type": "0x2",
      "status": "0x1",
      "cumulativeGasUsed": "0x15266",
      "logs": [
        {
          "address": "0x212e0207999b982b2f4b8f91ca421d94dc8438e3",
          "topics": [
            "0xddf252ad1be2c89b69c2b068fc378daa952ba7f163c4a11628f55a4df523b3ef",
            "0x0000000000000000000000000000000000000000000000000000000000000000",
            "0x000000000000000000000000cc62e6da374b0d318d0eaf6c39e58abf6b1bd165"
          ],
          "data": "0x00000000000000000000000000000000000000000000152d02c7e14af6800000",
          "blockHash": "0xf1df803b381eff186ceab636114f55a0edbbbd70c8234b5386d71f5d2191de15",
          "blockNumber": "0x1db92c5",
          "blockTimestamp": "0x6a12f01a",
          "transactionHash": "0xb04ade6839cfa857d4aa2eb63cddf4784d31b19502e87b42bb3801fdd82ae7e4",
          "transactionIndex": "0x1",
          "logIndex": "0x0",
          "removed": false
        }
      ],
      "logsBloom": "0x00000000000000000000000000000000000000000000000100000000000000000000000000000000000000000000000000000000000000000000000000000000000000000000000000000008000000000000000000000000100000000000000000008000020000000000000000000900000000000000000000000010000002000000000000000000000000000000000000000000000000000100000000000000000000000000000000000000000000000000000000000000000000000000000000000002000000000000000000000000000000000000000000000000000020000000000000000000000000000000000000000000000000000000000000000000",
      "transactionHash": "0xb04ade6839cfa857d4aa2eb63cddf4784d31b19502e87b42bb3801fdd82ae7e4",
      "transactionIndex": "0x1",
      "blockHash": "0xf1df803b381eff186ceab636114f55a0edbbbd70c8234b5386d71f5d2191de15",
      "blockNumber": "0x1db92c5",
      "gasUsed": "0x8530",
      "effectiveGasPrice": "0x1312d01",
      "blobGasUsed": "0x64",
      "from": "0xa01fb14b58bdb67a8f07977273f8a2ca04078542",
      "to": "0x212e0207999b982b2f4b8f91ca421d94dc8438e3",
      "contractAddress": null
    },
    {
      "type": "0x2",
      "status": "0x1",
      "cumulativeGasUsed": "0x1064a",
      "logs": [],
      "logsBloom": "0x00000000000000000000000000000000000000000000000000000000000000000000000000000000000000000000000000000000000000000000000000000000000000000000000000000000000000000000000000000000000000000000000000000000000000000000000000000000000000000000000000000000000000000000000000000000000000000000000000000000000000000000000000000000000000000000000000000000000000000000000000000000000000000000000000000000000000000000000000000000000000000000000000000000000000000000000000000000000000000000000000000000000000000000000000000000",
      "transactionHash": "0x0191fbbc374f8f02bec9ee959123162a03c373cb878f4545ce6b7df9d644a067",
      "transactionIndex": "0x1",
      "blockHash": "0xed56cfbe8b3cd9c3f8573643a38f94eaa36a29623eaf6890530e143a7695f3ff",
      "blockNumber": "0x1db92c7",
      "gasUsed": "0x5208",
      "effectiveGasPrice": "0x1312d01",
      "blobGasUsed": "0x64",
      "from": "0xa01fb14b58bdb67a8f07977273f8a2ca04078542",
      "to": "0xcc62e6da374b0d318d0eaf6c39e58abf6b1bd165",
      "contractAddress": null
    },
    {
      "type": "0x2",
      "status": "0x1",
      "cumulativeGasUsed": "0x13972",
      "logs": [
        {
          "address": "0x212e0207999b982b2f4b8f91ca421d94dc8438e3",
          "topics": [
            "0xddf252ad1be2c89b69c2b068fc378daa952ba7f163c4a11628f55a4df523b3ef",
            "0x0000000000000000000000000000000000000000000000000000000000000000",
            "0x000000000000000000000000229d4046079902b548a20bbaf3365cee34b316ef"
          ],
          "data": "0x00000000000000000000000000000000000000000000152d02c7e14af6800000",
          "blockHash": "0xf2e0e93d6e8d86d14e6b34a21f7de96bb7566e5bcac1fcaec95c185d326a60cb",
          "blockNumber": "0x1db92c8",
          "blockTimestamp": "0x6a12f01d",
          "transactionHash": "0xea34a47437dfebb5876ce2cc39cd7b87f045384473621b4462517edbfd30ee37",
          "transactionIndex": "0x1",
          "logIndex": "0x0",
          "removed": false
        }
      ],
      "logsBloom": "0x00000000000000000000000000000000000000000000000100000000000000000000000000000000000000000000020000000000000000000000000000000000000000000000000000000008000000000000000000000000000000000000000000000000020000000000000000000900000000000000000000000010000002000000000000000000000000000000000000000000000000000000000000000000000000000000000000000000000000000000000000000000000000000000000000040002000000000000000000000001000000000000000000000000000020000000000000000000000000000000000000000000000000000000000000000000",
      "transactionHash": "0xea34a47437dfebb5876ce2cc39cd7b87f045384473621b4462517edbfd30ee37",
      "transactionIndex": "0x1",
      "blockHash": "0xf2e0e93d6e8d86d14e6b34a21f7de96bb7566e5bcac1fcaec95c185d326a60cb",
      "blockNumber": "0x1db92c8",
      "gasUsed": "0x8530",
      "effectiveGasPrice": "0x1312d01",
      "blobGasUsed": "0x64",
      "from": "0xa01fb14b58bdb67a8f07977273f8a2ca04078542",
      "to": "0x212e0207999b982b2f4b8f91ca421d94dc8438e3",
      "contractAddress": null
    },
    {
      "type": "0x2",
      "status": "0x1",
      "cumulativeGasUsed": "0x1064a",
      "logs": [],
      "logsBloom": "0x00000000000000000000000000000000000000000000000000000000000000000000000000000000000000000000000000000000000000000000000000000000000000000000000000000000000000000000000000000000000000000000000000000000000000000000000000000000000000000000000000000000000000000000000000000000000000000000000000000000000000000000000000000000000000000000000000000000000000000000000000000000000000000000000000000000000000000000000000000000000000000000000000000000000000000000000000000000000000000000000000000000000000000000000000000000",
      "transactionHash": "0x3f84e24a88d693aedc80b46dd05c3cc7f743fb479a9eb137a12280a38c8cd780",
      "transactionIndex": "0x1",
      "blockHash": "0x423b14991f7d7df6467bc62e8a576eb92a0b927d00d87afd5cc2a0e81d96fb94",
      "blockNumber": "0x1db92c9",
      "gasUsed": "0x5208",
      "effectiveGasPrice": "0x1312d01",
      "blobGasUsed": "0x64",
      "from": "0xa01fb14b58bdb67a8f07977273f8a2ca04078542",
      "to": "0x229d4046079902b548a20bbaf3365cee34b316ef",
      "contractAddress": null
    },
    {
      "type": "0x2",
      "status": "0x1",
      "cumulativeGasUsed": "0x13972",
      "logs": [
        {
          "address": "0x212e0207999b982b2f4b8f91ca421d94dc8438e3",
          "topics": [
            "0xddf252ad1be2c89b69c2b068fc378daa952ba7f163c4a11628f55a4df523b3ef",
            "0x0000000000000000000000000000000000000000000000000000000000000000",
            "0x00000000000000000000000078d51dbe164a4c1292754cf9a007e353eac29c76"
          ],
          "data": "0x00000000000000000000000000000000000000000000152d02c7e14af6800000",
          "blockHash": "0xdbf4ff6f538b0bff920a48ef8d2962690400ef55386d876a86c9175093629c9a",
          "blockNumber": "0x1db92cb",
          "blockTimestamp": "0x6a12f020",
          "transactionHash": "0x5f274e004e433d3c6f00abf2f63274289a0861dd31c811a2b06716e84ad6bc18",
          "transactionIndex": "0x1",
          "logIndex": "0x0",
          "removed": false
        }
      ],
      "logsBloom": "0x00000000000000000000000000020000000000000000000100000000000000000000000000000000000000000000000000000800000000000000000000000000000000000000000000000008000000000000000000000000000000000000000000000000020000000000000000000900000000000000000000000010000002000000000000000000000000000000000000000000000000000000000000000000000040000000000000000000000000000000000000000000000000000000000000000002000000000000000000000000000000000000000000000000000020000000000000000000000000000000000000000000000000000000000000000000",
      "transactionHash": "0x5f274e004e433d3c6f00abf2f63274289a0861dd31c811a2b06716e84ad6bc18",
      "transactionIndex": "0x1",
      "blockHash": "0xdbf4ff6f538b0bff920a48ef8d2962690400ef55386d876a86c9175093629c9a",
      "blockNumber": "0x1db92cb",
      "gasUsed": "0x8530",
      "effectiveGasPrice": "0x1312d01",
      "blobGasUsed": "0x64",
      "from": "0xa01fb14b58bdb67a8f07977273f8a2ca04078542",
      "to": "0x212e0207999b982b2f4b8f91ca421d94dc8438e3",
      "contractAddress": null
    },
    {
      "type": "0x2",
      "status": "0x1",
      "cumulativeGasUsed": "0x1064a",
      "logs": [],
      "logsBloom": "0x00000000000000000000000000000000000000000000000000000000000000000000000000000000000000000000000000000000000000000000000000000000000000000000000000000000000000000000000000000000000000000000000000000000000000000000000000000000000000000000000000000000000000000000000000000000000000000000000000000000000000000000000000000000000000000000000000000000000000000000000000000000000000000000000000000000000000000000000000000000000000000000000000000000000000000000000000000000000000000000000000000000000000000000000000000000",
      "transactionHash": "0x75d1a144d0baecc63be6d830e091eefe67e16f6e1c085160ce3175a5f728acb5",
      "transactionIndex": "0x1",
      "blockHash": "0x4da67a09bb5637d449d90bcfcc4dd91bc97a3c90c8aed62bce2d17278f681fc1",
      "blockNumber": "0x1db92cc",
      "gasUsed": "0x5208",
      "effectiveGasPrice": "0x1312d01",
      "blobGasUsed": "0x64",
      "from": "0xa01fb14b58bdb67a8f07977273f8a2ca04078542",
      "to": "0x78d51dbe164a4c1292754cf9a007e353eac29c76",
      "contractAddress": null
    },
    {
      "type": "0x2",
      "status": "0x1",
      "cumulativeGasUsed": "0x13972",
      "logs": [
        {
          "address": "0x212e0207999b982b2f4b8f91ca421d94dc8438e3",
          "topics": [
            "0xddf252ad1be2c89b69c2b068fc378daa952ba7f163c4a11628f55a4df523b3ef",
            "0x0000000000000000000000000000000000000000000000000000000000000000",
            "0x00000000000000000000000035a70fa2c9d24aa25cf9dfa7b1f09520a99d14ca"
          ],
          "data": "0x00000000000000000000000000000000000000000000152d02c7e14af6800000",
          "blockHash": "0x477c237b886856a430ea34059ef5416b8f5792ada095838a30b66f0af0dd4a19",
          "blockNumber": "0x1db92ce",
          "blockTimestamp": "0x6a12f023",
          "transactionHash": "0x68f41fb19bda0b373a13cb1f391f9cea3e912e132b6b459a13c41dbaec2f3d14",
          "transactionIndex": "0x1",
          "logIndex": "0x0",
          "removed": false
        }
      ],
      "logsBloom": "0x00000000000000000000000000000000000000000000000100000000000000000000000000000000000000000000000000000000000000000000000000000000000000000000000000000008000000000000000000000000000000000000000000000000020000000000000000000900000000000000000000000010000002000000000000000000000000000000000000000000010000000000000000000000200000000000000000000000000000000000000000000000000000000000000000000002000000000000000000000000000000000000000000000000000020000000000000000000000000000000000002000000000000000000000000000000",
      "transactionHash": "0x68f41fb19bda0b373a13cb1f391f9cea3e912e132b6b459a13c41dbaec2f3d14",
      "transactionIndex": "0x1",
      "blockHash": "0x477c237b886856a430ea34059ef5416b8f5792ada095838a30b66f0af0dd4a19",
      "blockNumber": "0x1db92ce",
      "gasUsed": "0x8530",
      "effectiveGasPrice": "0x1312d01",
      "blobGasUsed": "0x64",
      "from": "0xa01fb14b58bdb67a8f07977273f8a2ca04078542",
      "to": "0x212e0207999b982b2f4b8f91ca421d94dc8438e3",
      "contractAddress": null
    },
    {
      "type": "0x2",
      "status": "0x1",
      "cumulativeGasUsed": "0x1064a",
      "logs": [],
      "logsBloom": "0x00000000000000000000000000000000000000000000000000000000000000000000000000000000000000000000000000000000000000000000000000000000000000000000000000000000000000000000000000000000000000000000000000000000000000000000000000000000000000000000000000000000000000000000000000000000000000000000000000000000000000000000000000000000000000000000000000000000000000000000000000000000000000000000000000000000000000000000000000000000000000000000000000000000000000000000000000000000000000000000000000000000000000000000000000000000",
      "transactionHash": "0x8ea9ed1c125cf4d27afde802450a1e6c2f6b06b9335c49fda3c930c68601cb2b",
      "transactionIndex": "0x1",
      "blockHash": "0x5c946e57e6b2df404576c8e5c7a7faa0b22e57398c9cd4ee0edc71090699113d",
      "blockNumber": "0x1db92cf",
      "gasUsed": "0x5208",
      "effectiveGasPrice": "0x1312d01",
      "blobGasUsed": "0x64",
      "from": "0xa01fb14b58bdb67a8f07977273f8a2ca04078542",
      "to": "0x35a70fa2c9d24aa25cf9dfa7b1f09520a99d14ca",
      "contractAddress": null
    },
    {
      "type": "0x2",
      "status": "0x1",
      "cumulativeGasUsed": "0x18b7a",
      "logs": [
        {
          "address": "0x212e0207999b982b2f4b8f91ca421d94dc8438e3",
          "topics": [
            "0xddf252ad1be2c89b69c2b068fc378daa952ba7f163c4a11628f55a4df523b3ef",
            "0x0000000000000000000000000000000000000000000000000000000000000000",
            "0x0000000000000000000000006ba94b109616fc2baee916113721e1f107146cc4"
          ],
          "data": "0x00000000000000000000000000000000000000000000152d02c7e14af6800000",
          "blockHash": "0xbf1508458c7382523d51724813e58d9405b27e0c1990c2709ab570405cc1ca6a",
          "blockNumber": "0x1db92d0",
          "blockTimestamp": "0x6a12f025",
          "transactionHash": "0x29e4e80b34e5da4ca5ac600b127809f35560fce73522b70c420a248eef6fdba6",
          "transactionIndex": "0x2",
          "logIndex": "0x0",
          "removed": false
        }
      ],
      "logsBloom": "0x00000000000000010000000000000000000000000000000100000000000000000000000000000000000000000020000000000000000000000000000000000000000000000000000000000008000000000000000000000000000000000000000000000000020000000000000000000900000000000000000000000010000002000000000000000000000000000000000000000000000000000000000000000000000000000000000000000000000000000000000000000000000000000000000000000002000000000000000000000000000000000000000000000000000020000000000000000000000000000200000000000000000000000000000000000000",
      "transactionHash": "0x29e4e80b34e5da4ca5ac600b127809f35560fce73522b70c420a248eef6fdba6",
      "transactionIndex": "0x2",
      "blockHash": "0xbf1508458c7382523d51724813e58d9405b27e0c1990c2709ab570405cc1ca6a",
      "blockNumber": "0x1db92d0",
      "gasUsed": "0x8530",
      "effectiveGasPrice": "0x1312d01",
      "blobGasUsed": "0x64",
      "from": "0xa01fb14b58bdb67a8f07977273f8a2ca04078542",
      "to": "0x212e0207999b982b2f4b8f91ca421d94dc8438e3",
      "contractAddress": null
    },
    {
      "type": "0x2",
      "status": "0x1",
      "cumulativeGasUsed": "0x1490a",
      "logs": [],
      "logsBloom": "0x00000000000000000000000000000000000000000000000000000000000000000000000000000000000000000000000000000000000000000000000000000000000000000000000000000000000000000000000000000000000000000000000000000000000000000000000000000000000000000000000000000000000000000000000000000000000000000000000000000000000000000000000000000000000000000000000000000000000000000000000000000000000000000000000000000000000000000000000000000000000000000000000000000000000000000000000000000000000000000000000000000000000000000000000000000000",
      "transactionHash": "0xa4590a95bcae367b96595154e1b9eefaea4962f40536b17d2aa2c47919792851",
      "transactionIndex": "0x1",
      "blockHash": "0x6101e9ed458dec390bfb18759c7f2daacbe819cc66d722bc4c50a9a1dad75857",
      "blockNumber": "0x1db92d2",
      "gasUsed": "0x5208",
      "effectiveGasPrice": "0x1312d01",
      "blobGasUsed": "0x64",
      "from": "0xa01fb14b58bdb67a8f07977273f8a2ca04078542",
      "to": "0x6ba94b109616fc2baee916113721e1f107146cc4",
      "contractAddress": null
    },
    {
      "type": "0x2",
      "status": "0x1",
      "cumulativeGasUsed": "0x13966",
      "logs": [
        {
          "address": "0x212e0207999b982b2f4b8f91ca421d94dc8438e3",
          "topics": [
            "0xddf252ad1be2c89b69c2b068fc378daa952ba7f163c4a11628f55a4df523b3ef",
            "0x0000000000000000000000000000000000000000000000000000000000000000",
            "0x0000000000000000000000008c04f04f8e7cd7743ae69af2b8f630edf3cb6b3a"
          ],
          "data": "0x00000000000000000000000000000000000000000000152d02c7e14af6800000",
          "blockHash": "0x267997a78af57ebc7a4e44221f3c47cec2e59da51a50884325846e8ea36c5fc9",
          "blockNumber": "0x1db92d3",
          "blockTimestamp": "0x6a12f028",
          "transactionHash": "0xd42b34f7f7df69115e11eadaefe8f3c280b8056a90bdb1064a8673c14a804f16",
          "transactionIndex": "0x1",
          "logIndex": "0x0",
          "removed": false
        }
      ],
      "logsBloom": "0x00000000000000000000000000000000000000000000000100000000000000000000000000000000000000000000000000400000000000000000000000000000000000000000000000000008000000000000000000000000000000000000000000000000020000000000000000000900000000000000000000000010000002000000000000000000000000000000000000000000000000000000000000000000000100000000000000000000000000000000000000000000000000000000000000000002000000000000000000000000000000000000000000000000000020000000000000000000000000000000000004000000000000000000000000000000",
      "transactionHash": "0xd42b34f7f7df69115e11eadaefe8f3c280b8056a90bdb1064a8673c14a804f16",
      "transactionIndex": "0x1",
      "blockHash": "0x267997a78af57ebc7a4e44221f3c47cec2e59da51a50884325846e8ea36c5fc9",
      "blockNumber": "0x1db92d3",
      "gasUsed": "0x8530",
      "effectiveGasPrice": "0x1312d01",
      "blobGasUsed": "0x64",
      "from": "0xa01fb14b58bdb67a8f07977273f8a2ca04078542",
      "to": "0x212e0207999b982b2f4b8f91ca421d94dc8438e3",
      "contractAddress": null
    },
    {
      "type": "0x2",
      "status": "0x1",
      "cumulativeGasUsed": "0x1a7b5",
      "logs": [],
      "logsBloom": "0x00000000000000000000000000000000000000000000000000000000000000000000000000000000000000000000000000000000000000000000000000000000000000000000000000000000000000000000000000000000000000000000000000000000000000000000000000000000000000000000000000000000000000000000000000000000000000000000000000000000000000000000000000000000000000000000000000000000000000000000000000000000000000000000000000000000000000000000000000000000000000000000000000000000000000000000000000000000000000000000000000000000000000000000000000000000",
      "transactionHash": "0x84c9dad94619d5de0804d822dfa8b5609f99a3a225c9523b35d6ecde35a9d56f",
      "transactionIndex": "0x2",
      "blockHash": "0x5e363fae3bd63b42f6b00eb1065f8adb94f50cef6aef84e3838de0dc132b47e5",
      "blockNumber": "0x1db92d4",
      "gasUsed": "0x5208",
      "effectiveGasPrice": "0x1312d01",
      "blobGasUsed": "0x64",
      "from": "0xa01fb14b58bdb67a8f07977273f8a2ca04078542",
      "to": "0x8c04f04f8e7cd7743ae69af2b8f630edf3cb6b3a",
      "contractAddress": null
    },
    {
      "type": "0x2",
      "status": "0x1",
      "cumulativeGasUsed": "0x13966",
      "logs": [
        {
          "address": "0x212e0207999b982b2f4b8f91ca421d94dc8438e3",
          "topics": [
            "0xddf252ad1be2c89b69c2b068fc378daa952ba7f163c4a11628f55a4df523b3ef",
            "0x0000000000000000000000000000000000000000000000000000000000000000",
            "0x000000000000000000000000849f1dc5ebdda263cda1a53950a47164878e106a"
          ],
          "data": "0x00000000000000000000000000000000000000000000152d02c7e14af6800000",
          "blockHash": "0x54a884e22a3b3e60996da254c046ca516e06c1d4d8fc1c39566ff5b8a890e0dc",
          "blockNumber": "0x1db92d6",
          "blockTimestamp": "0x6a12f02b",
          "transactionHash": "0xe5c15183266d3b5343ad44f6a0b63eb7629cbe28a7116dc8bc5e39170e854ef0",
          "transactionIndex": "0x1",
          "logIndex": "0x0",
          "removed": false
        }
      ],
      "logsBloom": "0x00000000000000000000000000000000000000000000000100000000000000000000000000000000000000000000000000000000000000000000000000000000000000000000000000000008000000000000000000000000000000000000000000000000020000000000000000000900000000000000000000000010000002000040000000000000000000000000000000000000000000000000000000000000000000000000000000000000008000000000000000000000000000000000000000000002000000000000000000000000000000000002000000000000000020000000000000000000000000000000000000000000000000000000000000000000",
      "transactionHash": "0xe5c15183266d3b5343ad44f6a0b63eb7629cbe28a7116dc8bc5e39170e854ef0",
      "transactionIndex": "0x1",
      "blockHash": "0x54a884e22a3b3e60996da254c046ca516e06c1d4d8fc1c39566ff5b8a890e0dc",
      "blockNumber": "0x1db92d6",
      "gasUsed": "0x8530",
      "effectiveGasPrice": "0x1312d01",
      "blobGasUsed": "0x64",
      "from": "0xa01fb14b58bdb67a8f07977273f8a2ca04078542",
      "to": "0x212e0207999b982b2f4b8f91ca421d94dc8438e3",
      "contractAddress": null
    },
    {
      "type": "0x2",
      "status": "0x1",
      "cumulativeGasUsed": "0x1063e",
      "logs": [],
      "logsBloom": "0x00000000000000000000000000000000000000000000000000000000000000000000000000000000000000000000000000000000000000000000000000000000000000000000000000000000000000000000000000000000000000000000000000000000000000000000000000000000000000000000000000000000000000000000000000000000000000000000000000000000000000000000000000000000000000000000000000000000000000000000000000000000000000000000000000000000000000000000000000000000000000000000000000000000000000000000000000000000000000000000000000000000000000000000000000000000",
      "transactionHash": "0x53fd1c8838c6c7496aa4ef672582906f5d6db316e627aadae3250aeda8f2b148",
      "transactionIndex": "0x1",
      "blockHash": "0x0ac7370feef0ae66c8368d77c95c7063a58c020cb7c5a212e78d248dcfeebe3d",
      "blockNumber": "0x1db92d7",
      "gasUsed": "0x5208",
      "effectiveGasPrice": "0x1312d01",
      "blobGasUsed": "0x64",
      "from": "0xa01fb14b58bdb67a8f07977273f8a2ca04078542",
      "to": "0x849f1dc5ebdda263cda1a53950a47164878e106a",
      "contractAddress": null
    },
    {
      "type": "0x2",
      "status": "0x1",
      "cumulativeGasUsed": "0x13966",
      "logs": [
        {
          "address": "0x212e0207999b982b2f4b8f91ca421d94dc8438e3",
          "topics": [
            "0xddf252ad1be2c89b69c2b068fc378daa952ba7f163c4a11628f55a4df523b3ef",
            "0x0000000000000000000000000000000000000000000000000000000000000000",
            "0x000000000000000000000000436861f2b7eb1dd6e5d06821d024fb74a7e6092e"
          ],
          "data": "0x00000000000000000000000000000000000000000000152d02c7e14af6800000",
          "blockHash": "0x3e51beff162345f49201dce7a32f8224ffcda4f5585965eb60ed4e3d25d43b02",
          "blockNumber": "0x1db92d9",
          "blockTimestamp": "0x6a12f02e",
          "transactionHash": "0xbf7a041a2287177ee3f4ddea01cf638dd3b95cf6266733f09a8e0bab65b1e163",
          "transactionIndex": "0x1",
          "logIndex": "0x0",
          "removed": false
        }
      ],
      "logsBloom": "0x00000000000000000000000000000000000000000000000100000000000000000000000000000000000000000000000000000000200000000000000000000000000000000000000000000008000000000000000000080000000000000000000000000000020000000000000000000900000000000000000000000010000002000000000000000000000000000000000000000000000000000000000000000000000000000000000000000000000000000000000000000000000000000000000000000002000000000000000000000000000000000000000004000000000020000000000000000000000000000000000000000000000000000000000000000000",
      "transactionHash": "0xbf7a041a2287177ee3f4ddea01cf638dd3b95cf6266733f09a8e0bab65b1e163",
      "transactionIndex": "0x1",
      "blockHash": "0x3e51beff162345f49201dce7a32f8224ffcda4f5585965eb60ed4e3d25d43b02",
      "blockNumber": "0x1db92d9",
      "gasUsed": "0x8530",
      "effectiveGasPrice": "0x1312d01",
      "blobGasUsed": "0x64",
      "from": "0xa01fb14b58bdb67a8f07977273f8a2ca04078542",
      "to": "0x212e0207999b982b2f4b8f91ca421d94dc8438e3",
      "contractAddress": null
    },
    {
      "type": "0x2",
      "status": "0x1",
      "cumulativeGasUsed": "0x1063e",
      "logs": [],
      "logsBloom": "0x00000000000000000000000000000000000000000000000000000000000000000000000000000000000000000000000000000000000000000000000000000000000000000000000000000000000000000000000000000000000000000000000000000000000000000000000000000000000000000000000000000000000000000000000000000000000000000000000000000000000000000000000000000000000000000000000000000000000000000000000000000000000000000000000000000000000000000000000000000000000000000000000000000000000000000000000000000000000000000000000000000000000000000000000000000000",
      "transactionHash": "0x80da68b57e597f1ed5b0084ce00a090bd500e8fc6197943688de1d8dc57c66b8",
      "transactionIndex": "0x1",
      "blockHash": "0x6c956ad686f564ef3d889355430bea31bf30f52bd5e3a397b7f442369247852d",
      "blockNumber": "0x1db92da",
      "gasUsed": "0x5208",
      "effectiveGasPrice": "0x1312d01",
      "blobGasUsed": "0x64",
      "from": "0xa01fb14b58bdb67a8f07977273f8a2ca04078542",
      "to": "0x436861f2b7eb1dd6e5d06821d024fb74a7e6092e",
      "contractAddress": null
    },
    {
      "type": "0x2",
      "status": "0x1",
      "cumulativeGasUsed": "0x13966",
      "logs": [
        {
          "address": "0x212e0207999b982b2f4b8f91ca421d94dc8438e3",
          "topics": [
            "0xddf252ad1be2c89b69c2b068fc378daa952ba7f163c4a11628f55a4df523b3ef",
            "0x0000000000000000000000000000000000000000000000000000000000000000",
            "0x000000000000000000000000259dca264bf1d91512e49f553bc7e14d74311a57"
          ],
          "data": "0x00000000000000000000000000000000000000000000152d02c7e14af6800000",
          "blockHash": "0xd089764c57072bdbaff00df1c848c6201c99b418c5220a0b8e0c10e7f30d83bf",
          "blockNumber": "0x1db92db",
          "blockTimestamp": "0x6a12f030",
          "transactionHash": "0x0017a17d285037c214900a9a6015f1634af0b96bb855ed78171e090934b20c0c",
          "transactionIndex": "0x1",
          "logIndex": "0x0",
          "removed": false
        }
      ],
      "logsBloom": "0x00000000000000000000000000000000000000000000000100000000000000000000000000000000400000000000000000000000000000000000000000000000000000000000000000000008000020000000000000000000000000000000000000000000020000000000000000000900000000000000000000000010000002000000000000000000000000000000000000000000000000000000000000000000000000000000000000000000000000000000000000000000000000000000000000000002000000000000000000000000000000000000000000000000000020000000000000000000000000000000000000000000000000000000000000000000",
      "transactionHash": "0x0017a17d285037c214900a9a6015f1634af0b96bb855ed78171e090934b20c0c",
      "transactionIndex": "0x1",
      "blockHash": "0xd089764c57072bdbaff00df1c848c6201c99b418c5220a0b8e0c10e7f30d83bf",
      "blockNumber": "0x1db92db",
      "gasUsed": "0x8530",
      "effectiveGasPrice": "0x1312d01",
      "blobGasUsed": "0x64",
      "from": "0xa01fb14b58bdb67a8f07977273f8a2ca04078542",
      "to": "0x212e0207999b982b2f4b8f91ca421d94dc8438e3",
      "contractAddress": null
    },
    {
      "type": "0x2",
      "status": "0x1",
      "cumulativeGasUsed": "0x11f3e",
      "logs": [],
      "logsBloom": "0x00000000000000000000000000000000000000000000000000000000000000000000000000000000000000000000000000000000000000000000000000000000000000000000000000000000000000000000000000000000000000000000000000000000000000000000000000000000000000000000000000000000000000000000000000000000000000000000000000000000000000000000000000000000000000000000000000000000000000000000000000000000000000000000000000000000000000000000000000000000000000000000000000000000000000000000000000000000000000000000000000000000000000000000000000000000",
      "transactionHash": "0x6aeec719bbcef3ce909cfc17cbb1784fe3824c6e7019647b3167cf3da6a034c5",
      "transactionIndex": "0x1",
      "blockHash": "0x9d7e37c55f53e12f4c8714077497e3a70f5ac2d545c2f37047c0231a8ad4d578",
      "blockNumber": "0x1db92dd",
      "gasUsed": "0x5208",
      "effectiveGasPrice": "0x1312d01",
      "blobGasUsed": "0x64",
      "from": "0xa01fb14b58bdb67a8f07977273f8a2ca04078542",
      "to": "0x259dca264bf1d91512e49f553bc7e14d74311a57",
      "contractAddress": null
    },
    {
      "type": "0x2",
      "status": "0x1",
      "cumulativeGasUsed": "0x17c3e",
      "logs": [
        {
          "address": "0x212e0207999b982b2f4b8f91ca421d94dc8438e3",
          "topics": [
            "0xddf252ad1be2c89b69c2b068fc378daa952ba7f163c4a11628f55a4df523b3ef",
            "0x0000000000000000000000000000000000000000000000000000000000000000",
            "0x000000000000000000000000cfd842df68cc27b2f7c7d80648f0622e6b8a4d62"
          ],
          "data": "0x00000000000000000000000000000000000000000000152d02c7e14af6800000",
          "blockHash": "0x3a9a2f2a28af2d4d73e10cf163c4ed48aca741c8bba6fe5822dde04745829d70",
          "blockNumber": "0x1db92de",
          "blockTimestamp": "0x6a12f033",
          "transactionHash": "0x0b3df1091197d8445316f3e04ea2e40e3f15fa6c101eab4af34df342bc92d2af",
          "transactionIndex": "0x1",
          "logIndex": "0x0",
          "removed": false
        }
      ],
      "logsBloom": "0x00000000000000000000000000000000000000000000000100000000200000000000000000000000000000000000000000000000000000000000000000000000000000000000000000000008000000000000000000000000000000000000000000000000020000000000000000000900000000000000000000000010000002000000000000000800000000000000000000000000000000000000000000000000000000000000000000000000000000000000000000000000000000000000000000000002000000000000000000000000000000000000000000000000000020000000000000000000000000000000000000000000000000000000000800000000",
      "transactionHash": "0x0b3df1091197d8445316f3e04ea2e40e3f15fa6c101eab4af34df342bc92d2af",
      "transactionIndex": "0x1",
      "blockHash": "0x3a9a2f2a28af2d4d73e10cf163c4ed48aca741c8bba6fe5822dde04745829d70",
      "blockNumber": "0x1db92de",
      "gasUsed": "0x8530",
      "effectiveGasPrice": "0x1312d01",
      "blobGasUsed": "0x64",
      "from": "0xa01fb14b58bdb67a8f07977273f8a2ca04078542",
      "to": "0x212e0207999b982b2f4b8f91ca421d94dc8438e3",
      "contractAddress": null
    },
    {
      "type": "0x2",
      "status": "0x1",
      "cumulativeGasUsed": "0x1064a",
      "logs": [],
      "logsBloom": "0x00000000000000000000000000000000000000000000000000000000000000000000000000000000000000000000000000000000000000000000000000000000000000000000000000000000000000000000000000000000000000000000000000000000000000000000000000000000000000000000000000000000000000000000000000000000000000000000000000000000000000000000000000000000000000000000000000000000000000000000000000000000000000000000000000000000000000000000000000000000000000000000000000000000000000000000000000000000000000000000000000000000000000000000000000000000",
      "transactionHash": "0xb7f8aee7458c97ef1f952296caa7adc7b6c9545c8cf401b23aeca4a080e5f812",
      "transactionIndex": "0x1",
      "blockHash": "0x1c9c8a476fe04ab5fc595de02876327817c2fa9dfa0787f6fc0ca75bf0474175",
      "blockNumber": "0x1db92e0",
      "gasUsed": "0x5208",
      "effectiveGasPrice": "0x1312d01",
      "blobGasUsed": "0x64",
      "from": "0xa01fb14b58bdb67a8f07977273f8a2ca04078542",
      "to": "0xcfd842df68cc27b2f7c7d80648f0622e6b8a4d62",
      "contractAddress": null
    },
    {
      "type": "0x2",
      "status": "0x1",
      "cumulativeGasUsed": "0x13972",
      "logs": [
        {
          "address": "0x212e0207999b982b2f4b8f91ca421d94dc8438e3",
          "topics": [
            "0xddf252ad1be2c89b69c2b068fc378daa952ba7f163c4a11628f55a4df523b3ef",
            "0x0000000000000000000000000000000000000000000000000000000000000000",
            "0x000000000000000000000000ce3243906daf46a02aebe0a91edfc2ac0540417c"
          ],
          "data": "0x00000000000000000000000000000000000000000000152d02c7e14af6800000",
          "blockHash": "0xcf6f151997bddefdf077f2ca2f02e674da939b3150d7cda62b907d05224981a8",
          "blockNumber": "0x1db92e2",
          "blockTimestamp": "0x6a12f037",
          "transactionHash": "0x33b432cf93313111f0f61b36acf18017e4f480dffae70a2550ae063bb357a9d8",
          "transactionIndex": "0x1",
          "logIndex": "0x0",
          "removed": false
        }
      ],
      "logsBloom": "0x00000000000000000000000000000000000000000000000100000000000000000000000000000000000000000000000000000000000000000000000000000000000000000000000000000008000000000000000000000000000000000000000000000000020000000000000000000900000000000000000000000010000002000000000000000000000000000000010000000000000000000000000000000000000000000000000000000000010000000000000000000000800000000000000000000002000000000000000000000000000000000000000000000000000020000000000000000000000000000000000000000000000000000000000000000000",
      "transactionHash": "0x33b432cf93313111f0f61b36acf18017e4f480dffae70a2550ae063bb357a9d8",
      "transactionIndex": "0x1",
      "blockHash": "0xcf6f151997bddefdf077f2ca2f02e674da939b3150d7cda62b907d05224981a8",
      "blockNumber": "0x1db92e2",
      "gasUsed": "0x8530",
      "effectiveGasPrice": "0x1312d01",
      "blobGasUsed": "0x64",
      "from": "0xa01fb14b58bdb67a8f07977273f8a2ca04078542",
      "to": "0x212e0207999b982b2f4b8f91ca421d94dc8438e3",
      "contractAddress": null
    },
    {
      "type": "0x2",
      "status": "0x1",
      "cumulativeGasUsed": "0x1064a",
      "logs": [],
      "logsBloom": "0x00000000000000000000000000000000000000000000000000000000000000000000000000000000000000000000000000000000000000000000000000000000000000000000000000000000000000000000000000000000000000000000000000000000000000000000000000000000000000000000000000000000000000000000000000000000000000000000000000000000000000000000000000000000000000000000000000000000000000000000000000000000000000000000000000000000000000000000000000000000000000000000000000000000000000000000000000000000000000000000000000000000000000000000000000000000",
      "transactionHash": "0x13e6f4a425a538cbb9ef79d481664d8f627315bd7401974b48823dfc41f1e9eb",
      "transactionIndex": "0x1",
      "blockHash": "0xa1fb2d104650ddcd41f9a52c07fab92122055d166c640ec3ab7157ca4605a113",
      "blockNumber": "0x1db92e3",
      "gasUsed": "0x5208",
      "effectiveGasPrice": "0x1312d01",
      "blobGasUsed": "0x64",
      "from": "0xa01fb14b58bdb67a8f07977273f8a2ca04078542",
      "to": "0xce3243906daf46a02aebe0a91edfc2ac0540417c",
      "contractAddress": null
    },
    {
      "type": "0x2",
      "status": "0x1",
      "cumulativeGasUsed": "0x18b7a",
      "logs": [
        {
          "address": "0x212e0207999b982b2f4b8f91ca421d94dc8438e3",
          "topics": [
            "0xddf252ad1be2c89b69c2b068fc378daa952ba7f163c4a11628f55a4df523b3ef",
            "0x0000000000000000000000000000000000000000000000000000000000000000",
            "0x000000000000000000000000d756059d150b34c58b599a6d7d0fd2d6e5ed3d65"
          ],
          "data": "0x00000000000000000000000000000000000000000000152d02c7e14af6800000",
          "blockHash": "0xbb8f4d0c7a6636d16f9c28a2dee147df6792f0a477034d055f7d97d771134346",
          "blockNumber": "0x1db92e4",
          "blockTimestamp": "0x6a12f039",
          "transactionHash": "0xdf21d075e4a0ffdb8bc07898ece906fc941283ef02035af0d003966f689a074d",
          "transactionIndex": "0x2",
          "logIndex": "0x0",
          "removed": false
        }
      ],
      "logsBloom": "0x00000000000000000000000000000000000000000000000100000000000004000000000000000000000000000000000000000000000000000000000000000000020000000000000000000008000000000000000000000000000000000000000000000000020000000000000000000900000000000000000000000010000002000000000000000000000000000000000004000000000000000000000000000000000000000000000000000000000000000000000000000000000000000000000000000002000000000000000000000000000000000000000000000000000020000000000000000000000000000000000000000000000000000000000000000000",
      "transactionHash": "0xdf21d075e4a0ffdb8bc07898ece906fc941283ef02035af0d003966f689a074d",
      "transactionIndex": "0x2",
      "blockHash": "0xbb8f4d0c7a6636d16f9c28a2dee147df6792f0a477034d055f7d97d771134346",
      "blockNumber": "0x1db92e4",
      "gasUsed": "0x8530",
      "effectiveGasPrice": "0x1312d01",
      "blobGasUsed": "0x64",
      "from": "0xa01fb14b58bdb67a8f07977273f8a2ca04078542",
      "to": "0x212e0207999b982b2f4b8f91ca421d94dc8438e3",
      "contractAddress": null
    },
    {
      "type": "0x2",
      "status": "0x1",
      "cumulativeGasUsed": "0x1064a",
      "logs": [],
      "logsBloom": "0x00000000000000000000000000000000000000000000000000000000000000000000000000000000000000000000000000000000000000000000000000000000000000000000000000000000000000000000000000000000000000000000000000000000000000000000000000000000000000000000000000000000000000000000000000000000000000000000000000000000000000000000000000000000000000000000000000000000000000000000000000000000000000000000000000000000000000000000000000000000000000000000000000000000000000000000000000000000000000000000000000000000000000000000000000000000",
      "transactionHash": "0x9873e48bce744b5f0f4827b78e48bdfdd7518907c2ba08c8cd0f01405f014d6e",
      "transactionIndex": "0x1",
      "blockHash": "0x2c78f9515fb46aad5ca6482ace9d1d69b6465cdfd64ed6c650edbe0326561ee5",
      "blockNumber": "0x1db92e5",
      "gasUsed": "0x5208",
      "effectiveGasPrice": "0x1312d01",
      "blobGasUsed": "0x64",
      "from": "0xa01fb14b58bdb67a8f07977273f8a2ca04078542",
      "to": "0xd756059d150b34c58b599a6d7d0fd2d6e5ed3d65",
      "contractAddress": null
    }
  ],
  "libraries": [],
  "pending": [],
  "returns": {},
  "timestamp": 1779626041953,
  "chain": 1952,
  "commit": "4c1a86f"
}