{
  "transactions": [
    {
      "hash": "0x7ea6abbb69eeaf6956947cf9c6e7d7ddfd33b603da64d2957b7a3ef5ce4c52ca",
      "transactionType": "CALL",
      "contractName": null,
      "contractAddress": "0x212e0207999b982b2f4b8f91ca421d94dc8438e3",
      "function": "mint(address,uint256)",
      "arguments": [
        "0xD28ed336C56ce152181531Db27167cd24562b4EA",
        "100000000000000000000000"
      ],
      "transaction": {
        "from": "0xa01fb14b58bdb67a8f07977273f8a2ca04078542",
        "to": "0x212e0207999b982b2f4b8f91ca421d94dc8438e3",
        "gas": "0xb7f7",
        "value": "0x0",
        "input": "0x40c10f19000000000000000000000000d28ed336c56ce152181531db27167cd24562b4ea00000000000000000000000000000000000000000000152d02c7e14af6800000",
        "nonce": "0x1e8",
        "chainId": "0x7a0"
      },
      "additionalContracts": [],
      "isFixedGasLimit": false
    },
    {
      "hash": "0xf8b520e9d181c3bb922eadb2adc8849c0ad099f5db36495c941a22a8f3e05551",
      "transactionType": "CALL",
      "contractName": null,
      "contractAddress": "0xd28ed336c56ce152181531db27167cd24562b4ea",
      "function": null,
      "arguments": null,
      "transaction": {
        "from": "0xa01fb14b58bdb67a8f07977273f8a2ca04078542",
        "to": "0xd28ed336c56ce152181531db27167cd24562b4ea",
        "gas": "0x714d",
        "value": "0xaa87bee538000",
        "input": "0x",
        "nonce": "0x1e9",
        "chainId": "0x7a0"
      },
      "additionalContracts": [],
      "isFixedGasLimit": false
    },
    {
      "hash": "0xd78a432d93b348b9c2a4213ce37fdfbd8a1ea02414c5224fd59e326db5107edf",
      "transactionType": "CALL",
      "contractName": null,
      "contractAddress": "0x212e0207999b982b2f4b8f91ca421d94dc8438e3",
      "function": "mint(address,uint256)",
      "arguments": [
        "0x3C2CA138C1Dc1a643eEB73D07c1c51CC7544CE61",
        "100000000000000000000000"
      ],
      "transaction": {
        "from": "0xa01fb14b58bdb67a8f07977273f8a2ca04078542",
        "to": "0x212e0207999b982b2f4b8f91ca421d94dc8438e3",
        "gas": "0xb7f7",
        "value": "0x0",
        "input": "0x40c10f190000000000000000000000003c2ca138c1dc1a643eeb73d07c1c51cc7544ce6100000000000000000000000000000000000000000000152d02c7e14af6800000",
        "nonce": "0x1ea",
        "chainId": "0x7a0"
      },
      "additionalContracts": [],
      "isFixedGasLimit": false
    },
    {
      "hash": "0x43b722c1feb9eab9d7e01ff50326349c566bb32b94636a004b578bdcd0ce919d",
      "transactionType": "CALL",
      "contractName": null,
      "contractAddress": "0x3c2ca138c1dc1a643eeb73d07c1c51cc7544ce61",
      "function": null,
      "arguments": null,
      "transaction": {
        "from": "0xa01fb14b58bdb67a8f07977273f8a2ca04078542",
        "to": "0x3c2ca138c1dc1a643eeb73d07c1c51cc7544ce61",
        "gas": "0x714d",
        "value": "0xaa87bee538000",
        "input": "0x",
        "nonce": "0x1eb",
        "chainId": "0x7a0"
      },
      "additionalContracts": [],
      "isFixedGasLimit": false
    },
    {
      "hash": "0x198209109a259977e51519282cd823327d466ec5d8170f734776cb241e0d38db",
      "transactionType": "CALL",
      "contractName": null,
      "contractAddress": "0x212e0207999b982b2f4b8f91ca421d94dc8438e3",
      "function": "mint(address,uint256)",
      "arguments": [
        "0x2e8C9784e066c43cD181A60e1226aa5C08b54Dbb",
        "100000000000000000000000"
      ],
      "transaction": {
        "from": "0xa01fb14b58bdb67a8f07977273f8a2ca04078542",
        "to": "0x212e0207999b982b2f4b8f91ca421d94dc8438e3",
        "gas": "0xb7f7",
        "value": "0x0",
        "input": "0x40c10f190000000000000000000000002e8c9784e066c43cd181a60e1226aa5c08b54dbb00000000000000000000000000000000000000000000152d02c7e14af6800000",
        "nonce": "0x1ec",
        "chainId": "0x7a0"
      },
      "additionalContracts": [],
      "isFixedGasLimit": false
    },
    {
      "hash": "0x836c28fadfb40374453b9a5c6ccefa4ff4240daa8592c6f89167094ffc30e336",
      "transactionType": "CALL",
      "contractName": null,
      "contractAddress": "0x2e8c9784e066c43cd181a60e1226aa5c08b54dbb",
      "function": null,
      "arguments": null,
      "transaction": {
        "from": "0xa01fb14b58bdb67a8f07977273f8a2ca04078542",
        "to": "0x2e8c9784e066c43cd181a60e1226aa5c08b54dbb",
        "gas": "0x714d",
        "value": "0xaa87bee538000",
        "input": "0x",
        "nonce": "0x1ed",
        "chainId": "0x7a0"
      },
      "additionalContracts": [],
      "isFixedGasLimit": false
    },
    {
      "hash": "0xc5c0ea586bc588c95ec8e2c4f9acf163074b59157f6659e777cb6a5a5fe5cb2d",
      "transactionType": "CALL",
      "contractName": null,
      "contractAddress": "0x212e0207999b982b2f4b8f91ca421d94dc8438e3",
      "function": "mint(address,uint256)",
      "arguments": [
        "0x54b25BC3F74350fa2fD95d0c86727f88e5E75558",
        "100000000000000000000000"
      ],
      "transaction": {
        "from": "0xa01fb14b58bdb67a8f07977273f8a2ca04078542",
        "to": "0x212e0207999b982b2f4b8f91ca421d94dc8438e3",
        "gas": "0xb7f7",
        "value": "0x0",
        "input": "0x40c10f1900000000000000000000000054b25bc3f74350fa2fd95d0c86727f88e5e7555800000000000000000000000000000000000000000000152d02c7e14af6800000",
        "nonce": "0x1ee",
        "chainId": "0x7a0"
      },
      "additionalContracts": [],
      "isFixedGasLimit": false
    },
    {
      "hash": "0x2bcfef10c39dd1d38c87cf099c69401f982f4adc5391d1e6f4ad514ac0361e2c",
      "transactionType": "CALL",
      "contractName": null,
      "contractAddress": "0x54b25bc3f74350fa2fd95d0c86727f88e5e75558",
      "function": null,
      "arguments": null,
      "transaction": {
        "from": "0xa01fb14b58bdb67a8f07977273f8a2ca04078542",
        "to": "0x54b25bc3f74350fa2fd95d0c86727f88e5e75558",
        "gas": "0x714d",
        "value": "0xaa87bee538000",
        "input": "0x",
        "nonce": "0x1ef",
        "chainId": "0x7a0"
      },
      "additionalContracts": [],
      "isFixedGasLimit": false
    },
    {
      "hash": "0xf9e0e7244ac78b91608087367ca9339f7c4e970a6e871aaa02bfb0b0a002b214",
      "transactionType": "CALL",
      "contractName": null,
      "contractAddress": "0x212e0207999b982b2f4b8f91ca421d94dc8438e3",
      "function": "mint(address,uint256)",
      "arguments": [
        "0xa8d021a034E3cCF9428e60a94f83D9CcE3fA391E",
        "100000000000000000000000"
      ],
      "transaction": {
        "from": "0xa01fb14b58bdb67a8f07977273f8a2ca04078542",
        "to": "0x212e0207999b982b2f4b8f91ca421d94dc8438e3",
        "gas": "0xb7f7",
        "value": "0x0",
        "input": "0x40c10f19000000000000000000000000a8d021a034e3ccf9428e60a94f83d9cce3fa391e00000000000000000000000000000000000000000000152d02c7e14af6800000",
        "nonce": "0x1f0",
        "chainId": "0x7a0"
      },
      "additionalContracts": [],
      "isFixedGasLimit": false
    },
    {
      "hash": "0xaf28276e58a1e9abab613ebe49921ade03889e25332f810e4ab11645b51bb995",
      "transactionType": "CALL",
      "contractName": null,
      "contractAddress": "0xa8d021a034e3ccf9428e60a94f83d9cce3fa391e",
      "function": null,
      "arguments": null,
      "transaction": {
        "from": "0xa01fb14b58bdb67a8f07977273f8a2ca04078542",
        "to": "0xa8d021a034e3ccf9428e60a94f83d9cce3fa391e",
        "gas": "0x714d",
        "value": "0xaa87bee538000",
        "input": "0x",
        "nonce": "0x1f1",
        "chainId": "0x7a0"
      },
      "additionalContracts": [],
      "isFixedGasLimit": false
    },
    {
      "hash": "0x837815ccc9f54defe155c152bac0d1a8d042ebdf0b58192a80c389a2cce32200",
      "transactionType": "CALL",
      "contractName": null,
      "contractAddress": "0x212e0207999b982b2f4b8f91ca421d94dc8438e3",
      "function": "mint(address,uint256)",
      "arguments": [
        "0x1C17e6310d6773F33709510Ae7F917719176A926",
        "100000000000000000000000"
      ],
      "transaction": {
        "from": "0xa01fb14b58bdb67a8f07977273f8a2ca04078542",
        "to": "0x212e0207999b982b2f4b8f91ca421d94dc8438e3",
        "gas": "0xb7f7",
        "value": "0x0",
        "input": "0x40c10f190000000000000000000000001c17e6310d6773f33709510ae7f917719176a92600000000000000000000000000000000000000000000152d02c7e14af6800000",
        "nonce": "0x1f2",
        "chainId": "0x7a0"
      },
      "additionalContracts": [],
      "isFixedGasLimit": false
    },
    {
      "hash": "0xbcbdcfd1e6df173b0e864e43f96209d62b51d3ae362934307fc8555a90a598e0",
      "transactionType": "CALL",
      "contractName": null,
      "contractAddress": "0x1c17e6310d6773f33709510ae7f917719176a926",
      "function": null,
      "arguments": null,
      "transaction": {
        "from": "0xa01fb14b58bdb67a8f07977273f8a2ca04078542",
        "to": "0x1c17e6310d6773f33709510ae7f917719176a926",
        "gas": "0x714d",
        "value": "0xaa87bee538000",
        "input": "0x",
        "nonce": "0x1f3",
        "chainId": "0x7a0"
      },
      "additionalContracts": [],
      "isFixedGasLimit": false
    },
    {
      "hash": "0xc80f19d756742558f0bc04b6940b7c4a3262535f67b8a97a95ce005ccf755b49",
      "transactionType": "CALL",
      "contractName": null,
      "contractAddress": "0x212e0207999b982b2f4b8f91ca421d94dc8438e3",
      "function": "mint(address,uint256)",
      "arguments": [
        "0x34244038dE76DB4B4511fa4b4A02620C25c0A08F",
        "100000000000000000000000"
      ],
      "transaction": {
        "from": "0xa01fb14b58bdb67a8f07977273f8a2ca04078542",
        "to": "0x212e0207999b982b2f4b8f91ca421d94dc8438e3",
        "gas": "0xb7f7",
        "value": "0x0",
        "input": "0x40c10f1900000000000000000000000034244038de76db4b4511fa4b4a02620c25c0a08f00000000000000000000000000000000000000000000152d02c7e14af6800000",
        "nonce": "0x1f4",
        "chainId": "0x7a0"
      },
      "additionalContracts": [],
      "isFixedGasLimit": false
    },
    {
      "hash": "0x6d7cb53fe7f24f4a3e51c1ac080b6b686011f132ce98dee6ae924945b193d351",
      "transactionType": "CALL",
      "contractName": null,
      "contractAddress": "0x34244038de76db4b4511fa4b4a02620c25c0a08f",
      "function": null,
      "arguments": null,
      "transaction": {
        "from": "0xa01fb14b58bdb67a8f07977273f8a2ca04078542",
        "to": "0x34244038de76db4b4511fa4b4a02620c25c0a08f",
        "gas": "0x714d",
        "value": "0xaa87bee538000",
        "input": "0x",
        "nonce": "0x1f5",
        "chainId": "0x7a0"
      },
      "additionalContracts": [],
      "isFixedGasLimit": false
    },
    {
      "hash": "0xa83654ed83c0de7407fafe52393d60745c3bf31310d57fe075f878cf44c70e16",
      "transactionType": "CALL",
      "contractName": null,
      "contractAddress": "0x212e0207999b982b2f4b8f91ca421d94dc8438e3",
      "function": "mint(address,uint256)",
      "arguments": [
        "0x0f1e8c990179dcb05dcC85830946a90A33990e61",
        "100000000000000000000000"
      ],
      "transaction": {
        "from": "0xa01fb14b58bdb67a8f07977273f8a2ca04078542",
        "to": "0x212e0207999b982b2f4b8f91ca421d94dc8438e3",
        "gas": "0xb7f7",
        "value": "0x0",
        "input": "0x40c10f190000000000000000000000000f1e8c990179dcb05dcc85830946a90a33990e6100000000000000000000000000000000000000000000152d02c7e14af6800000",
        "nonce": "0x1f6",
        "chainId": "0x7a0"
      },
      "additionalContracts": [],
      "isFixedGasLimit": false
    },
    {
      "hash": "0x2bfd3f03cf95d1f3ed38c5c70f44f6751764844b92526bc4b6c9529da285228d",
      "transactionType": "CALL",
      "contractName": null,
      "contractAddress": "0x0f1e8c990179dcb05dcc85830946a90a33990e61",
      "function": null,
      "arguments": null,
      "transaction": {
        "from": "0xa01fb14b58bdb67a8f07977273f8a2ca04078542",
        "to": "0x0f1e8c990179dcb05dcc85830946a90a33990e61",
        "gas": "0x714d",
        "value": "0xaa87bee538000",
        "input": "0x",
        "nonce": "0x1f7",
        "chainId": "0x7a0"
      },
      "additionalContracts": [],
      "isFixedGasLimit": false
    },
    {
      "hash": "0x601d477f9de974d6d857f34ce4e8fffab05ad5afc3ece2d9437ae76cae43ccb8",
      "transactionType": "CALL",
      "contractName": null,
      "contractAddress": "0x212e0207999b982b2f4b8f91ca421d94dc8438e3",
      "function": "mint(address,uint256)",
      "arguments": [
        "0xB386521A04A42822c4c11ac3039d04676d3aFAFA",
        "100000000000000000000000"
      ],
      "transaction": {
        "from": "0xa01fb14b58bdb67a8f07977273f8a2ca04078542",
        "to": "0x212e0207999b982b2f4b8f91ca421d94dc8438e3",
        "gas": "0xb7f7",
        "value": "0x0",
        "input": "0x40c10f19000000000000000000000000b386521a04a42822c4c11ac3039d04676d3afafa00000000000000000000000000000000000000000000152d02c7e14af6800000",
        "nonce": "0x1f8",
        "chainId": "0x7a0"
      },
      "additionalContracts": [],
      "isFixedGasLimit": false
    },
    {
      "hash": "0x155bba917f02b36af3e11d2801d9ac562adbd9418d9c165a3310da55d0c9d082",
      "transactionType": "CALL",
      "contractName": null,
      "contractAddress": "0xb386521a04a42822c4c11ac3039d04676d3afafa",
      "function": null,
      "arguments": null,
      "transaction": {
        "from": "0xa01fb14b58bdb67a8f07977273f8a2ca04078542",
        "to": "0xb386521a04a42822c4c11ac3039d04676d3afafa",
        "gas": "0x714d",
        "value": "0xaa87bee538000",
        "input": "0x",
        "nonce": "0x1f9",
        "chainId": "0x7a0"
      },
      "additionalContracts": [],
      "isFixedGasLimit": false
    },
    {
      "hash": "0xb560679676248f1b2fe3f3f29b25ec2e2e2c73b9922446d603991a61dd86867c",
      "transactionType": "CALL",
      "contractName": null,
      "contractAddress": "0x212e0207999b982b2f4b8f91ca421d94dc8438e3",
      "function": "mint(address,uint256)",
      "arguments": [
        "0x6B74594B719d315C92326158118B552fCf08aEd6",
        "100000000000000000000000"
      ],
      "transaction": {
        "from": "0xa01fb14b58bdb67a8f07977273f8a2ca04078542",
        "to": "0x212e0207999b982b2f4b8f91ca421d94dc8438e3",
        "gas": "0xb7f7",
        "value": "0x0",
        "input": "0x40c10f190000000000000000000000006b74594b719d315c92326158118b552fcf08aed600000000000000000000000000000000000000000000152d02c7e14af6800000",
        "nonce": "0x1fa",
        "chainId": "0x7a0"
      },
      "additionalContracts": [],
      "isFixedGasLimit": false
    },
    {
      "hash": "0x54be1d8ce6414a3073b445147fa5156ac519382c6e76fefa81baf69cdf789867",
      "transactionType": "CALL",
      "contractName": null,
      "contractAddress": "0x6b74594b719d315c92326158118b552fcf08aed6",
      "function": null,
      "arguments": null,
      "transaction": {
        "from": "0xa01fb14b58bdb67a8f07977273f8a2ca04078542",
        "to": "0x6b74594b719d315c92326158118b552fcf08aed6",
        "gas": "0x714d",
        "value": "0xaa87bee538000",
        "input": "0x",
        "nonce": "0x1fb",
        "chainId": "0x7a0"
      },
      "additionalContracts": [],
      "isFixedGasLimit": false
    },
    {
      "hash": "0x066e89c7b61eb76b2f926e60fc26aefd57608ce382e7baac94f1843721f68423",
      "transactionType": "CALL",
      "contractName": null,
      "contractAddress": "0x212e0207999b982b2f4b8f91ca421d94dc8438e3",
      "function": "mint(address,uint256)",
      "arguments": [
        "0xdBe9250154Ddd10B9b8A9E09227c803Dc10C6e23",
        "100000000000000000000000"
      ],
      "transaction": {
        "from": "0xa01fb14b58bdb67a8f07977273f8a2ca04078542",
        "to": "0x212e0207999b982b2f4b8f91ca421d94dc8438e3",
        "gas": "0x11439",
        "value": "0x0",
        "input": "0x40c10f19000000000000000000000000dbe9250154ddd10b9b8a9e09227c803dc10c6e2300000000000000000000000000000000000000000000152d02c7e14af6800000",
        "nonce": "0x1fc",
        "chainId": "0x7a0"
      },
      "additionalContracts": [],
      "isFixedGasLimit": false
    },
    {
      "hash": "0x8cbbda74770ecdcdb5b4fb0d36ed972a6fd745144c16a7664ccefae1df2db171",
      "transactionType": "CALL",
      "contractName": null,
      "contractAddress": "0xdbe9250154ddd10b9b8a9e09227c803dc10c6e23",
      "function": null,
      "arguments": null,
      "transaction": {
        "from": "0xa01fb14b58bdb67a8f07977273f8a2ca04078542",
        "to": "0xdbe9250154ddd10b9b8a9e09227c803dc10c6e23",
        "gas": "0x714d",
        "value": "0xaa87bee538000",
        "input": "0x",
        "nonce": "0x1fd",
        "chainId": "0x7a0"
      },
      "additionalContracts": [],
      "isFixedGasLimit": false
    },
    {
      "hash": "0x6318cc12d63f5ee1e22327d4798e6ec915f655d4411564ad9eecee8a6aeb3e97",
      "transactionType": "CALL",
      "contractName": null,
      "contractAddress": "0x212e0207999b982b2f4b8f91ca421d94dc8438e3",
      "function": "mint(address,uint256)",
      "arguments": [
        "0x1a6C71Bd8E64022Ff0ba74ef1eC0271857309Ab7",
        "100000000000000000000000"
      ],
      "transaction": {
        "from": "0xa01fb14b58bdb67a8f07977273f8a2ca04078542",
        "to": "0x212e0207999b982b2f4b8f91ca421d94dc8438e3",
        "gas": "0x11439",
        "value": "0x0",
        "input": "0x40c10f190000000000000000000000001a6c71bd8e64022ff0ba74ef1ec0271857309ab700000000000000000000000000000000000000000000152d02c7e14af6800000",
        "nonce": "0x1fe",
        "chainId": "0x7a0"
      },
      "additionalContracts": [],
      "isFixedGasLimit": false
    },
    {
      "hash": "0xe6ec8f6409dfb662c0b1e3b00924ddfa8f5df0c861012bd007d3003a794c000e",
      "transactionType": "CALL",
      "contractName": null,
      "contractAddress": "0x1a6c71bd8e64022ff0ba74ef1ec0271857309ab7",
      "function": null,
      "arguments": null,
      "transaction": {
        "from": "0xa01fb14b58bdb67a8f07977273f8a2ca04078542",
        "to": "0x1a6c71bd8e64022ff0ba74ef1ec0271857309ab7",
        "gas": "0x714d",
        "value": "0xaa87bee538000",
        "input": "0x",
        "nonce": "0x1ff",
        "chainId": "0x7a0"
      },
      "additionalContracts": [],
      "isFixedGasLimit": false
    },
    {
      "hash": "0x9cdd06a789bfd064349599b5fc9482f282d3ac3a934980bcd1166a7293439fd6",
      "transactionType": "CALL",
      "contractName": null,
      "contractAddress": "0x212e0207999b982b2f4b8f91ca421d94dc8438e3",
      "function": "mint(address,uint256)",
      "arguments": [
        "0x6A138140DB992Be34019E6722037E84030D9361e",
        "100000000000000000000000"
      ],
      "transaction": {
        "from": "0xa01fb14b58bdb67a8f07977273f8a2ca04078542",
        "to": "0x212e0207999b982b2f4b8f91ca421d94dc8438e3",
        "gas": "0x11439",
        "value": "0x0",
        "input": "0x40c10f190000000000000000000000006a138140db992be34019e6722037e84030d9361e00000000000000000000000000000000000000000000152d02c7e14af6800000",
        "nonce": "0x200",
        "chainId": "0x7a0"
      },
      "additionalContracts": [],
      "isFixedGasLimit": false
    },
    {
      "hash": "0x49eaac04588b84e56a13634830e154e47e14a4e7d486b4d9d5ec8bff19f7b7ec",
      "transactionType": "CALL",
      "contractName": null,
      "contractAddress": "0x6a138140db992be34019e6722037e84030d9361e",
      "function": null,
      "arguments": null,
      "transaction": {
        "from": "0xa01fb14b58bdb67a8f07977273f8a2ca04078542",
        "to": "0x6a138140db992be34019e6722037e84030d9361e",
        "gas": "0x714d",
        "value": "0xaa87bee538000",
        "input": "0x",
        "nonce": "0x201",
        "chainId": "0x7a0"
      },
      "additionalContracts": [],
      "isFixedGasLimit": false
    },
    {
      "hash": "0xff7c25ce998f821837f0b1203c0e453b2eafa0fc59dedbd6633f9e7a6a1aeb4c",
      "transactionType": "CALL",
      "contractName": null,
      "contractAddress": "0x212e0207999b982b2f4b8f91ca421d94dc8438e3",
      "function": "mint(address,uint256)",
      "arguments": [
        "0x0E4a96A98796F058D509dC218639b9eab0a458C2",
        "100000000000000000000000"
      ],
      "transaction": {
        "from": "0xa01fb14b58bdb67a8f07977273f8a2ca04078542",
        "to": "0x212e0207999b982b2f4b8f91ca421d94dc8438e3",
        "gas": "0x11439",
        "value": "0x0",
        "input": "0x40c10f190000000000000000000000000e4a96a98796f058d509dc218639b9eab0a458c200000000000000000000000000000000000000000000152d02c7e14af6800000",
        "nonce": "0x202",
        "chainId": "0x7a0"
      },
      "additionalContracts": [],
      "isFixedGasLimit": false
    },
    {
      "hash": "0x5c5310f8efa2c4b9a4466ec58e3976307148cb57ba8d208bf8536b94e77ca2fd",
      "transactionType": "CALL",
      "contractName": null,
      "contractAddress": "0x0e4a96a98796f058d509dc218639b9eab0a458c2",
      "function": null,
      "arguments": null,
      "transaction": {
        "from": "0xa01fb14b58bdb67a8f07977273f8a2ca04078542",
        "to": "0x0e4a96a98796f058d509dc218639b9eab0a458c2",
        "gas": "0x714d",
        "value": "0xaa87bee538000",
        "input": "0x",
        "nonce": "0x203",
        "chainId": "0x7a0"
      },
      "additionalContracts": [],
      "isFixedGasLimit": false
    },
    {
      "hash": "0xc483007674d1452556e6b2f723b1335915bb767d74b883441952b5e97adbfb23",
      "transactionType": "CALL",
      "contractName": null,
      "contractAddress": "0x212e0207999b982b2f4b8f91ca421d94dc8438e3",
      "function": "mint(address,uint256)",
      "arguments": [
        "0xA0230e9c18849B84B3dbBE5fef861D4A7f9CBe64",
        "100000000000000000000000"
      ],
      "transaction": {
        "from": "0xa01fb14b58bdb67a8f07977273f8a2ca04078542",
        "to": "0x212e0207999b982b2f4b8f91ca421d94dc8438e3",
        "gas": "0x11439",
        "value": "0x0",
        "input": "0x40c10f19000000000000000000000000a0230e9c18849b84b3dbbe5fef861d4a7f9cbe6400000000000000000000000000000000000000000000152d02c7e14af6800000",
        "nonce": "0x204",
        "chainId": "0x7a0"
      },
      "additionalContracts": [],
      "isFixedGasLimit": false
    },
    {
      "hash": "0xf32947aa82a57bc83d77cf66e473a62ff6cd667d2764b9d9d827fd65237e5c60",
      "transactionType": "CALL",
      "contractName": null,
      "contractAddress": "0xa0230e9c18849b84b3dbbe5fef861d4a7f9cbe64",
      "function": null,
      "arguments": null,
      "transaction": {
        "from": "0xa01fb14b58bdb67a8f07977273f8a2ca04078542",
        "to": "0xa0230e9c18849b84b3dbbe5fef861d4a7f9cbe64",
        "gas": "0x714d",
        "value": "0xaa87bee538000",
        "input": "0x",
        "nonce": "0x205",
        "chainId": "0x7a0"
      },
      "additionalContracts": [],
      "isFixedGasLimit": false
    },
    {
      "hash": "0x7e3d303f1cb91e6b59f494f6055a933f16a6f4be7cbcd65cf419ecdabcffc6f5",
      "transactionType": "CALL",
      "contractName": null,
      "contractAddress": "0x212e0207999b982b2f4b8f91ca421d94dc8438e3",
      "function": "mint(address,uint256)",
      "arguments": [
        "0x03af030f5ae7E3c0409f5bF517B6A7e4bA498974",
        "100000000000000000000000"
      ],
      "transaction": {
        "from": "0xa01fb14b58bdb67a8f07977273f8a2ca04078542",
        "to": "0x212e0207999b982b2f4b8f91ca421d94dc8438e3",
        "gas": "0x11439",
        "value": "0x0",
        "input": "0x40c10f1900000000000000000000000003af030f5ae7e3c0409f5bf517b6a7e4ba49897400000000000000000000000000000000000000000000152d02c7e14af6800000",
        "nonce": "0x206",
        "chainId": "0x7a0"
      },
      "additionalContracts": [],
      "isFixedGasLimit": false
    },
    {
      "hash": "0x2d5e03e6f785c5763148acc28a831cb2e3a0a15212e2d1b8ea7e65d332871a0d",
      "transactionType": "CALL",
      "contractName": null,
      "contractAddress": "0x03af030f5ae7e3c0409f5bf517b6a7e4ba498974",
      "function": null,
      "arguments": null,
      "transaction": {
        "from": "0xa01fb14b58bdb67a8f07977273f8a2ca04078542",
        "to": "0x03af030f5ae7e3c0409f5bf517b6a7e4ba498974",
        "gas": "0x714d",
        "value": "0xaa87bee538000",
        "input": "0x",
        "nonce": "0x207",
        "chainId": "0x7a0"
      },
      "additionalContracts": [],
      "isFixedGasLimit": false
    },
    {
      "hash": "0x82d416d733ef677eac5821628488e5fa9768b369eae643f9502f4b7fa16c543f",
      "transactionType": "CALL",
      "contractName": null,
      "contractAddress": "0x212e0207999b982b2f4b8f91ca421d94dc8438e3",
      "function": "mint(address,uint256)",
      "arguments": [
        "0xf7DDF19F45af318bF34AC190Ff16FcC24a857fb2",
        "100000000000000000000000"
      ],
      "transaction": {
        "from": "0xa01fb14b58bdb67a8f07977273f8a2ca04078542",
        "to": "0x212e0207999b982b2f4b8f91ca421d94dc8438e3",
        "gas": "0x11439",
        "value": "0x0",
        "input": "0x40c10f19000000000000000000000000f7ddf19f45af318bf34ac190ff16fcc24a857fb200000000000000000000000000000000000000000000152d02c7e14af6800000",
        "nonce": "0x208",
        "chainId": "0x7a0"
      },
      "additionalContracts": [],
      "isFixedGasLimit": false
    },
    {
      "hash": "0x7616886ce23fb52de630489f0612400cefbefc43a60bad67680f731cf69576e8",
      "transactionType": "CALL",
      "contractName": null,
      "contractAddress": "0xf7ddf19f45af318bf34ac190ff16fcc24a857fb2",
      "function": null,
      "arguments": null,
      "transaction": {
        "from": "0xa01fb14b58bdb67a8f07977273f8a2ca04078542",
        "to": "0xf7ddf19f45af318bf34ac190ff16fcc24a857fb2",
        "gas": "0x714d",
        "value": "0xaa87bee538000",
        "input": "0x",
        "nonce": "0x209",
        "chainId": "0x7a0"
      },
      "additionalContracts": [],
      "isFixedGasLimit": false
    },
    {
      "hash": "0x4b5846f06693800e4955f36a6eed43dde5b0bd6f036b0604436f2d7ff68c7aea",
      "transactionType": "CALL",
      "contractName": null,
      "contractAddress": "0x212e0207999b982b2f4b8f91ca421d94dc8438e3",
      "function": "mint(address,uint256)",
      "arguments": [
        "0xc14182236Ba43E22dD82b93DD1551ec0EBdd23C2",
        "100000000000000000000000"
      ],
      "transaction": {
        "from": "0xa01fb14b58bdb67a8f07977273f8a2ca04078542",
        "to": "0x212e0207999b982b2f4b8f91ca421d94dc8438e3",
        "gas": "0x11439",
        "value": "0x0",
        "input": "0x40c10f19000000000000000000000000c14182236ba43e22dd82b93dd1551ec0ebdd23c200000000000000000000000000000000000000000000152d02c7e14af6800000",
        "nonce": "0x20a",
        "chainId": "0x7a0"
      },
      "additionalContracts": [],
      "isFixedGasLimit": false
    },
    {
      "hash": "0x5ee729e3e57d79044d39d5f8e1ea9a88d503a7c3141b6f94dc2c3d9bcaac2b6f",
      "transactionType": "CALL",
      "contractName": null,
      "contractAddress": "0xc14182236ba43e22dd82b93dd1551ec0ebdd23c2",
      "function": null,
      "arguments": null,
      "transaction": {
        "from": "0xa01fb14b58bdb67a8f07977273f8a2ca04078542",
        "to": "0xc14182236ba43e22dd82b93dd1551ec0ebdd23c2",
        "gas": "0x714d",
        "value": "0xaa87bee538000",
        "input": "0x",
        "nonce": "0x20b",
        "chainId": "0x7a0"
      },
      "additionalContracts": [],
      "isFixedGasLimit": false
    },
    {
      "hash": "0x50180d5b830007c956cdcf21b44d91dae8e9f639b22d5e8dd6da9ac35753d19d",
      "transactionType": "CALL",
      "contractName": null,
      "contractAddress": "0x212e0207999b982b2f4b8f91ca421d94dc8438e3",
      "function": "mint(address,uint256)",
      "arguments": [
        "0x7D3714bCbA4394947e4EBa2e45BD6f3Ce744737C",
        "100000000000000000000000"
      ],
      "transaction": {
        "from": "0xa01fb14b58bdb67a8f07977273f8a2ca04078542",
        "to": "0x212e0207999b982b2f4b8f91ca421d94dc8438e3",
        "gas": "0x11439",
        "value": "0x0",
        "input": "0x40c10f190000000000000000000000007d3714bcba4394947e4eba2e45bd6f3ce744737c00000000000000000000000000000000000000000000152d02c7e14af6800000",
        "nonce": "0x20c",
        "chainId": "0x7a0"
      },
      "additionalContracts": [],
      "isFixedGasLimit": false
    },
    {
      "hash": "0x8f827e8c578b5966027a42dae5df73d8aa07e6bcc3e8d6bb91f9d2603395feab",
      "transactionType": "CALL",
      "contractName": null,
      "contractAddress": "0x7d3714bcba4394947e4eba2e45bd6f3ce744737c",
      "function": null,
      "arguments": null,
      "transaction": {
        "from": "0xa01fb14b58bdb67a8f07977273f8a2ca04078542",
        "to": "0x7d3714bcba4394947e4eba2e45bd6f3ce744737c",
        "gas": "0x714d",
        "value": "0xaa87bee538000",
        "input": "0x",
        "nonce": "0x20d",
        "chainId": "0x7a0"
      },
      "additionalContracts": [],
      "isFixedGasLimit": false
    },
    {
      "hash": "0xc9d68a6f8d5f7aab114e021155368b51dcbd4188d0cf30a2193c23782c00b9cd",
      "transactionType": "CALL",
      "contractName": null,
      "contractAddress": "0x212e0207999b982b2f4b8f91ca421d94dc8438e3",
      "function": "mint(address,uint256)",
      "arguments": [
        "0x36b157391896394d9B2A05116623b9aBf195Fb47",
        "100000000000000000000000"
      ],
      "transaction": {
        "from": "0xa01fb14b58bdb67a8f07977273f8a2ca04078542",
        "to": "0x212e0207999b982b2f4b8f91ca421d94dc8438e3",
        "gas": "0x11439",
        "value": "0x0",
        "input": "0x40c10f1900000000000000000000000036b157391896394d9b2a05116623b9abf195fb4700000000000000000000000000000000000000000000152d02c7e14af6800000",
        "nonce": "0x20e",
        "chainId": "0x7a0"
      },
      "additionalContracts": [],
      "isFixedGasLimit": false
    },
    {
      "hash": "0xb5c39485c01fe1089f8d8755c599972d2efa5a14146ede5db89c117db492127f",
      "transactionType": "CALL",
      "contractName": null,
      "contractAddress": "0x36b157391896394d9b2a05116623b9abf195fb47",
      "function": null,
      "arguments": null,
      "transaction": {
        "from": "0xa01fb14b58bdb67a8f07977273f8a2ca04078542",
        "to": "0x36b157391896394d9b2a05116623b9abf195fb47",
        "gas": "0x714d",
        "value": "0xaa87bee538000",
        "input": "0x",
        "nonce": "0x20f",
        "chainId": "0x7a0"
      },
      "additionalContracts": [],
      "isFixedGasLimit": false
    }
  ],
  "receipts": [
    {
      "type": "0x2",
      "status": "0x1",
      "cumulativeGasUsed": "0x1525a",
      "logs": [
        {
          "address": "0x212e0207999b982b2f4b8f91ca421d94dc8438e3",
          "topics": [
            "0xddf252ad1be2c89b69c2b068fc378daa952ba7f163c4a11628f55a4df523b3ef",
            "0x0000000000000000000000000000000000000000000000000000000000000000",
            "0x000000000000000000000000d28ed336c56ce152181531db27167cd24562b4ea"
          ],
          "data": "0x00000000000000000000000000000000000000000000152d02c7e14af6800000",
          "blockHash": "0x59757204bca98059dfeba59a02a5af80e6e6f924c4428480f69d1b09628b7009",
          "blockNumber": "0x1db9529",
          "blockTimestamp": "0x6a12f27e",
          "transactionHash": "0x7ea6abbb69eeaf6956947cf9c6e7d7ddfd33b603da64d2957b7a3ef5ce4c52ca",
          "transactionIndex": "0x1",
          "logIndex": "0x0",
          "removed": false
        }
      ],
      "logsBloom": "0x00000000000000000000000000000000000000000000000100000000000000000000040000000000000000000000000000000000000000000100000000000000000000000000000000000008000000000000000000000000000000000000000000000000020000000000000000000900000000000000000000000010000002000000000000000000000000000000000000000000000000000000000000000000000000000000000000000001000000000000000000000000000000000000000000000002000000000000000000000000000000000000000000000000000020000000000000000000000000000000000000000000000000000000000000000000",
      "transactionHash": "0x7ea6abbb69eeaf6956947cf9c6e7d7ddfd33b603da64d2957b7a3ef5ce4c52ca",
      "transactionIndex": "0x1",
      "blockHash": "0x59757204bca98059dfeba59a02a5af80e6e6f924c4428480f69d1b09628b7009",
      "blockNumber": "0x1db9529",
      "gasUsed": "0x8530",
      "effectiveGasPrice": "0x1312d01",
      "blobGasUsed": "0x64",
      "from": "0xa01fb14b58bdb67a8f07977273f8a2ca04078542",
      "to": "0x212e0207999b982b2f4b8f91ca421d94dc8438e3",
      "contractAddress": null
    },
    {
      "type": "0x2",
      "status": "0x1",
      "cumulativeGasUsed": "0x1063e",
      "logs": [],
      "logsBloom": "0x00000000000000000000000000000000000000000000000000000000000000000000000000000000000000000000000000000000000000000000000000000000000000000000000000000000000000000000000000000000000000000000000000000000000000000000000000000000000000000000000000000000000000000000000000000000000000000000000000000000000000000000000000000000000000000000000000000000000000000000000000000000000000000000000000000000000000000000000000000000000000000000000000000000000000000000000000000000000000000000000000000000000000000000000000000000",
      "transactionHash": "0xf8b520e9d181c3bb922eadb2adc8849c0ad099f5db36495c941a22a8f3e05551",
      "transactionIndex": "0x1",
      "blockHash": "0xbf547969206d6541169d2069df62b51cf0c0a0e2bedd642427a8a841ee57e527",
      "blockNumber": "0x1db952b",
      "gasUsed": "0x5208",
      "effectiveGasPrice": "0x1312d01",
      "blobGasUsed": "0x64",
      "from": "0xa01fb14b58bdb67a8f07977273f8a2ca04078542",
      "to": "0xd28ed336c56ce152181531db27167cd24562b4ea",
      "contractAddress": null
    },
    {
      "type": "0x2",
      "status": "0x1",
      "cumulativeGasUsed": "0x13966",
      "logs": [
        {
          "address": "0x212e0207999b982b2f4b8f91ca421d94dc8438e3",
          "topics": [
            "0xddf252ad1be2c89b69c2b068fc378daa952ba7f163c4a11628f55a4df523b3ef",
            "0x0000000000000000000000000000000000000000000000000000000000000000",
            "0x0000000000000000000000003c2ca138c1dc1a643eeb73d07c1c51cc7544ce61"
          ],
          "data": "0x00000000000000000000000000000000000000000000152d02c7e14af6800000",
          "blockHash": "0x2684752c14ca56cdf4ec554267d230c65cf7be3e97e77d90bf10895a0b5d4a67",
          "blockNumber": "0x1db952c",
          "blockTimestamp": "0x6a12f281",
          "transactionHash": "0xd78a432d93b348b9c2a4213ce37fdfbd8a1ea02414c5224fd59e326db5107edf",
          "transactionIndex": "0x1",
          "logIndex": "0x0",
          "removed": false
        }
      ],
      "logsBloom": "0x00000000000000000000000000000000000000000000000100000000000000000000000000000000000000000000000000000000000000000000000000000000000000000000000000000008000000000000000000000000000000000000000000000002020000000000000000000900000000000000000000000010800002000000000000000000000000000000000000000000000000000000000000000000000000000000000000000000000000000000000000000100000000000000000000000002000000000000000000000000000000000000000000000000000020000000000000000000000000000000000000000000000000000000000000000000",
      "transactionHash": "0xd78a432d93b348b9c2a4213ce37fdfbd8a1ea02414c5224fd59e326db5107edf",
      "transactionIndex": "0x1",
      "blockHash": "0x2684752c14ca56cdf4ec554267d230c65cf7be3e97e77d90bf10895a0b5d4a67",
      "blockNumber": "0x1db952c",
      "gasUsed": "0x8530",
      "effectiveGasPrice": "0x1312d01",
      "blobGasUsed": "0x64",
      "from": "0xa01fb14b58bdb67a8f07977273f8a2ca04078542",
      "to": "0x212e0207999b982b2f4b8f91ca421d94dc8438e3",
      "contractAddress": null
    },
    {
      "type": "0x2",
      "status": "0x1",
      "cumulativeGasUsed": "0x1063e",
      "logs": [],
      "logsBloom": "0x00000000000000000000000000000000000000000000000000000000000000000000000000000000000000000000000000000000000000000000000000000000000000000000000000000000000000000000000000000000000000000000000000000000000000000000000000000000000000000000000000000000000000000000000000000000000000000000000000000000000000000000000000000000000000000000000000000000000000000000000000000000000000000000000000000000000000000000000000000000000000000000000000000000000000000000000000000000000000000000000000000000000000000000000000000000",
      "transactionHash": "0x43b722c1feb9eab9d7e01ff50326349c566bb32b94636a004b578bdcd0ce919d",
      "transactionIndex": "0x1",
      "blockHash": "0x8a80ffc4232d890e2dcc44f3933bac07ed6f534c414d32ce8f1fec76f080c9c7",
      "blockNumber": "0x1db952e",
      "gasUsed": "0x5208",
      "effectiveGasPrice": "0x1312d01",
      "blobGasUsed": "0x64",
      "from": "0xa01fb14b58bdb67a8f07977273f8a2ca04078542",
      "to": "0x3c2ca138c1dc1a643eeb73d07c1c51cc7544ce61",
      "contractAddress": null
    },
    {
      "type": "0x2",
      "status": "0x1",
      "cumulativeGasUsed": "0x13966",
      "logs": [
        {
          "address": "0x212e0207999b982b2f4b8f91ca421d94dc8438e3",
          "topics": [
            "0xddf252ad1be2c89b69c2b068fc378daa952ba7f163c4a11628f55a4df523b3ef",
            "0x0000000000000000000000000000000000000000000000000000000000000000",
            "0x0000000000000000000000002e8c9784e066c43cd181a60e1226aa5c08b54dbb"
          ],
          "data": "0x00000000000000000000000000000000000000000000152d02c7e14af6800000",
          "blockHash": "0x356f9b16e9cd1cf2d1ae60d3a2b6116104196b9c06d1073974385a9909ccd745",
          "blockNumber": "0x1db952f",
          "blockTimestamp": "0x6a12f284",
          "transactionHash": "0x198209109a259977e51519282cd823327d466ec5d8170f734776cb241e0d38db",
          "transactionIndex": "0x1",
          "logIndex": "0x0",
          "removed": false
        }
      ],
      "logsBloom": "0x00000000000000000000000000000000000000000000080100000000000000000000000000000000000000000000000000000000000000000000000000000000000000000000000000000008000000000000000000000000400000000000000000000000020000000000000000000900000000000000000000000010000002000000000000000000000000000000000000000000000000000000000000000000000000000000000000000000000000000000000000000000000000000000000000000002000000000000000000000000000000000000000000000000000020000000000000000000000000000000000020000000000000000000000000000000",
      "transactionHash": "0x198209109a259977e51519282cd823327d466ec5d8170f734776cb241e0d38db",
      "transactionIndex": "0x1",
      "blockHash": "0x356f9b16e9cd1cf2d1ae60d3a2b6116104196b9c06d1073974385a9909ccd745",
      "blockNumber": "0x1db952f",
      "gasUsed": "0x8530",
      "effectiveGasPrice": "0x1312d01",
      "blobGasUsed": "0x64",
      "from": "0xa01fb14b58bdb67a8f07977273f8a2ca04078542",
      "to": "0x212e0207999b982b2f4b8f91ca421d94dc8438e3",
      "contractAddress": null
    },
    {
      "type": "0x2",
      "status": "0x1",
      "cumulativeGasUsed": "0x1063e",
      "logs": [],
      "logsBloom": "0x00000000000000000000000000000000000000000000000000000000000000000000000000000000000000000000000000000000000000000000000000000000000000000000000000000000000000000000000000000000000000000000000000000000000000000000000000000000000000000000000000000000000000000000000000000000000000000000000000000000000000000000000000000000000000000000000000000000000000000000000000000000000000000000000000000000000000000000000000000000000000000000000000000000000000000000000000000000000000000000000000000000000000000000000000000000",
      "transactionHash": "0x836c28fadfb40374453b9a5c6ccefa4ff4240daa8592c6f89167094ffc30e336",
      "transactionIndex": "0x1",
      "blockHash": "0x53e020a867337969f6e5cdfcf1aff8503e9c92dbf8f2d91c56a12f580f90c806",
      "blockNumber": "0x1db9531",
      "gasUsed": "0x5208",
      "effectiveGasPrice": "0x1312d01",
      "blobGasUsed": "0x64",
      "from": "0xa01fb14b58bdb67a8f07977273f8a2ca04078542",
      "to": "0x2e8c9784e066c43cd181a60e1226aa5c08b54dbb",
      "contractAddress": null
    },
    {
      "type": "0x2",
      "status": "0x1",
      "cumulativeGasUsed": "0x57357",
      "logs": [
        {
          "address": "0x212e0207999b982b2f4b8f91ca421d94dc8438e3",
          "topics": [
            "0xddf252ad1be2c89b69c2b068fc378daa952ba7f163c4a11628f55a4df523b3ef",
            "0x0000000000000000000000000000000000000000000000000000000000000000",
            "0x00000000000000000000000054b25bc3f74350fa2fd95d0c86727f88e5e75558"
          ],
          "data": "0x00000000000000000000000000000000000000000000152d02c7e14af6800000",
          "blockHash": "0xf5faf3559fcc2dc42a26526f0feb1cba1b44eabf1a9b142053dc54f3d9ab84c1",
          "blockNumber": "0x1db9532",
          "blockTimestamp": "0x6a12f287",
          "transactionHash": "0xc5c0ea586bc588c95ec8e2c4f9acf163074b59157f6659e777cb6a5a5fe5cb2d",
          "transactionIndex": "0x5",
          "logIndex": "0x6",
          "removed": false
        }
      ],
      "logsBloom": "0x00000000000000000000000000000000000000000000000100000000000000000000000000000000000000000000000000000000000000000000000000000000000000004000000000000008000000000000000000000000000000000000000000000000020000000000000000000900000000000000000000000010000002000000000000000000000000000000000000000000000000000000000000000000000000000000000000000000000000800000000000000000000000000000000000000002000000000000000000000000000000000000000000000000000020000000000080000000000000000000000000000000000000000000000000000000",
      "transactionHash": "0xc5c0ea586bc588c95ec8e2c4f9acf163074b59157f6659e777cb6a5a5fe5cb2d",
      "transactionIndex": "0x5",
      "blockHash": "0xf5faf3559fcc2dc42a26526f0feb1cba1b44eabf1a9b142053dc54f3d9ab84c1",
      "blockNumber": "0x1db9532",
      "gasUsed": "0x8530",
      "effectiveGasPrice": "0x1312d01",
      "blobGasUsed": "0x64",
      "from": "0xa01fb14b58bdb67a8f07977273f8a2ca04078542",
      "to": "0x212e0207999b982b2f4b8f91ca421d94dc8438e3",
      "contractAddress": null
    },
    {
      "type": "0x2",
      "status": "0x1",
      "cumulativeGasUsed": "0x1063e",
      "logs": [],
      "logsBloom": "0x00000000000000000000000000000000000000000000000000000000000000000000000000000000000000000000000000000000000000000000000000000000000000000000000000000000000000000000000000000000000000000000000000000000000000000000000000000000000000000000000000000000000000000000000000000000000000000000000000000000000000000000000000000000000000000000000000000000000000000000000000000000000000000000000000000000000000000000000000000000000000000000000000000000000000000000000000000000000000000000000000000000000000000000000000000000",
      "transactionHash": "0x2bcfef10c39dd1d38c87cf099c69401f982f4adc5391d1e6f4ad514ac0361e2c",
      "transactionIndex": "0x1",
      "blockHash": "0x7987a7a6f1568c9fb9cfc93924fe0c621862aefcc227d3280aed099871dcc5e0",
      "blockNumber": "0x1db9534",
      "gasUsed": "0x5208",
      "effectiveGasPrice": "0x1312d01",
      "blobGasUsed": "0x64",
      "from": "0xa01fb14b58bdb67a8f07977273f8a2ca04078542",
      "to": "0x54b25bc3f74350fa2fd95d0c86727f88e5e75558",
      "contractAddress": null
    },
    {
      "type": "0x2",
      "status": "0x1",
      "cumulativeGasUsed": "0x15266",
      "logs": [
        {
          "address": "0x212e0207999b982b2f4b8f91ca421d94dc8438e3",
          "topics": [
            "0xddf252ad1be2c89b69c2b068fc378daa952ba7f163c4a11628f55a4df523b3ef",
            "0x0000000000000000000000000000000000000000000000000000000000000000",
            "0x000000000000000000000000a8d021a034e3ccf9428e60a94f83d9cce3fa391e"
          ],
          "data": "0x00000000000000000000000000000000000000000000152d02c7e14af6800000",
          "blockHash": "0x3f59bd7df785d223d5a626ad576fbbda5307df4e1fb3569803c0ae3c2d5c9d85",
          "blockNumber": "0x1db9535",
          "blockTimestamp": "0x6a12f28a",
          "transactionHash": "0xf9e0e7244ac78b91608087367ca9339f7c4e970a6e871aaa02bfb0b0a002b214",
          "transactionIndex": "0x1",
          "logIndex": "0x0",
          "removed": false
        }
      ],
      "logsBloom": "0x00000000000000000000000000000000000000000000000100000000000100000000000000000000000000000000000000000000000000000000000000000000000000000000000000000008000000000000000000000000000000000000000000000000020040000000000000000900000000000000000000000010000002000000200000000000000000000000000000000000000000000000000000000000000000000000000000000000000000000000000000000000000000000000000000000002000000000000000000000000000000000000000000000000000020000000000000000000000000000000000000000000000000000000000000000000",
      "transactionHash": "0xf9e0e7244ac78b91608087367ca9339f7c4e970a6e871aaa02bfb0b0a002b214",
      "transactionIndex": "0x1",
      "blockHash": "0x3f59bd7df785d223d5a626ad576fbbda5307df4e1fb3569803c0ae3c2d5c9d85",
      "blockNumber": "0x1db9535",
      "gasUsed": "0x8530",
      "effectiveGasPrice": "0x1312d01",
      "blobGasUsed": "0x64",
      "from": "0xa01fb14b58bdb67a8f07977273f8a2ca04078542",
      "to": "0x212e0207999b982b2f4b8f91ca421d94dc8438e3",
      "contractAddress": null
    },
    {
      "type": "0x2",
      "status": "0x1",
      "cumulativeGasUsed": "0x202e4",
      "logs": [],
      "logsBloom": "0x00000000000000000000000000000000000000000000000000000000000000000000000000000000000000000000000000000000000000000000000000000000000000000000000000000000000000000000000000000000000000000000000000000000000000000000000000000000000000000000000000000000000000000000000000000000000000000000000000000000000000000000000000000000000000000000000000000000000000000000000000000000000000000000000000000000000000000000000000000000000000000000000000000000000000000000000000000000000000000000000000000000000000000000000000000000",
      "transactionHash": "0xaf28276e58a1e9abab613ebe49921ade03889e25332f810e4ab11645b51bb995",
      "transactionIndex": "0x2",
      "blockHash": "0xf0641e6a102980bd4bf58ed804eea1d4b8053a2baa30e6d27e9122a227eab789",
      "blockNumber": "0x1db9536",
      "gasUsed": "0x5208",
      "effectiveGasPrice": "0x1312d01",
      "blobGasUsed": "0x64",
      "from": "0xa01fb14b58bdb67a8f07977273f8a2ca04078542",
      "to": "0xa8d021a034e3ccf9428e60a94f83d9cce3fa391e",
      "contractAddress": null
    },
    {
      "type": "0x2",
      "status": "0x1",
      "cumulativeGasUsed": "0x13972",
      "logs": [
        {
          "address": "0x212e0207999b982b2f4b8f91ca421d94dc8438e3",
          "topics": [
            "0xddf252ad1be2c89b69c2b068fc378daa952ba7f163c4a11628f55a4df523b3ef",
            "0x0000000000000000000000000000000000000000000000000000000000000000",
            "0x0000000000000000000000001c17e6310d6773f33709510ae7f917719176a926"
          ],
          "data": "0x00000000000000000000000000000000000000000000152d02c7e14af6800000",
          "blockHash": "0x72094afa28521507ecf99d089ffb532a51ee79e33c3710938271ab6ca3a804e4",
          "blockNumber": "0x1db9538",
          "blockTimestamp": "0x6a12f28d",
          "transactionHash": "0x837815ccc9f54defe155c152bac0d1a8d042ebdf0b58192a80c389a2cce32200",
          "transactionIndex": "0x1",
          "logIndex": "0x0",
          "removed": false
        }
      ],
      "logsBloom": "0x00000000000000000000000000000000000000000000000100000000000000000000000000000000000000000000000000000000000000002000000000000000000000000100000000000008000000000000000000000000000000000000000000000000020000000000000000000900000000000000000000000010000002000000000000000000000000000000000000000000000000000000000000000000000000000000000000000000000000000000000000000000000000000000000000000002000000000000100000000000000000000000000000000000000020000000000000000000000000000000000000000000000000000000000000000000",
      "transactionHash": "0x837815ccc9f54defe155c152bac0d1a8d042ebdf0b58192a80c389a2cce32200",
      "transactionIndex": "0x1",
      "blockHash": "0x72094afa28521507ecf99d089ffb532a51ee79e33c3710938271ab6ca3a804e4",
      "blockNumber": "0x1db9538",
      "gasUsed": "0x8530",
      "effectiveGasPrice": "0x1312d01",
      "blobGasUsed": "0x64",
      "from": "0xa01fb14b58bdb67a8f07977273f8a2ca04078542",
      "to": "0x212e0207999b982b2f4b8f91ca421d94dc8438e3",
      "contractAddress": null
    },
    {
      "type": "0x2",
      "status": "0x1",
      "cumulativeGasUsed": "0x1064a",
      "logs": [],
      "logsBloom": "0x00000000000000000000000000000000000000000000000000000000000000000000000000000000000000000000000000000000000000000000000000000000000000000000000000000000000000000000000000000000000000000000000000000000000000000000000000000000000000000000000000000000000000000000000000000000000000000000000000000000000000000000000000000000000000000000000000000000000000000000000000000000000000000000000000000000000000000000000000000000000000000000000000000000000000000000000000000000000000000000000000000000000000000000000000000000",
      "transactionHash": "0xbcbdcfd1e6df173b0e864e43f96209d62b51d3ae362934307fc8555a90a598e0",
      "transactionIndex": "0x1",
      "blockHash": "0x30d7343324cd615af00969d34c3e4ad7a228de1248f5cde3bdda902631a75ae2",
      "blockNumber": "0x1db9539",
      "gasUsed": "0x5208",
      "effectiveGasPrice": "0x1312d01",
      "blobGasUsed": "0x64",
      "from": "0xa01fb14b58bdb67a8f07977273f8a2ca04078542",
      "to": "0x1c17e6310d6773f33709510ae7f917719176a926",
      "contractAddress": null
    },
    {
      "type": "0x2",
      "status": "0x1",
      "cumulativeGasUsed": "0x13972",
      "logs": [
        {
          "address": "0x212e0207999b982b2f4b8f91ca421d94dc8438e3",
          "topics": [
            "0xddf252ad1be2c89b69c2b068fc378daa952ba7f163c4a11628f55a4df523b3ef",
            "0x0000000000000000000000000000000000000000000000000000000000000000",
            "0x00000000000000000000000034244038de76db4b4511fa4b4a02620c25c0a08f"
          ],
          "data": "0x00000000000000000000000000000000000000000000152d02c7e14af6800000",
          "blockHash": "0xa8e407ebe15cd56a0b3cbd8b367bad602153f1dd3d55fa6b1b38eb003cf904bf",
          "blockNumber": "0x1db953b",
          "blockTimestamp": "0x6a12f290",
          "transactionHash": "0xc80f19d756742558f0bc04b6940b7c4a3262535f67b8a97a95ce005ccf755b49",
          "transactionIndex": "0x1",
          "logIndex": "0x0",
          "removed": false
        }
      ],
      "logsBloom": "0x00000000000000000000000000000000000000000000000100000000000000000000000000000000000000000000000000000000000000000000000000000000000000000000000000000008000000000000000000000000000000000000000000000000020002000000000000000900000020000000000000000010000002000000000000000000000000000000000000000000000000000000000000000000000000000000000000000000000000000000000020000000000000000000000000000002000000000000000000000000000000000000000000000000000020000000000000000000000000000000000000000000000000000000000000000000",
      "transactionHash": "0xc80f19d756742558f0bc04b6940b7c4a3262535f67b8a97a95ce005ccf755b49",
      "transactionIndex": "0x1",
      "blockHash": "0xa8e407ebe15cd56a0b3cbd8b367bad602153f1dd3d55fa6b1b38eb003cf904bf",
      "blockNumber": "0x1db953b",
      "gasUsed": "0x8530",
      "effectiveGasPrice": "0x1312d01",
      "blobGasUsed": "0x64",
      "from": "0xa01fb14b58bdb67a8f07977273f8a2ca04078542",
      "to": "0x212e0207999b982b2f4b8f91ca421d94dc8438e3",
      "contractAddress": null
    },
    {
      "type": "0x2",
      "status": "0x1",
      "cumulativeGasUsed": "0x44d2d",
      "logs": [],
      "logsBloom": "0x00000000000000000000000000000000000000000000000000000000000000000000000000000000000000000000000000000000000000000000000000000000000000000000000000000000000000000000000000000000000000000000000000000000000000000000000000000000000000000000000000000000000000000000000000000000000000000000000000000000000000000000000000000000000000000000000000000000000000000000000000000000000000000000000000000000000000000000000000000000000000000000000000000000000000000000000000000000000000000000000000000000000000000000000000000000",
      "transactionHash": "0x6d7cb53fe7f24f4a3e51c1ac080b6b686011f132ce98dee6ae924945b193d351",
      "transactionIndex": "0x4",
      "blockHash": "0xe48d66cc4640cef6b217a02f9a9d5aafaf3ce74dff1a7eb8f74b41417815d3d2",
      "blockNumber": "0x1db953c",
      "gasUsed": "0x5208",
      "effectiveGasPrice": "0x1312d01",
      "blobGasUsed": "0x64",
      "from": "0xa01fb14b58bdb67a8f07977273f8a2ca04078542",
      "to": "0x34244038de76db4b4511fa4b4a02620c25c0a08f",
      "contractAddress": null
    },
    {
      "type": "0x2",
      "status": "0x1",
      "cumulativeGasUsed": "0x18b7a",
      "logs": [
        {
          "address": "0x212e0207999b982b2f4b8f91ca421d94dc8438e3",
          "topics": [
            "0xddf252ad1be2c89b69c2b068fc378daa952ba7f163c4a11628f55a4df523b3ef",
            "0x0000000000000000000000000000000000000000000000000000000000000000",
            "0x0000000000000000000000000f1e8c990179dcb05dcc85830946a90a33990e61"
          ],
          "data": "0x00000000000000000000000000000000000000000000152d02c7e14af6800000",
          "blockHash": "0xc3625395a712684440c571e723c4016072469718f4a9389e174f80d40750f6cc",
          "blockNumber": "0x1db953d",
          "blockTimestamp": "0x6a12f292",
          "transactionHash": "0xa83654ed83c0de7407fafe52393d60745c3bf31310d57fe075f878cf44c70e16",
          "transactionIndex": "0x2",
          "logIndex": "0x0",
          "removed": false
        }
      ],
      "logsBloom": "0x00000000000000000000000000000000000000000000000100000000000000000000000000000000000000000000000000000000000000000000000000000000000000000000000000000008000000000000000000000000000000000000000000000000020000000000000200000900000000000000000000000010000002000000000000000000000000000000000000000000000000000000000000000000000000000000000000000000000000000000000000000000000000000000000000000002000000000000000000000000000000000000000000000000000020000000000002000000000040000000000000000000000000000000000000000000",
      "transactionHash": "0xa83654ed83c0de7407fafe52393d60745c3bf31310d57fe075f878cf44c70e16",
      "transactionIndex": "0x2",
      "blockHash": "0xc3625395a712684440c571e723c4016072469718f4a9389e174f80d40750f6cc",
      "blockNumber": "0x1db953d",
      "gasUsed": "0x8530",
      "effectiveGasPrice": "0x1312d01",
      "blobGasUsed": "0x64",
      "from": "0xa01fb14b58bdb67a8f07977273f8a2ca04078542",
      "to": "0x212e0207999b982b2f4b8f91ca421d94dc8438e3",
      "contractAddress": null
    },
    {
      "type": "0x2",
      "status": "0x1",
      "cumulativeGasUsed": "0x1064a",
      "logs": [],
      "logsBloom": "0x00000000000000000000000000000000000000000000000000000000000000000000000000000000000000000000000000000000000000000000000000000000000000000000000000000000000000000000000000000000000000000000000000000000000000000000000000000000000000000000000000000000000000000000000000000000000000000000000000000000000000000000000000000000000000000000000000000000000000000000000000000000000000000000000000000000000000000000000000000000000000000000000000000000000000000000000000000000000000000000000000000000000000000000000000000000",
      "transactionHash": "0x2bfd3f03cf95d1f3ed38c5c70f44f6751764844b92526bc4b6c9529da285228d",
      "transactionIndex": "0x1",
      "blockHash": "0xb856d4af29ab7584f8e2f351b6acc207c775113c9be764b0cb22edf786e35966",
      "blockNumber": "0x1db953f",
      "gasUsed": "0x5208",
      "effectiveGasPrice": "0x1312d01",
      "blobGasUsed": "0x64",
      "from": "0xa01fb14b58bdb67a8f07977273f8a2ca04078542",
      "to": "0x0f1e8c990179dcb05dcc85830946a90a33990e61",
      "contractAddress": null
    },
    {
      "type": "0x2",
      "status": "0x1",
      "cumulativeGasUsed": "0x13972",
      "logs": [
        {
          "address": "0x212e0207999b982b2f4b8f91ca421d94dc8438e3",
          "topics": [
            "0xddf252ad1be2c89b69c2b068fc378daa952ba7f163c4a11628f55a4df523b3ef",
            "0x0000000000000000000000000000000000000000000000000000000000000000",
            "0x000000000000000000000000b386521a04a42822c4c11ac3039d04676d3afafa"
          ],
          "data": "0x00000000000000000000000000000000000000000000152d02c7e14af6800000",
          "blockHash": "0x7d22edfed2ef7bbea874f8e1817def6814a41ea22f5c3731b7f4544ce48d071a",
          "blockNumber": "0x1db9540",
          "blockTimestamp": "0x6a12f295",
          "transactionHash": "0x601d477f9de974d6d857f34ce4e8fffab05ad5afc3ece2d9437ae76cae43ccb8",
          "transactionIndex": "0x1",
          "logIndex": "0x0",
          "removed": false
        }
      ],
      "logsBloom": "0x00000000000000000000000000000000000000000000000100000000000000000000000000000000000000000000000000000000000000008000000000000000000000000000000000000008000000000000000000000000000000000000000000000000020000000000000000000900000000000000000000000010000002000000000000000000000000000000000000000000000000000000000000000000000000000000000000000000008000000000000000000000000000000000000000000002000000000000000000000000000000000000000000000000000020000000000000000000002000000000000000000000000000000000000000000000",
      "transactionHash": "0x601d477f9de974d6d857f34ce4e8fffab05ad5afc3ece2d9437ae76cae43ccb8",
      "transactionIndex": "0x1",
      "blockHash": "0x7d22edfed2ef7bbea874f8e1817def6814a41ea22f5c3731b7f4544ce48d071a",
      "blockNumber": "0x1db9540",
      "gasUsed": "0x8530",
      "effectiveGasPrice": "0x1312d01",
      "blobGasUsed": "0x64",
      "from": "0xa01fb14b58bdb67a8f07977273f8a2ca04078542",
      "to": "0x212e0207999b982b2f4b8f91ca421d94dc8438e3",
      "contractAddress": null
    },
    {
      "type": "0x2",
      "status": "0x1",
      "cumulativeGasUsed": "0x148fe",
      "logs": [],
      "logsBloom": "0x00000000000000000000000000000000000000000000000000000000000000000000000000000000000000000000000000000000000000000000000000000000000000000000000000000000000000000000000000000000000000000000000000000000000000000000000000000000000000000000000000000000000000000000000000000000000000000000000000000000000000000000000000000000000000000000000000000000000000000000000000000000000000000000000000000000000000000000000000000000000000000000000000000000000000000000000000000000000000000000000000000000000000000000000000000000",
      "transactionHash": "0x155bba917f02b36af3e11d2801d9ac562adbd9418d9c165a3310da55d0c9d082",
      "transactionIndex": "0x1",
      "blockHash": "0xd69e1b60ad1f3b03e840ae906b18598af19509fef12ace8c7bd3067bc18493a8",
      "blockNumber": "0x1db9542",
      "gasUsed": "0x5208",
      "effectiveGasPrice": "0x1312d01",
      "blobGasUsed": "0x64",
      "from": "0xa01fb14b58bdb67a8f07977273f8a2ca04078542",
      "to": "0xb386521a04a42822c4c11ac3039d04676d3afafa",
      "contractAddress": null
    },
    {
      "type": "0x2",
      "status": "0x1",
      "cumulativeGasUsed": "0x1395a",
      "logs": [
        {
          "address": "0x212e0207999b982b2f4b8f91ca421d94dc8438e3",
          "topics": [
            "0xddf252ad1be2c89b69c2b068fc378daa952ba7f163c4a11628f55a4df523b3ef",
            "0x0000000000000000000000000000000000000000000000000000000000000000",
            "0x0000000000000000000000006b74594b719d315c92326158118b552fcf08aed6"
          ],
          "data": "0x00000000000000000000000000000000000000000000152d02c7e14af6800000",
          "blockHash": "0xd10d1c503842a0df97b05df1b48c9ee0daaa21fc340f6ac13b64f582549ba92d",
          "blockNumber": "0x1db9543",
          "blockTimestamp": "0x6a12f298",
          "transactionHash": "0xb560679676248f1b2fe3f3f29b25ec2e2e2c73b9922446d603991a61dd86867c",
          "transactionIndex": "0x1",
          "logIndex": "0x0",
          "removed": false
        }
      ],
      "logsBloom": "0x00000000000000000000000010000000000000000000000100000000000000000000000000000000000000000000000000000000000000000000000000000000000000000000000000000008000000000000000000000000000000000000000000000000020000000000000000000900000000000000000000000010000002000000000000000000000000000000000000000000000000000000000000800000000000000000000000000000000000000000000000000200000000000000000000000002000000000000000000000000000000000000000000000000000020000000000000000000000000000000000000000000000000000000000000000000",
      "transactionHash": "0xb560679676248f1b2fe3f3f29b25ec2e2e2c73b9922446d603991a61dd86867c",
      "transactionIndex": "0x1",
      "blockHash": "0xd10d1c503842a0df97b05df1b48c9ee0daaa21fc340f6ac13b64f582549ba92d",
      "blockNumber": "0x1db9543",
      "gasUsed": "0x8530",
      "effectiveGasPrice": "0x1312d01",
      "blobGasUsed": "0x64",
      "from": "0xa01fb14b58bdb67a8f07977273f8a2ca04078542",
      "to": "0x212e0207999b982b2f4b8f91ca421d94dc8438e3",
      "contractAddress": null
    },
    {
      "type": "0x2",
      "status": "0x1",
      "cumulativeGasUsed": "0x10632",
      "logs": [],
      "logsBloom": "0x00000000000000000000000000000000000000000000000000000000000000000000000000000000000000000000000000000000000000000000000000000000000000000000000000000000000000000000000000000000000000000000000000000000000000000000000000000000000000000000000000000000000000000000000000000000000000000000000000000000000000000000000000000000000000000000000000000000000000000000000000000000000000000000000000000000000000000000000000000000000000000000000000000000000000000000000000000000000000000000000000000000000000000000000000000000",
      "transactionHash": "0x54be1d8ce6414a3073b445147fa5156ac519382c6e76fefa81baf69cdf789867",
      "transactionIndex": "0x1",
      "blockHash": "0xddeb3f090bcad245bd7e7bb0a4ca2a489e0edce9b89b89f3a69fff7ad6429132",
      "blockNumber": "0x1db9544",
      "gasUsed": "0x5208",
      "effectiveGasPrice": "0x1312d01",
      "blobGasUsed": "0x64",
      "from": "0xa01fb14b58bdb67a8f07977273f8a2ca04078542",
      "to": "0x6b74594b719d315c92326158118b552fcf08aed6",
      "contractAddress": null
    },
    {
      "type": "0x2",
      "status": "0x1",
      "cumulativeGasUsed": "0x17c26",
      "logs": [
        {
          "address": "0x212e0207999b982b2f4b8f91ca421d94dc8438e3",
          "topics": [
            "0xddf252ad1be2c89b69c2b068fc378daa952ba7f163c4a11628f55a4df523b3ef",
            "0x0000000000000000000000000000000000000000000000000000000000000000",
            "0x000000000000000000000000dbe9250154ddd10b9b8a9e09227c803dc10c6e23"
          ],
          "data": "0x00000000000000000000000000000000000000000000152d02c7e14af6800000",
          "blockHash": "0xae813c39e4b70e945b9c3ce6cf67b9771e7a1b601ac804339994c36b5e4da690",
          "blockNumber": "0x1db9546",
          "blockTimestamp": "0x6a12f29b",
          "transactionHash": "0x066e89c7b61eb76b2f926e60fc26aefd57608ce382e7baac94f1843721f68423",
          "transactionIndex": "0x1",
          "logIndex": "0x0",
          "removed": false
        }
      ],
      "logsBloom": "0x00000000000000000000000000000000000000000000000100000000000000000000000004000000000000000000000000000000000000000000200000000000000000000000000000000008000000000000000000000000000000000000000000000000020000000000000000000900000000000000000000000010000002000000000000000000000000000000000000000000000000000000000000000000000000000000000000000000000000000000000000000000000000000000000000000002000000000000000000000000000000000000000400000000000020000000000000000000000000000000000000000000000000000000000000000000",
      "transactionHash": "0x066e89c7b61eb76b2f926e60fc26aefd57608ce382e7baac94f1843721f68423",
      "transactionIndex": "0x1",
      "blockHash": "0xae813c39e4b70e945b9c3ce6cf67b9771e7a1b601ac804339994c36b5e4da690",
      "blockNumber": "0x1db9546",
      "gasUsed": "0xc7fc",
      "effectiveGasPrice": "0x1312d01",
      "blobGasUsed": "0x64",
      "from": "0xa01fb14b58bdb67a8f07977273f8a2ca04078542",
      "to": "0x212e0207999b982b2f4b8f91ca421d94dc8438e3",
      "contractAddress": null
    },
    {
      "type": "0x2",
      "status": "0x1",
      "cumulativeGasUsed": "0x21208",
      "logs": [],
      "logsBloom": "0x00000000000000000000000000000000000000000000000000000000000000000000000000000000000000000000000000000000000000000000000000000000000000000000000000000000000000000000000000000000000000000000000000000000000000000000000000000000000000000000000000000000000000000000000000000000000000000000000000000000000000000000000000000000000000000000000000000000000000000000000000000000000000000000000000000000000000000000000000000000000000000000000000000000000000000000000000000000000000000000000000000000000000000000000000000000",
      "transactionHash": "0x8cbbda74770ecdcdb5b4fb0d36ed972a6fd745144c16a7664ccefae1df2db171",
      "transactionIndex": "0x3",
      "blockHash": "0x2a822e97f205a67095be51096ca48d2e1e4bf4c7858efcf4515dc23b4f9d0b65",
      "blockNumber": "0x1db9547",
      "gasUsed": "0x5208",
      "effectiveGasPrice": "0x1312d01",
      "blobGasUsed": "0x64",
      "from": "0xa01fb14b58bdb67a8f07977273f8a2ca04078542",
      "to": "0xdbe9250154ddd10b9b8a9e09227c803dc10c6e23",
      "contractAddress": null
    },
    {
      "type": "0x2",
      "status": "0x1",
      "cumulativeGasUsed": "0x3966f",
      "logs": [
        {
          "address": "0x212e0207999b982b2f4b8f91ca421d94dc8438e3",
          "topics": [
            "0xddf252ad1be2c89b69c2b068fc378daa952ba7f163c4a11628f55a4df523b3ef",
            "0x0000000000000000000000000000000000000000000000000000000000000000",
            "0x0000000000000000000000001a6c71bd8e64022ff0ba74ef1ec0271857309ab7"
          ],
          "data": "0x00000000000000000000000000000000000000000000152d02c7e14af6800000",
          "blockHash": "0x120149837362f3516a371d241fa0eaf9a944d31ececd20519348d37feb2227a3",
          "blockNumber": "0x1db9548",
          "blockTimestamp": "0x6a12f29d",
          "transactionHash": "0x6318cc12d63f5ee1e22327d4798e6ec915f655d4411564ad9eecee8a6aeb3e97",
          "transactionIndex": "0x2",
          "logIndex": "0x2",
          "removed": false
        }
      ],
      "logsBloom": "0x00000000000000000000000000000000000000000000000100000000000000000000000000000000000000000000000000000000000000000000000000000000000000000000000002000008000000000000000000000000000000000000000001000000020000000010000000000900000000000000000000000010000002000000000000000000000000000000000000000000000000000000000000000000000000000000000000000000000000000000000000000000000000000000000000000002000000000000000000000000000000000000000000000000000020000000000000000000000000000000000000000000000000000000000000000000",
      "transactionHash": "0x6318cc12d63f5ee1e22327d4798e6ec915f655d4411564ad9eecee8a6aeb3e97",
      "transactionIndex": "0x2",
      "blockHash": "0x120149837362f3516a371d241fa0eaf9a944d31ececd20519348d37feb2227a3",
      "blockNumber": "0x1db9548",
      "gasUsed": "0xc7fc",
      "effectiveGasPrice": "0x1312d01",
      "blobGasUsed": "0x64",
      "from": "0xa01fb14b58bdb67a8f07977273f8a2ca04078542",
      "to": "0x212e0207999b982b2f4b8f91ca421d94dc8438e3",
      "contractAddress": null
    },
    {
      "type": "0x2",
      "status": "0x1",
      "cumulativeGasUsed": "0x10632",
      "logs": [],
      "logsBloom": "0x00000000000000000000000000000000000000000000000000000000000000000000000000000000000000000000000000000000000000000000000000000000000000000000000000000000000000000000000000000000000000000000000000000000000000000000000000000000000000000000000000000000000000000000000000000000000000000000000000000000000000000000000000000000000000000000000000000000000000000000000000000000000000000000000000000000000000000000000000000000000000000000000000000000000000000000000000000000000000000000000000000000000000000000000000000000",
      "transactionHash": "0xe6ec8f6409dfb662c0b1e3b00924ddfa8f5df0c861012bd007d3003a794c000e",
      "transactionIndex": "0x1",
      "blockHash": "0x32fe651a61cbfd42c41016f6c370ad64ae5a770a09388bbc37244ae311f57640",
      "blockNumber": "0x1db954a",
      "gasUsed": "0x5208",
      "effectiveGasPrice": "0x1312d01",
      "blobGasUsed": "0x64",
      "from": "0xa01fb14b58bdb67a8f07977273f8a2ca04078542",
      "to": "0x1a6c71bd8e64022ff0ba74ef1ec0271857309ab7",
      "contractAddress": null
    },
    {
      "type": "0x2",
      "status": "0x1",
      "cumulativeGasUsed": "0x17c26",
      "logs": [
        {
          "address": "0x212e0207999b982b2f4b8f91ca421d94dc8438e3",
          "topics": [
            "0xddf252ad1be2c89b69c2b068fc378daa952ba7f163c4a11628f55a4df523b3ef",
            "0x0000000000000000000000000000000000000000000000000000000000000000",
            "0x0000000000000000000000006a138140db992be34019e6722037e84030d9361e"
          ],
          "data": "0x00000000000000000000000000000000000000000000152d02c7e14af6800000",
          "blockHash": "0x07aea709e842f6ea603386aba44bdc41092eee5e001c67bbd252817c3d4370f9",
          "blockNumber": "0x1db954b",
          "blockTimestamp": "0x6a12f2a0",
          "transactionHash": "0x9cdd06a789bfd064349599b5fc9482f282d3ac3a934980bcd1166a7293439fd6",
          "transactionIndex": "0x1",
          "logIndex": "0x0",
          "removed": false
        }
      ],
      "logsBloom": "0x00000000000000000000000000000000000000000000000100000000000000000000000000000000000000000000000000000000000000000000000000000000000002000000000000000008000000000000000000000000000000000800000000000000020000000000000000000900000000000000000000000010000002000000000000000000000000000000000000000400000000000000000000000000000000000000000000000000000000000000000000000000000000000000000000000002000000000000000000000000000000000000000000000000000020000000000000000000000000000000000000000000000000000000000000000000",
      "transactionHash": "0x9cdd06a789bfd064349599b5fc9482f282d3ac3a934980bcd1166a7293439fd6",
      "transactionIndex": "0x1",
      "blockHash": "0x07aea709e842f6ea603386aba44bdc41092eee5e001c67bbd252817c3d4370f9",
      "blockNumber": "0x1db954b",
      "gasUsed": "0xc7fc",
      "effectiveGasPrice": "0x1312d01",
      "blobGasUsed": "0x64",
      "from": "0xa01fb14b58bdb67a8f07977273f8a2ca04078542",
      "to": "0x212e0207999b982b2f4b8f91ca421d94dc8438e3",
      "contractAddress": null
    },
    {
      "type": "0x2",
      "status": "0x1",
      "cumulativeGasUsed": "0x11f3e",
      "logs": [],
      "logsBloom": "0x00000000000000000000000000000000000000000000000000000000000000000000000000000000000000000000000000000000000000000000000000000000000000000000000000000000000000000000000000000000000000000000000000000000000000000000000000000000000000000000000000000000000000000000000000000000000000000000000000000000000000000000000000000000000000000000000000000000000000000000000000000000000000000000000000000000000000000000000000000000000000000000000000000000000000000000000000000000000000000000000000000000000000000000000000000000",
      "transactionHash": "0x49eaac04588b84e56a13634830e154e47e14a4e7d486b4d9d5ec8bff19f7b7ec",
      "transactionIndex": "0x1",
      "blockHash": "0x328f8aac610b394393242f80e0939c82d97adf4efbe96e68455717d7f91036c1",
      "blockNumber": "0x1db954d",
      "gasUsed": "0x5208",
      "effectiveGasPrice": "0x1312d01",
      "blobGasUsed": "0x64",
      "from": "0xa01fb14b58bdb67a8f07977273f8a2ca04078542",
      "to": "0x6a138140db992be34019e6722037e84030d9361e",
      "contractAddress": null
    },
    {
      "type": "0x2",
      "status": "0x1",
      "cumulativeGasUsed": "0x6e1c6",
      "logs": [
        {
          "address": "0x212e0207999b982b2f4b8f91ca421d94dc8438e3",
          "topics": [
            "0xddf252ad1be2c89b69c2b068fc378daa952ba7f163c4a11628f55a4df523b3ef",
            "0x0000000000000000000000000000000000000000000000000000000000000000",
            "0x0000000000000000000000000e4a96a98796f058d509dc218639b9eab0a458c2"
          ],
          "data": "0x00000000000000000000000000000000000000000000152d02c7e14af6800000",
          "blockHash": "0x48b6ac14fc7e8eecfc9f415df08322896d1193e64cae08c36789df741e717f9e",
          "blockNumber": "0x1db954e",
          "blockTimestamp": "0x6a12f2a3",
          "transactionHash": "0xff7c25ce998f821837f0b1203c0e453b2eafa0fc59dedbd6633f9e7a6a1aeb4c",
          "transactionIndex": "0x6",
          "logIndex": "0x7",
          "removed": false
        }
      ],
      "logsBloom": "0x00000000000000000000000000000000000000000000000100800000000000000000000000000000000000000000000000000000000000000000000000000000000000000000000000002008000000000000000000000000000000000000000000000000020000000000000000000900000000000000000000000010000002000000000000000000000000000000000000000000010000000000000000000000000000000000000000000000000000000000000000000000000000000000000000000002000000000000000000000000000000000000000000000000000020000000000000000000000000000000000000000000000000000000000000000000",
      "transactionHash": "0xff7c25ce998f821837f0b1203c0e453b2eafa0fc59dedbd6633f9e7a6a1aeb4c",
      "transactionIndex": "0x6",
      "blockHash": "0x48b6ac14fc7e8eecfc9f415df08322896d1193e64cae08c36789df741e717f9e",
      "blockNumber": "0x1db954e",
      "gasUsed": "0xc7fc",
      "effectiveGasPrice": "0x1312d01",
      "blobGasUsed": "0x64",
      "from": "0xa01fb14b58bdb67a8f07977273f8a2ca04078542",
      "to": "0x212e0207999b982b2f4b8f91ca421d94dc8438e3",
      "contractAddress": null
    },
    {
      "type": "0x2",
      "status": "0x1",
      "cumulativeGasUsed": "0x17703",
      "logs": [],
      "logsBloom": "0x00000000000000000000000000000000000000000000000000000000000000000000000000000000000000000000000000000000000000000000000000000000000000000000000000000000000000000000000000000000000000000000000000000000000000000000000000000000000000000000000000000000000000000000000000000000000000000000000000000000000000000000000000000000000000000000000000000000000000000000000000000000000000000000000000000000000000000000000000000000000000000000000000000000000000000000000000000000000000000000000000000000000000000000000000000000",
      "transactionHash": "0x5c5310f8efa2c4b9a4466ec58e3976307148cb57ba8d208bf8536b94e77ca2fd",
      "transactionIndex": "0x2",
      "blockHash": "0x1f04e49509810c054ea0f4836241efdbb41d4ca4bafc00181ffe7919460aef30",
      "blockNumber": "0x1db954f",
      "gasUsed": "0x5208",
      "effectiveGasPrice": "0x1312d01",
      "blobGasUsed": "0x64",
      "from": "0xa01fb14b58bdb67a8f07977273f8a2ca04078542",
      "to": "0x0e4a96a98796f058d509dc218639b9eab0a458c2",
      "contractAddress": null
    },
    {
      "type": "0x2",
      "status": "0x1",
      "cumulativeGasUsed": "0x17c3e",
      "logs": [
        {
          "address": "0x212e0207999b982b2f4b8f91ca421d94dc8438e3",
          "topics": [
            "0xddf252ad1be2c89b69c2b068fc378daa952ba7f163c4a11628f55a4df523b3ef",
            "0x0000000000000000000000000000000000000000000000000000000000000000",
            "0x000000000000000000000000a0230e9c18849b84b3dbbe5fef861d4a7f9cbe64"
          ],
          "data": "0x00000000000000000000000000000000000000000000152d02c7e14af6800000",
          "blockHash": "0x7d79c704dedd2ede055ecea7c7317225598499ec3b1a2de379c8d577ead52225",
          "blockNumber": "0x1db9551",
          "blockTimestamp": "0x6a12f2a6",
          "transactionHash": "0xc483007674d1452556e6b2f723b1335915bb767d74b883441952b5e97adbfb23",
          "transactionIndex": "0x1",
          "logIndex": "0x0",
          "removed": false
        }
      ],
      "logsBloom": "0x00000000000000000000000000000000000000000000000180000000000000000000000000000000000000000000000000000000000000000000000000000000000000000000000000000008000000000000000000000000000000000000000000000000020000000000000080000900000000000000000000000010000002000000000000000000000000000002000000000000000000000000000000000000000000000000000000000000000000000000000000000000000000000000000000000002000000000000000000000000000000000000000000000000000020000000000000000000000000000000000000000000000000000000000000000000",
      "transactionHash": "0xc483007674d1452556e6b2f723b1335915bb767d74b883441952b5e97adbfb23",
      "transactionIndex": "0x1",
      "blockHash": "0x7d79c704dedd2ede055ecea7c7317225598499ec3b1a2de379c8d577ead52225",
      "blockNumber": "0x1db9551",
      "gasUsed": "0xc7fc",
      "effectiveGasPrice": "0x1312d01",
      "blobGasUsed": "0x64",
      "from": "0xa01fb14b58bdb67a8f07977273f8a2ca04078542",
      "to": "0x212e0207999b982b2f4b8f91ca421d94dc8438e3",
      "contractAddress": null
    },
    {
      "type": "0x2",
      "status": "0x1",
      "cumulativeGasUsed": "0x1064a",
      "logs": [],
      "logsBloom": "0x00000000000000000000000000000000000000000000000000000000000000000000000000000000000000000000000000000000000000000000000000000000000000000000000000000000000000000000000000000000000000000000000000000000000000000000000000000000000000000000000000000000000000000000000000000000000000000000000000000000000000000000000000000000000000000000000000000000000000000000000000000000000000000000000000000000000000000000000000000000000000000000000000000000000000000000000000000000000000000000000000000000000000000000000000000000",
      "transactionHash": "0xf32947aa82a57bc83d77cf66e473a62ff6cd667d2764b9d9d827fd65237e5c60",
      "transactionIndex": "0x1",
      "blockHash": "0x141e1a5e8507640bd7098192cfc26604d88c8fa2732959116e6851a165f1dc66",
      "blockNumber": "0x1db9552",
      "gasUsed": "0x5208",
      "effectiveGasPrice": "0x1312d01",
      "blobGasUsed": "0x64",
      "from": "0xa01fb14b58bdb67a8f07977273f8a2ca04078542",
      "to": "0xa0230e9c18849b84b3dbbe5fef861d4a7f9cbe64",
      "contractAddress": null
    },
    {
      "type": "0x2",
      "status": "0x1",
      "cumulativeGasUsed": "0x5e506",
      "logs": [
        {
          "address": "0x212e0207999b982b2f4b8f91ca421d94dc8438e3",
          "topics": [
            "0xddf252ad1be2c89b69c2b068fc378daa952ba7f163c4a11628f55a4df523b3ef",
            "0x0000000000000000000000000000000000000000000000000000000000000000",
            "0x00000000000000000000000003af030f5ae7e3c0409f5bf517b6a7e4ba498974"
          ],
          "data": "0x00000000000000000000000000000000000000000000152d02c7e14af6800000",
          "blockHash": "0xb067b83f6220eec6251854f79db7f37402180a6316ea7a973af318f53c6d1617",
          "blockNumber": "0x1db9553",
          "blockTimestamp": "0x6a12f2a8",
          "transactionHash": "0x7e3d303f1cb91e6b59f494f6055a933f16a6f4be7cbcd65cf419ecdabcffc6f5",
          "transactionIndex": "0x4",
          "logIndex": "0x5",
          "removed": false
        }
      ],
      "logsBloom": "0x00000000000000000000000080000000000000000000000100000000000000000000000000000000000000000000000000000000000000000000000000000000000000000000000000000008000000000000000000000000000000000000000000000000120000000000000000000900000000000000000000000010000002000000000000000000000000000000000000000000000000000000000000000000000000000000000000000000000000000000000000000000000000000000000000000002000000000000000000000000400000000000000000000000000020000000000000000000000000000000000000000000000000000000000000000000",
      "transactionHash": "0x7e3d303f1cb91e6b59f494f6055a933f16a6f4be7cbcd65cf419ecdabcffc6f5",
      "transactionIndex": "0x4",
      "blockHash": "0xb067b83f6220eec6251854f79db7f37402180a6316ea7a973af318f53c6d1617",
      "blockNumber": "0x1db9553",
      "gasUsed": "0xc7fc",
      "effectiveGasPrice": "0x1312d01",
      "blobGasUsed": "0x64",
      "from": "0xa01fb14b58bdb67a8f07977273f8a2ca04078542",
      "to": "0x212e0207999b982b2f4b8f91ca421d94dc8438e3",
      "contractAddress": null
    },
    {
      "type": "0x2",
      "status": "0x1",
      "cumulativeGasUsed": "0x47278",
      "logs": [],
      "logsBloom": "0x00000000000000000000000000000000000000000000000000000000000000000000000000000000000000000000000000000000000000000000000000000000000000000000000000000000000000000000000000000000000000000000000000000000000000000000000000000000000000000000000000000000000000000000000000000000000000000000000000000000000000000000000000000000000000000000000000000000000000000000000000000000000000000000000000000000000000000000000000000000000000000000000000000000000000000000000000000000000000000000000000000000000000000000000000000000",
      "transactionHash": "0x2d5e03e6f785c5763148acc28a831cb2e3a0a15212e2d1b8ea7e65d332871a0d",
      "transactionIndex": "0x3",
      "blockHash": "0x969822fbbcb28be3298e8a2ebd6d0e1fef97baac7da9dcc57dab390747ada7e3",
      "blockNumber": "0x1db9555",
      "gasUsed": "0x5208",
      "effectiveGasPrice": "0x1312d01",
      "blobGasUsed": "0x64",
      "from": "0xa01fb14b58bdb67a8f07977273f8a2ca04078542",
      "to": "0x03af030f5ae7e3c0409f5bf517b6a7e4ba498974",
      "contractAddress": null
    },
    {
      "type": "0x2",
      "status": "0x1",
      "cumulativeGasUsed": "0x1ce46",
      "logs": [
        {
          "address": "0x212e0207999b982b2f4b8f91ca421d94dc8438e3",
          "topics": [
            "0xddf252ad1be2c89b69c2b068fc378daa952ba7f163c4a11628f55a4df523b3ef",
            "0x0000000000000000000000000000000000000000000000000000000000000000",
            "0x000000000000000000000000f7ddf19f45af318bf34ac190ff16fcc24a857fb2"
          ],
          "data": "0x00000000000000000000000000000000000000000000152d02c7e14af6800000",
          "blockHash": "0x5dc3c9d1239997bd9c6ae5540d978f2c29d726919bfc8eacec81a0d6ec1f5ea0",
          "blockNumber": "0x1db9556",
          "blockTimestamp": "0x6a12f2ab",
          "transactionHash": "0x82d416d733ef677eac5821628488e5fa9768b369eae643f9502f4b7fa16c543f",
          "transactionIndex": "0x2",
          "logIndex": "0x0",
          "removed": false
        }
      ],
      "logsBloom": "0x00000000000000000000000000000000000000000000000100000000000000000000000000000000000000000000000000000000000000000000000000000000000000000000000000000008000000000000000000000000000000010000000000000000020000000000000000000900000000000000000000000010000002000000000000000000000000000000000000000000000000000000800000000000000000000000000000000000000000000000000000000000000000000000000000000002000000000000000000000000000000000200000000000000000020000000000000000000000000000000000000000000000000000000000000000000",
      "transactionHash": "0x82d416d733ef677eac5821628488e5fa9768b369eae643f9502f4b7fa16c543f",
      "transactionIndex": "0x2",
      "blockHash": "0x5dc3c9d1239997bd9c6ae5540d978f2c29d726919bfc8eacec81a0d6ec1f5ea0",
      "blockNumber": "0x1db9556",
      "gasUsed": "0xc7fc",
      "effectiveGasPrice": "0x1312d01",
      "blobGasUsed": "0x64",
      "from": "0xa01fb14b58bdb67a8f07977273f8a2ca04078542",
      "to": "0x212e0207999b982b2f4b8f91ca421d94dc8438e3",
      "contractAddress": null
    },
    {
      "type": "0x2",
      "status": "0x1",
      "cumulativeGasUsed": "0x1064a",
      "logs": [],
      "logsBloom": "0x00000000000000000000000000000000000000000000000000000000000000000000000000000000000000000000000000000000000000000000000000000000000000000000000000000000000000000000000000000000000000000000000000000000000000000000000000000000000000000000000000000000000000000000000000000000000000000000000000000000000000000000000000000000000000000000000000000000000000000000000000000000000000000000000000000000000000000000000000000000000000000000000000000000000000000000000000000000000000000000000000000000000000000000000000000000",
      "transactionHash": "0x7616886ce23fb52de630489f0612400cefbefc43a60bad67680f731cf69576e8",
      "transactionIndex": "0x1",
      "blockHash": "0xc80be01e408b9e528e94c7f6f6b5eeae34aedad23404adf11f5e66ef183efe8a",
      "blockNumber": "0x1db9558",
      "gasUsed": "0x5208",
      "effectiveGasPrice": "0x1312d01",
      "blobGasUsed": "0x64",
      "from": "0xa01fb14b58bdb67a8f07977273f8a2ca04078542",
      "to": "0xf7ddf19f45af318bf34ac190ff16fcc24a857fb2",
      "contractAddress": null
    },
    {
      "type": "0x2",
      "status": "0x1",
      "cumulativeGasUsed": "0x19532",
      "logs": [
        {
          "address": "0x212e0207999b982b2f4b8f91ca421d94dc8438e3",
          "topics": [
            "0xddf252ad1be2c89b69c2b068fc378daa952ba7f163c4a11628f55a4df523b3ef",
            "0x0000000000000000000000000000000000000000000000000000000000000000",
            "0x000000000000000000000000c14182236ba43e22dd82b93dd1551ec0ebdd23c2"
          ],
          "data": "0x00000000000000000000000000000000000000000000152d02c7e14af6800000",
          "blockHash": "0x3061f1d568f11d914a9947d9891ad37039290976dbc3b596056d7a021ea23075",
          "blockNumber": "0x1db9559",
          "blockTimestamp": "0x6a12f2ae",
          "transactionHash": "0x4b5846f06693800e4955f36a6eed43dde5b0bd6f036b0604436f2d7ff68c7aea",
          "transactionIndex": "0x1",
          "logIndex": "0x0",
          "removed": false
        }
      ],
      "logsBloom": "0x00000000000000000000000000000000000000000000000100000000000000000000000000000000000040000000000000000000000000000000000000000000000000000000000000000008000000000000020000000000000000000000000000000000020000000000000000000900000000000000000000000010000002000000000000000000000000000000000000000000000000000000000000000000000000000000000000000000000000000000000000004000000000000000000000000002000000000000000000000000000000000000000000000000000020000000000000000000000000000000000000000000000000000000000000000000",
      "transactionHash": "0x4b5846f06693800e4955f36a6eed43dde5b0bd6f036b0604436f2d7ff68c7aea",
      "transactionIndex": "0x1",
      "blockHash": "0x3061f1d568f11d914a9947d9891ad37039290976dbc3b596056d7a021ea23075",
      "blockNumber": "0x1db9559",
      "gasUsed": "0xc7fc",
      "effectiveGasPrice": "0x1312d01",
      "blobGasUsed": "0x64",
      "from": "0xa01fb14b58bdb67a8f07977273f8a2ca04078542",
      "to": "0x212e0207999b982b2f4b8f91ca421d94dc8438e3",
      "contractAddress": null
    },
    {
      "type": "0x2",
      "status": "0x1",
      "cumulativeGasUsed": "0x1064a",
      "logs": [],
      "logsBloom": "0x00000000000000000000000000000000000000000000000000000000000000000000000000000000000000000000000000000000000000000000000000000000000000000000000000000000000000000000000000000000000000000000000000000000000000000000000000000000000000000000000000000000000000000000000000000000000000000000000000000000000000000000000000000000000000000000000000000000000000000000000000000000000000000000000000000000000000000000000000000000000000000000000000000000000000000000000000000000000000000000000000000000000000000000000000000000",
      "transactionHash": "0x5ee729e3e57d79044d39d5f8e1ea9a88d503a7c3141b6f94dc2c3d9bcaac2b6f",
      "transactionIndex": "0x1",
      "blockHash": "0x36790c5e9798b28b6aa2dd8922ff4cb375e53566c4952c8bb81883a1762c99a7",
      "blockNumber": "0x1db955b",
      "gasUsed": "0x5208",
      "effectiveGasPrice": "0x1312d01",
      "blobGasUsed": "0x64",
      "from": "0xa01fb14b58bdb67a8f07977273f8a2ca04078542",
      "to": "0xc14182236ba43e22dd82b93dd1551ec0ebdd23c2",
      "contractAddress": null
    },
    {
      "type": "0x2",
      "status": "0x1",
      "cumulativeGasUsed": "0x17c3e",
      "logs": [
        {
          "address": "0x212e0207999b982b2f4b8f91ca421d94dc8438e3",
          "topics": [
            "0xddf252ad1be2c89b69c2b068fc378daa952ba7f163c4a11628f55a4df523b3ef",
            "0x0000000000000000000000000000000000000000000000000000000000000000",
            "0x0000000000000000000000007d3714bcba4394947e4eba2e45bd6f3ce744737c"
          ],
          "data": "0x00000000000000000000000000000000000000000000152d02c7e14af6800000",
          "blockHash": "0xea31954a47b6c380cecfce84576f6f3f13ef5ab7d1bec082bafc3748571b81fb",
          "blockNumber": "0x1db955c",
          "blockTimestamp": "0x6a12f2b1",
          "transactionHash": "0x50180d5b830007c956cdcf21b44d91dae8e9f639b22d5e8dd6da9ac35753d19d",
          "transactionIndex": "0x1",
          "logIndex": "0x0",
          "removed": false
        }
      ],
      "logsBloom": "0x00000000000000000000000000000000000000000000000100000000000000000000000000000000000000000000000000000000000000000000000000000000000000000000000000000008000000000000000000000000000000000000000000000000020000000000000008000900000000000000000000000010000082000000000000000000000000000000000000000000000000000000000000000000000000000000000000000400000000000000000000000000000000000000000000000002000000000000000000000000000000000000000000000000000020000000000000000000000000000000000000000000000000000000000000000000",
      "transactionHash": "0x50180d5b830007c956cdcf21b44d91dae8e9f639b22d5e8dd6da9ac35753d19d",
      "transactionIndex": "0x1",
      "blockHash": "0xea31954a47b6c380cecfce84576f6f3f13ef5ab7d1bec082bafc3748571b81fb",
      "blockNumber": "0x1db955c",
      "gasUsed": "0xc7fc",
      "effectiveGasPrice": "0x1312d01",
      "blobGasUsed": "0x64",
      "from": "0xa01fb14b58bdb67a8f07977273f8a2ca04078542",
      "to": "0x212e0207999b982b2f4b8f91ca421d94dc8438e3",
      "contractAddress": null
    },
    {
      "type": "0x2",
      "status": "0x1",
      "cumulativeGasUsed": "0x1064a",
      "logs": [],
      "logsBloom": "0x00000000000000000000000000000000000000000000000000000000000000000000000000000000000000000000000000000000000000000000000000000000000000000000000000000000000000000000000000000000000000000000000000000000000000000000000000000000000000000000000000000000000000000000000000000000000000000000000000000000000000000000000000000000000000000000000000000000000000000000000000000000000000000000000000000000000000000000000000000000000000000000000000000000000000000000000000000000000000000000000000000000000000000000000000000000",
      "transactionHash": "0x8f827e8c578b5966027a42dae5df73d8aa07e6bcc3e8d6bb91f9d2603395feab",
      "transactionIndex": "0x1",
      "blockHash": "0x45722886c79bd385a469f20cf58ff54aaad07aba40b9f80073356d06d5dd4d2b",
      "blockNumber": "0x1db955d",
      "gasUsed": "0x5208",
      "effectiveGasPrice": "0x1312d01",
      "blobGasUsed": "0x64",
      "from": "0xa01fb14b58bdb67a8f07977273f8a2ca04078542",
      "to": "0x7d3714bcba4394947e4eba2e45bd6f3ce744737c",
      "contractAddress": null
    },
    {
      "type": "0x2",
      "status": "0x1",
      "cumulativeGasUsed": "0x17c3e",
      "logs": [
        {
          "address": "0x212e0207999b982b2f4b8f91ca421d94dc8438e3",
          "topics": [
            "0xddf252ad1be2c89b69c2b068fc378daa952ba7f163c4a11628f55a4df523b3ef",
            "0x0000000000000000000000000000000000000000000000000000000000000000",
            "0x00000000000000000000000036b157391896394d9b2a05116623b9abf195fb47"
          ],
          "data": "0x00000000000000000000000000000000000000000000152d02c7e14af6800000",
          "blockHash": "0xdf29fb28fe12d8c2f7fd37d74de363c8034b546a16ca9d99b3ee57b90470f8d4",
          "blockNumber": "0x1db955f",
          "blockTimestamp": "0x6a12f2b4",
          "transactionHash": "0xc9d68a6f8d5f7aab114e021155368b51dcbd4188d0cf30a2193c23782c00b9cd",
          "transactionIndex": "0x1",
          "logIndex": "0x0",
          "removed": false
        }
      ],
      "logsBloom": "0x00000000000000000000000000000000000000000000000100000000000000000000000000000000000000000000000000000000000000000000000000000000000000000000000000000008000000000000000000000000000000000000000800040000020000000000000000000900000000000000000000000010000002000000000000000000000000000000000000000000000000000000000000000000000000000000000000000000000000000000000000000000000000000000000000000002000000000000000000004000000000000000000000000000000020000000000000000000000000000000000000000000000000000000000000000000",
      "transactionHash": "0xc9d68a6f8d5f7aab114e021155368b51dcbd4188d0cf30a2193c23782c00b9cd",
      "transactionIndex": "0x1",
      "blockHash": "0xdf29fb28fe12d8c2f7fd37d74de363c8034b546a16ca9d99b3ee57b90470f8d4",
      "blockNumber": "0x1db955f",
      "gasUsed": "0xc7fc",
      "effectiveGasPrice": "0x1312d01",
      "blobGasUsed": "0x64",
      "from": "0xa01fb14b58bdb67a8f07977273f8a2ca04078542",
      "to": "0x212e0207999b982b2f4b8f91ca421d94dc8438e3",
      "contractAddress": null
    },
    {
      "type": "0x2",
      "status": "0x1",
      "cumulativeGasUsed": "0x15852",
      "logs": [],
      "logsBloom": "0x00000000000000000000000000000000000000000000000000000000000000000000000000000000000000000000000000000000000000000000000000000000000000000000000000000000000000000000000000000000000000000000000000000000000000000000000000000000000000000000000000000000000000000000000000000000000000000000000000000000000000000000000000000000000000000000000000000000000000000000000000000000000000000000000000000000000000000000000000000000000000000000000000000000000000000000000000000000000000000000000000000000000000000000000000000000",
      "transactionHash": "0xb5c39485c01fe1089f8d8755c599972d2efa5a14146ede5db89c117db492127f",
      "transactionIndex": "0x2",
      "blockHash": "0x00d4f9a9d35d0a33dda6e696c4db8fdea91b227dd29fda27052d794de6d53fab",
      "blockNumber": "0x1db9560",
      "gasUsed": "0x5208",
      "effectiveGasPrice": "0x1312d01",
      "blobGasUsed": "0x64",
      "from": "0xa01fb14b58bdb67a8f07977273f8a2ca04078542",
      "to": "0x36b157391896394d9b2a05116623b9abf195fb47",
      "contractAddress": null
    }
  ],
  "libraries": [],
  "pending": [],
  "returns": {},
  "timestamp": 1779626676747,
  "chain": 1952,
  "commit": "4c1a86f"
}